{
  "_format": "hh-sol-artifact-1",
  "contractName": "IdentityManagerFull",
  "sourceName": "contracts/IdentityManagerFull.sol",
  "abi": [
    {
      "anonymous": false,
      "inputs": [
        {
          "indexed": true,
          "internalType": "address",
          "name": "identity",
          "type": "address"
        },
        {
          "indexed": false,
          "internalType": "bytes32",
          "name": "name",
          "type": "bytes32"
        },
        {
          "indexed": false,
          "internalType": "bytes",
          "name": "value",
          "type": "bytes"
        },
        {
          "indexed": false,
          "internalType": "uint256",
          "name": "validTo",
          "type": "uint256"
        }
      ],
      "name": "DIDAttributeChanged",
      "type": "event"
    },
    {
      "anonymous": false,
      "inputs": [
        {
          "indexed": true,
          "internalType": "address",
          "name": "identity",
          "type": "address"
        },
        {
          "indexed": false,
          "internalType": "bytes32",
          "name": "delegateType",
          "type": "bytes32"
        },
        {
          "indexed": false,
          "internalType": "address",
          "name": "delegate",
          "type": "address"
        },
        {
          "indexed": false,
          "internalType": "uint256",
          "name": "validTo",
          "type": "uint256"
        }
      ],
      "name": "DIDDelegateChanged",
      "type": "event"
    },
    {
      "anonymous": false,
      "inputs": [
        {
          "indexed": true,
          "internalType": "address",
          "name": "identity",
          "type": "address"
        },
        {
          "indexed": false,
          "internalType": "address",
          "name": "owner",
          "type": "address"
        }
      ],
      "name": "DIDOwnerChanged",
      "type": "event"
    },
    {
      "anonymous": false,
      "inputs": [
        {
          "indexed": true,
          "internalType": "address",
          "name": "owner",
          "type": "address"
        },
        {
          "indexed": true,
          "internalType": "uint256",
          "name": "docId",
          "type": "uint256"
        },
        {
          "indexed": false,
          "internalType": "string",
          "name": "cid",
          "type": "string"
        }
      ],
      "name": "DocumentAdded",
      "type": "event"
    },
    {
      "anonymous": false,
      "inputs": [
        {
          "indexed": true,
          "internalType": "address",
          "name": "owner",
          "type": "address"
        },
        {
          "indexed": true,
          "internalType": "uint256",
          "name": "docId",
          "type": "uint256"
        }
      ],
      "name": "DocumentRevoked",
      "type": "event"
    },
    {
      "anonymous": false,
      "inputs": [
        {
          "indexed": true,
          "internalType": "address",
          "name": "owner",
          "type": "address"
        },
        {
          "indexed": true,
          "internalType": "uint256",
          "name": "docId",
          "type": "uint256"
        },
        {
          "indexed": false,
          "internalType": "address",
          "name": "sharedWith",
          "type": "address"
        }
      ],
      "name": "DocumentShareRevoked",
      "type": "event"
    },
    {
      "anonymous": false,
      "inputs": [
        {
          "indexed": true,
          "internalType": "address",
          "name": "owner",
          "type": "address"
        },
        {
          "indexed": true,
          "internalType": "uint256",
          "name": "docId",
          "type": "uint256"
        },
        {
          "indexed": false,
          "internalType": "address",
          "name": "sharedWith",
          "type": "address"
        },
        {
          "indexed": false,
          "internalType": "uint256",
          "name": "expiresAt",
          "type": "uint256"
        }
      ],
      "name": "DocumentShared",
      "type": "event"
    },
    {
      "inputs": [
        {
          "internalType": "address",
          "name": "identity",
          "type": "address"
        },
        {
          "internalType": "bytes32",
          "name": "delegateType",
          "type": "bytes32"
        },
        {
          "internalType": "address",
          "name": "delegate",
          "type": "address"
        },
        {
          "internalType": "uint256",
          "name": "expiresIn",
          "type": "uint256"
        }
      ],
      "name": "addDelegate",
      "outputs": [],
      "stateMutability": "nonpayable",
      "type": "function"
    },
    {
      "inputs": [
        {
          "internalType": "string",
          "name": "cid",
          "type": "string"
        },
        {
          "internalType": "string",
          "name": "mimeType",
          "type": "string"
        },
        {
          "internalType": "uint256",
          "name": "expiresIn",
          "type": "uint256"
        }
      ],
      "name": "addDocument",
      "outputs": [],
      "stateMutability": "nonpayable",
      "type": "function"
    },
    {
      "inputs": [
        {
          "internalType": "address",
          "name": "",
          "type": "address"
        },
        {
          "internalType": "bytes32",
          "name": "",
          "type": "bytes32"
        }
      ],
      "name": "attributes",
      "outputs": [
        {
          "internalType": "bytes",
          "name": "value",
          "type": "bytes"
        },
        {
          "internalType": "uint256",
          "name": "expires",
          "type": "uint256"
        }
      ],
      "stateMutability": "view",
      "type": "function"
    },
    {
      "inputs": [
        {
          "internalType": "address",
          "name": "owner",
          "type": "address"
        },
        {
          "internalType": "uint256",
          "name": "docId",
          "type": "uint256"
        }
      ],
      "name": "canAccess",
      "outputs": [
        {
          "internalType": "bool",
          "name": "",
          "type": "bool"
        }
      ],
      "stateMutability": "view",
      "type": "function"
    },
    {
      "inputs": [
        {
          "internalType": "address",
          "name": "identity",
          "type": "address"
        },
        {
          "internalType": "address",
          "name": "newOwner",
          "type": "address"
        }
      ],
      "name": "changeOwner",
      "outputs": [],
      "stateMutability": "nonpayable",
      "type": "function"
    },
    {
      "inputs": [
        {
          "internalType": "address",
          "name": "identity",
          "type": "address"
        },
        {
          "internalType": "address",
          "name": "newOwner",
          "type": "address"
        },
        {
          "internalType": "uint8",
          "name": "v",
          "type": "uint8"
        },
        {
          "internalType": "bytes32",
          "name": "r",
          "type": "bytes32"
        },
        {
          "internalType": "bytes32",
          "name": "s",
          "type": "bytes32"
        }
      ],
      "name": "changeOwnerSigned",
      "outputs": [],
      "stateMutability": "nonpayable",
      "type": "function"
    },
    {
      "inputs": [
        {
          "internalType": "address",
          "name": "identity",
          "type": "address"
        },
        {
          "internalType": "address",
          "name": "newOwner",
          "type": "address"
        }
      ],
      "name": "createChangeOwnerHash",
      "outputs": [
        {
          "internalType": "bytes32",
          "name": "",
          "type": "bytes32"
        }
      ],
      "stateMutability": "pure",
      "type": "function"
    },
    {
      "inputs": [
        {
          "internalType": "address",
          "name": "",
          "type": "address"
        },
        {
          "internalType": "address",
          "name": "",
          "type": "address"
        },
        {
          "internalType": "bytes32",
          "name": "",
          "type": "bytes32"
        }
      ],
      "name": "delegates",
      "outputs": [
        {
          "internalType": "bytes32",
          "name": "delegateType",
          "type": "bytes32"
        },
        {
          "internalType": "uint256",
          "name": "expires",
          "type": "uint256"
        }
      ],
      "stateMutability": "view",
      "type": "function"
    },
    {
      "inputs": [],
      "name": "getChainId",
      "outputs": [
        {
          "internalType": "uint256",
          "name": "",
          "type": "uint256"
        }
      ],
      "stateMutability": "view",
      "type": "function"
    },
    {
      "inputs": [],
      "name": "getMyDocuments",
      "outputs": [
        {
          "components": [
            {
              "internalType": "string",
              "name": "cid",
              "type": "string"
            },
            {
              "internalType": "string",
              "name": "mimeType",
              "type": "string"
            },
            {
              "internalType": "uint256",
              "name": "uploadedAt",
              "type": "uint256"
            },
            {
              "internalType": "uint256",
              "name": "expiresAt",
              "type": "uint256"
            },
            {
              "internalType": "bool",
              "name": "revoked",
              "type": "bool"
            }
          ],
          "internalType": "struct IdentityManagerFull.IPFSDocument[]",
          "name": "",
          "type": "tuple[]"
        }
      ],
      "stateMutability": "view",
      "type": "function"
    },
    {
      "inputs": [
        {
          "internalType": "address",
          "name": "identity",
          "type": "address"
        }
      ],
      "name": "getOwner",
      "outputs": [
        {
          "internalType": "address",
          "name": "",
          "type": "address"
        }
      ],
      "stateMutability": "view",
      "type": "function"
    },
    {
      "inputs": [
        {
          "internalType": "uint256",
          "name": "docId",
          "type": "uint256"
        }
      ],
      "name": "getSharedAccesses",
      "outputs": [
        {
          "components": [
            {
              "internalType": "address",
              "name": "sharedWith",
              "type": "address"
            },
            {
              "internalType": "uint256",
              "name": "expiresAt",
              "type": "uint256"
            },
            {
              "internalType": "bool",
              "name": "revoked",
              "type": "bool"
            }
          ],
          "internalType": "struct IdentityManagerFull.SharedAccess[]",
          "name": "",
          "type": "tuple[]"
        }
      ],
      "stateMutability": "view",
      "type": "function"
    },
    {
      "inputs": [
        {
          "internalType": "address",
          "name": "",
          "type": "address"
        }
      ],
      "name": "owners",
      "outputs": [
        {
          "internalType": "address",
          "name": "",
          "type": "address"
        }
      ],
      "stateMutability": "view",
      "type": "function"
    },
    {
      "inputs": [
        {
          "internalType": "address",
          "name": "identity",
          "type": "address"
        },
        {
          "internalType": "bytes32",
          "name": "name",
          "type": "bytes32"
        },
        {
          "internalType": "bytes",
          "name": "value",
          "type": "bytes"
        }
      ],
      "name": "revokeAttribute",
      "outputs": [],
      "stateMutability": "nonpayable",
      "type": "function"
    },
    {
      "inputs": [
        {
          "internalType": "address",
          "name": "identity",
          "type": "address"
        },
        {
          "internalType": "bytes32",
          "name": "delegateType",
          "type": "bytes32"
        },
        {
          "internalType": "address",
          "name": "delegate",
          "type": "address"
        }
      ],
      "name": "revokeDelegate",
      "outputs": [],
      "stateMutability": "nonpayable",
      "type": "function"
    },
    {
      "inputs": [
        {
          "internalType": "uint256",
          "name": "docId",
          "type": "uint256"
        }
      ],
      "name": "revokeDocument",
      "outputs": [],
      "stateMutability": "nonpayable",
      "type": "function"
    },
    {
      "inputs": [
        {
          "internalType": "uint256",
          "name": "docId",
          "type": "uint256"
        },
        {
          "internalType": "address",
          "name": "recipient",
          "type": "address"
        }
      ],
      "name": "revokeSharedAccess",
      "outputs": [],
      "stateMutability": "nonpayable",
      "type": "function"
    },
    {
      "inputs": [
        {
          "internalType": "address",
          "name": "identity",
          "type": "address"
        },
        {
          "internalType": "bytes32",
          "name": "name",
          "type": "bytes32"
        },
        {
          "internalType": "bytes",
          "name": "value",
          "type": "bytes"
        },
        {
          "internalType": "uint256",
          "name": "expiresIn",
          "type": "uint256"
        }
      ],
      "name": "setAttribute",
      "outputs": [],
      "stateMutability": "nonpayable",
      "type": "function"
    },
    {
      "inputs": [
        {
          "internalType": "uint256",
          "name": "docId",
          "type": "uint256"
        },
        {
          "internalType": "address",
          "name": "recipient",
          "type": "address"
        },
        {
          "internalType": "uint256",
          "name": "duration",
          "type": "uint256"
        }
      ],
      "name": "shareDocument",
      "outputs": [],
      "stateMutability": "nonpayable",
      "type": "function"
    },
    {
      "inputs": [
        {
          "internalType": "address",
          "name": "",
          "type": "address"
        },
        {
          "internalType": "uint256",
          "name": "",
          "type": "uint256"
        },
        {
          "internalType": "uint256",
          "name": "",
          "type": "uint256"
        }
      ],
      "name": "sharedDocuments",
      "outputs": [
        {
          "internalType": "address",
          "name": "sharedWith",
          "type": "address"
        },
        {
          "internalType": "uint256",
          "name": "expiresAt",
          "type": "uint256"
        },
        {
          "internalType": "bool",
          "name": "revoked",
          "type": "bool"
        }
      ],
      "stateMutability": "view",
      "type": "function"
    },
    {
      "inputs": [
        {
          "internalType": "address",
          "name": "",
          "type": "address"
        },
        {
          "internalType": "uint256",
          "name": "",
          "type": "uint256"
        }
      ],
      "name": "userDocuments",
      "outputs": [
        {
          "internalType": "string",
          "name": "cid",
          "type": "string"
        },
        {
          "internalType": "string",
          "name": "mimeType",
          "type": "string"
        },
        {
          "internalType": "uint256",
          "name": "uploadedAt",
          "type": "uint256"
        },
        {
          "internalType": "uint256",
          "name": "expiresAt",
          "type": "uint256"
        },
        {
          "internalType": "bool",
          "name": "revoked",
          "type": "bool"
        }
      ],
      "stateMutability": "view",
      "type": "function"
    }
  ],
  "bytecode": "0x608060405234801561001057600080fd5b50613620806100206000396000f3fe608060405234801561001057600080fd5b50600436106101365760003560e01c80639111976e116100b8578063c36397071161007c578063c363970714610363578063c61fffec1461037f578063ce6041ff146103af578063f00d4b5d146103df578063fa544161146103fb578063fba1842a1461042b57610136565b80639111976e146102c1578063a5eeacf4146102df578063a7068d66146102fb578063a8d115b014610317578063bb30e7531461034757610136565b80633408e470116100ff5780633408e47014610206578063577a1b9214610224578063719d0d30146102585780637ad4b0a41461028957806380b29f7c146102a557610136565b8062c023da1461013b578063022914a7146101575780630c03886b14610187578063222961ef146101b957806332ba5e6f146101ea575b600080fd5b610155600480360381019061015091906120cd565b610447565b005b610171600480360381019061016c919061213c565b610596565b60405161017e9190612178565b60405180910390f35b6101a1600480360381019061019c91906121c9565b6105c9565b6040516101b093929190612246565b60405180910390f35b6101d360048036038101906101ce919061227d565b61064a565b6040516101e19291906122df565b60405180910390f35b61020460048036038101906101ff9190612341565b610688565b005b61020e610833565b60405161021b91906123bc565b60405180910390f35b61023e600480360381019061023991906123d7565b61083b565b60405161024f959493929190612496565b60405180910390f35b610272600480360381019061026d91906124f7565b6109ab565b60405161028092919061258c565b60405180910390f35b6102a3600480360381019061029e91906125bc565b610a64565b005b6102bf60048036038101906102ba919061263f565b610bf5565b005b6102c9610d59565b6040516102d69190612839565b60405180910390f35b6102f960048036038101906102f4919061285b565b610f48565b005b610315600480360381019061031091906128ae565b61121d565b005b610331600480360381019061032c9190612915565b6113b7565b60405161033e9190612955565b60405180910390f35b610361600480360381019061035c9190612970565b6113ea565b005b61037d60048036038101906103789190612a51565b6115e6565b005b610399600480360381019061039491906123d7565b61178d565b6040516103a69190612adc565b60405180910390f35b6103c960048036038101906103c49190612af7565b611a26565b6040516103d69190612c24565b60405180910390f35b6103f960048036038101906103f49190612915565b611b50565b005b6104156004803603810190610410919061213c565b611c97565b6040516104229190612178565b60405180910390f35b61044560048036038101906104409190612af7565b611d99565b005b8261045181611c97565b73ffffffffffffffffffffffffffffffffffffffff163373ffffffffffffffffffffffffffffffffffffffff16146104be576040517f08c379a00000000000000000000000000000000000000000000000000000000081526004016104b590612c92565b60405180910390fd5b42600260008673ffffffffffffffffffffffffffffffffffffffff1673ffffffffffffffffffffffffffffffffffffffff16815260200190815260200160002060008585604051602001610513929190612d0f565b604051602081830303815290604052805190602001208152602001908152602001600020600101819055508373ffffffffffffffffffffffffffffffffffffffff167f3c245a8c1b6b130ac5da86703bf855a1d9657013c1d88239123bbfb25f5252e384844260405161058893929190612d37565b60405180910390a250505050565b60006020528060005260406000206000915054906101000a900473ffffffffffffffffffffffffffffffffffffffff1681565b600460205282600052604060002060205281600052604060002081815481106105f157600080fd5b906000526020600020906003020160009250925050508060000160009054906101000a900473ffffffffffffffffffffffffffffffffffffffff16908060010154908060020160009054906101000a900460ff16905083565b600160205282600052604060002060205281600052604060002060205280600052604060002060009250925050508060000154908060010154905082565b600061069486866113b7565b90506000600182868686604051600081526020016040526040516106bb9493929190612d84565b6020604051602081039080840390855afa1580156106dd573d6000803e3d6000fd5b5050506020604051035190506106f287611c97565b73ffffffffffffffffffffffffffffffffffffffff168173ffffffffffffffffffffffffffffffffffffffff161461075f576040517f08c379a000000000000000000000000000000000000000000000000000000000815260040161075690612e15565b60405180910390fd5b856000808973ffffffffffffffffffffffffffffffffffffffff1673ffffffffffffffffffffffffffffffffffffffff16815260200190815260200160002060006101000a81548173ffffffffffffffffffffffffffffffffffffffff021916908373ffffffffffffffffffffffffffffffffffffffff1602179055508673ffffffffffffffffffffffffffffffffffffffff167f9071b3f486383ebd5972712e0a90e1012d2f68a61306af305f8bdc974debde87876040516108229190612178565b60405180910390a250505050505050565b600046905090565b6003602052816000526040600020818154811061085757600080fd5b90600052602060002090600502016000915091505080600001805461087b90612e64565b80601f01602080910402602001604051908101604052809291908181526020018280546108a790612e64565b80156108f45780601f106108c9576101008083540402835291602001916108f4565b820191906000526020600020905b8154815290600101906020018083116108d757829003601f168201915b50505050509080600101805461090990612e64565b80601f016020809104026020016040519081016040528092919081815260200182805461093590612e64565b80156109825780601f1061095757610100808354040283529160200191610982565b820191906000526020600020905b81548152906001019060200180831161096557829003601f168201915b5050505050908060020154908060030154908060040160009054906101000a900460ff16905085565b6002602052816000526040600020602052806000526040600020600091509150508060000180546109db90612e64565b80601f0160208091040260200160405190810160405280929190818152602001828054610a0790612e64565b8015610a545780601f10610a2957610100808354040283529160200191610a54565b820191906000526020600020905b815481529060010190602001808311610a3757829003601f168201915b5050505050908060010154905082565b83610a6e81611c97565b73ffffffffffffffffffffffffffffffffffffffff163373ffffffffffffffffffffffffffffffffffffffff1614610adb576040517f08c379a0000000000000000000000000000000000000000000000000000000008152600401610ad290612c92565b60405180910390fd5b60008242610ae99190612ec4565b9050604051806040016040528085815260200182815250600260008873ffffffffffffffffffffffffffffffffffffffff1673ffffffffffffffffffffffffffffffffffffffff16815260200190815260200160002060008787604051602001610b54929190612d0f565b6040516020818303038152906040528051906020012081526020019081526020016000206000820151816000019081610b8d91906130a4565b50602082015181600101559050508573ffffffffffffffffffffffffffffffffffffffff167f3c245a8c1b6b130ac5da86703bf855a1d9657013c1d88239123bbfb25f5252e3868684604051610be593929190612d37565b60405180910390a2505050505050565b82610bff81611c97565b73ffffffffffffffffffffffffffffffffffffffff163373ffffffffffffffffffffffffffffffffffffffff1614610c6c576040517f08c379a0000000000000000000000000000000000000000000000000000000008152600401610c6390612c92565b60405180910390fd5b42600160008673ffffffffffffffffffffffffffffffffffffffff1673ffffffffffffffffffffffffffffffffffffffff16815260200190815260200160002060008473ffffffffffffffffffffffffffffffffffffffff1673ffffffffffffffffffffffffffffffffffffffff1681526020019081526020016000206000858152602001908152602001600020600101819055508373ffffffffffffffffffffffffffffffffffffffff167fca4b351e0fc5a646ec7f99026c19fbc183d6d851946cdb5831f0c15fbec3ec1d848442604051610d4b93929190613176565b60405180910390a250505050565b6060600360003373ffffffffffffffffffffffffffffffffffffffff1673ffffffffffffffffffffffffffffffffffffffff168152602001908152602001600020805480602002602001604051908101604052809291908181526020016000905b82821015610f3f57838290600052602060002090600502016040518060a0016040529081600082018054610ded90612e64565b80601f0160208091040260200160405190810160405280929190818152602001828054610e1990612e64565b8015610e665780601f10610e3b57610100808354040283529160200191610e66565b820191906000526020600020905b815481529060010190602001808311610e4957829003601f168201915b50505050508152602001600182018054610e7f90612e64565b80601f0160208091040260200160405190810160405280929190818152602001828054610eab90612e64565b8015610ef85780601f10610ecd57610100808354040283529160200191610ef8565b820191906000526020600020905b815481529060010190602001808311610edb57829003601f168201915b5050505050815260200160028201548152602001600382015481526020016004820160009054906101000a900460ff16151515158152505081526020019060010190610dba565b50505050905090565b600360003373ffffffffffffffffffffffffffffffffffffffff1673ffffffffffffffffffffffffffffffffffffffff168152602001908152602001600020805490508310610fcc576040517f08c379a0000000000000000000000000000000000000000000000000000000008152600401610fc3906131f9565b60405180910390fd5b6000600360003373ffffffffffffffffffffffffffffffffffffffff1673ffffffffffffffffffffffffffffffffffffffff168152602001908152602001600020848154811061101f5761101e613219565b5b906000526020600020906005020190508060040160009054906101000a900460ff161580156110515750806003015442105b611090576040517f08c379a000000000000000000000000000000000000000000000000000000000815260040161108790613294565b60405180910390fd5b600460003373ffffffffffffffffffffffffffffffffffffffff1673ffffffffffffffffffffffffffffffffffffffff168152602001908152602001600020600085815260200190815260200160002060405180606001604052808573ffffffffffffffffffffffffffffffffffffffff16815260200184426111139190612ec4565b815260200160001515815250908060018154018082558091505060019003906000526020600020906003020160009091909190915060008201518160000160006101000a81548173ffffffffffffffffffffffffffffffffffffffff021916908373ffffffffffffffffffffffffffffffffffffffff1602179055506020820151816001015560408201518160020160006101000a81548160ff0219169083151502179055505050833373ffffffffffffffffffffffffffffffffffffffff167f0fd515cc74d1099ad7b044034a1f69ff45d8a9f1db90abcf30033829f976b9b48585426112019190612ec4565b60405161120f9291906132b4565b60405180910390a350505050565b8361122781611c97565b73ffffffffffffffffffffffffffffffffffffffff163373ffffffffffffffffffffffffffffffffffffffff1614611294576040517f08c379a000000000000000000000000000000000000000000000000000000000815260040161128b90612c92565b60405180910390fd5b600082426112a29190612ec4565b9050604051806040016040528086815260200182815250600160008873ffffffffffffffffffffffffffffffffffffffff1673ffffffffffffffffffffffffffffffffffffffff16815260200190815260200160002060008673ffffffffffffffffffffffffffffffffffffffff1673ffffffffffffffffffffffffffffffffffffffff168152602001908152602001600020600087815260200190815260200160002060008201518160000155602082015181600101559050508573ffffffffffffffffffffffffffffffffffffffff167fca4b351e0fc5a646ec7f99026c19fbc183d6d851946cdb5831f0c15fbec3ec1d8686846040516113a793929190613176565b60405180910390a2505050505050565b600082826040516020016113cc92919061337c565b60405160208183030381529060405280519060200120905092915050565b6000600460003373ffffffffffffffffffffffffffffffffffffffff1673ffffffffffffffffffffffffffffffffffffffff1681526020019081526020016000206000848152602001908152602001600020905060005b81805490508110156115a6578273ffffffffffffffffffffffffffffffffffffffff1682828154811061147757611476613219565b5b906000526020600020906003020160000160009054906101000a900473ffffffffffffffffffffffffffffffffffffffff1673ffffffffffffffffffffffffffffffffffffffff161480156114fb57508181815481106114da576114d9613219565b5b906000526020600020906003020160020160009054906101000a900460ff16155b1561159357600182828154811061151557611514613219565b5b906000526020600020906003020160020160006101000a81548160ff021916908315150217905550833373ffffffffffffffffffffffffffffffffffffffff167f32826e40e0295d9b7ac6a0db345e96be8d29680654705ed8095d16110a26ff0d856040516115849190612178565b60405180910390a350506115e2565b808061159e906133b3565b915050611441565b506040517f08c379a00000000000000000000000000000000000000000000000000000000081526004016115d990613447565b60405180910390fd5b5050565b60006040518060a0016040528085815260200184815260200142815260200183426116119190612ec4565b8152602001600015158152509050600360003373ffffffffffffffffffffffffffffffffffffffff1673ffffffffffffffffffffffffffffffffffffffff168152602001908152602001600020819080600181540180825580915050600190039060005260206000209060050201600090919091909150600082015181600001908161169d91906134c2565b5060208201518160010190816116b391906134c2565b50604082015181600201556060820151816003015560808201518160040160006101000a81548160ff02191690831515021790555050506001600360003373ffffffffffffffffffffffffffffffffffffffff1673ffffffffffffffffffffffffffffffffffffffff168152602001908152602001600020805490506117399190613594565b3373ffffffffffffffffffffffffffffffffffffffff167fa4419097da950c935def83670c7af4f314aeb39b4ae909522de62f809672159d8660405161177f91906135c8565b60405180910390a350505050565b6000600360008473ffffffffffffffffffffffffffffffffffffffff1673ffffffffffffffffffffffffffffffffffffffff1681526020019081526020016000208054905082106117e15760009050611a20565b6000600360008573ffffffffffffffffffffffffffffffffffffffff1673ffffffffffffffffffffffffffffffffffffffff168152602001908152602001600020838154811061183457611833613219565b5b9060005260206000209060050201905061184d84611c97565b73ffffffffffffffffffffffffffffffffffffffff163373ffffffffffffffffffffffffffffffffffffffff1614801561189657508060040160009054906101000a900460ff16155b80156118a55750806003015442105b156118b4576001915050611a20565b6000600460008673ffffffffffffffffffffffffffffffffffffffff1673ffffffffffffffffffffffffffffffffffffffff1681526020019081526020016000206000858152602001908152602001600020905060005b8180549050811015611a18573373ffffffffffffffffffffffffffffffffffffffff1682828154811061194157611940613219565b5b906000526020600020906003020160000160009054906101000a900473ffffffffffffffffffffffffffffffffffffffff1673ffffffffffffffffffffffffffffffffffffffff161480156119c557508181815481106119a4576119a3613219565b5b906000526020600020906003020160020160009054906101000a900460ff16155b80156119f457508181815481106119df576119de613219565b5b90600052602060002090600302016001015442105b15611a055760019350505050611a20565b8080611a10906133b3565b91505061190b565b506000925050505b92915050565b6060600460003373ffffffffffffffffffffffffffffffffffffffff1673ffffffffffffffffffffffffffffffffffffffff1681526020019081526020016000206000838152602001908152602001600020805480602002602001604051908101604052809291908181526020016000905b82821015611b4557838290600052602060002090600302016040518060600160405290816000820160009054906101000a900473ffffffffffffffffffffffffffffffffffffffff1673ffffffffffffffffffffffffffffffffffffffff1673ffffffffffffffffffffffffffffffffffffffff168152602001600182015481526020016002820160009054906101000a900460ff16151515158152505081526020019060010190611a98565b505050509050919050565b81611b5a81611c97565b73ffffffffffffffffffffffffffffffffffffffff163373ffffffffffffffffffffffffffffffffffffffff1614611bc7576040517f08c379a0000000000000000000000000000000000000000000000000000000008152600401611bbe90612c92565b60405180910390fd5b816000808573ffffffffffffffffffffffffffffffffffffffff1673ffffffffffffffffffffffffffffffffffffffff16815260200190815260200160002060006101000a81548173ffffffffffffffffffffffffffffffffffffffff021916908373ffffffffffffffffffffffffffffffffffffffff1602179055508273ffffffffffffffffffffffffffffffffffffffff167f9071b3f486383ebd5972712e0a90e1012d2f68a61306af305f8bdc974debde8783604051611c8a9190612178565b60405180910390a2505050565b60008073ffffffffffffffffffffffffffffffffffffffff166000808473ffffffffffffffffffffffffffffffffffffffff1673ffffffffffffffffffffffffffffffffffffffff16815260200190815260200160002060009054906101000a900473ffffffffffffffffffffffffffffffffffffffff1673ffffffffffffffffffffffffffffffffffffffff1603611d3257819050611d94565b6000808373ffffffffffffffffffffffffffffffffffffffff1673ffffffffffffffffffffffffffffffffffffffff16815260200190815260200160002060009054906101000a900473ffffffffffffffffffffffffffffffffffffffff1690505b919050565b600360003373ffffffffffffffffffffffffffffffffffffffff1673ffffffffffffffffffffffffffffffffffffffff168152602001908152602001600020805490508110611e1d576040517f08c379a0000000000000000000000000000000000000000000000000000000008152600401611e14906131f9565b60405180910390fd5b6001600360003373ffffffffffffffffffffffffffffffffffffffff1673ffffffffffffffffffffffffffffffffffffffff1681526020019081526020016000208281548110611e7057611e6f613219565b5b906000526020600020906005020160040160006101000a81548160ff021916908315150217905550803373ffffffffffffffffffffffffffffffffffffffff167f801fb556c093d7ec673027374a52341397311763d15e5a454d1fd58690d4ae5160405160405180910390a350565b6000604051905090565b600080fd5b600080fd5b600073ffffffffffffffffffffffffffffffffffffffff82169050919050565b6000611f1e82611ef3565b9050919050565b611f2e81611f13565b8114611f3957600080fd5b50565b600081359050611f4b81611f25565b92915050565b6000819050919050565b611f6481611f51565b8114611f6f57600080fd5b50565b600081359050611f8181611f5b565b92915050565b600080fd5b600080fd5b6000601f19601f8301169050919050565b7f4e487b7100000000000000000000000000000000000000000000000000000000600052604160045260246000fd5b611fda82611f91565b810181811067ffffffffffffffff82111715611ff957611ff8611fa2565b5b80604052505050565b600061200c611edf565b90506120188282611fd1565b919050565b600067ffffffffffffffff82111561203857612037611fa2565b5b61204182611f91565b9050602081019050919050565b82818337600083830152505050565b600061207061206b8461201d565b612002565b90508281526020810184848401111561208c5761208b611f8c565b5b61209784828561204e565b509392505050565b600082601f8301126120b4576120b3611f87565b5b81356120c484826020860161205d565b91505092915050565b6000806000606084860312156120e6576120e5611ee9565b5b60006120f486828701611f3c565b935050602061210586828701611f72565b925050604084013567ffffffffffffffff81111561212657612125611eee565b5b6121328682870161209f565b9150509250925092565b60006020828403121561215257612151611ee9565b5b600061216084828501611f3c565b91505092915050565b61217281611f13565b82525050565b600060208201905061218d6000830184612169565b92915050565b6000819050919050565b6121a681612193565b81146121b157600080fd5b50565b6000813590506121c38161219d565b92915050565b6000806000606084860312156121e2576121e1611ee9565b5b60006121f086828701611f3c565b9350506020612201868287016121b4565b9250506040612212868287016121b4565b9150509250925092565b61222581612193565b82525050565b60008115159050919050565b6122408161222b565b82525050565b600060608201905061225b6000830186612169565b612268602083018561221c565b6122756040830184612237565b949350505050565b60008060006060848603121561229657612295611ee9565b5b60006122a486828701611f3c565b93505060206122b586828701611f3c565b92505060406122c686828701611f72565b9150509250925092565b6122d981611f51565b82525050565b60006040820190506122f460008301856122d0565b612301602083018461221c565b9392505050565b600060ff82169050919050565b61231e81612308565b811461232957600080fd5b50565b60008135905061233b81612315565b92915050565b600080600080600060a0868803121561235d5761235c611ee9565b5b600061236b88828901611f3c565b955050602061237c88828901611f3c565b945050604061238d8882890161232c565b935050606061239e88828901611f72565b92505060806123af88828901611f72565b9150509295509295909350565b60006020820190506123d1600083018461221c565b92915050565b600080604083850312156123ee576123ed611ee9565b5b60006123fc85828601611f3c565b925050602061240d858286016121b4565b9150509250929050565b600081519050919050565b600082825260208201905092915050565b60005b83811015612451578082015181840152602081019050612436565b60008484015250505050565b600061246882612417565b6124728185612422565b9350612482818560208601612433565b61248b81611f91565b840191505092915050565b600060a08201905081810360008301526124b0818861245d565b905081810360208301526124c4818761245d565b90506124d3604083018661221c565b6124e0606083018561221c565b6124ed6080830184612237565b9695505050505050565b6000806040838503121561250e5761250d611ee9565b5b600061251c85828601611f3c565b925050602061252d85828601611f72565b9150509250929050565b600081519050919050565b600082825260208201905092915050565b600061255e82612537565b6125688185612542565b9350612578818560208601612433565b61258181611f91565b840191505092915050565b600060408201905081810360008301526125a68185612553565b90506125b5602083018461221c565b9392505050565b600080600080608085870312156125d6576125d5611ee9565b5b60006125e487828801611f3c565b94505060206125f587828801611f72565b935050604085013567ffffffffffffffff81111561261657612615611eee565b5b6126228782880161209f565b9250506060612633878288016121b4565b91505092959194509250565b60008060006060848603121561265857612657611ee9565b5b600061266686828701611f3c565b935050602061267786828701611f72565b925050604061268886828701611f3c565b9150509250925092565b600081519050919050565b600082825260208201905092915050565b6000819050602082019050919050565b600082825260208201905092915050565b60006126da82612417565b6126e481856126be565b93506126f4818560208601612433565b6126fd81611f91565b840191505092915050565b61271181612193565b82525050565b6127208161222b565b82525050565b600060a083016000830151848203600086015261274382826126cf565b9150506020830151848203602086015261275d82826126cf565b91505060408301516127726040860182612708565b5060608301516127856060860182612708565b5060808301516127986080860182612717565b508091505092915050565b60006127af8383612726565b905092915050565b6000602082019050919050565b60006127cf82612692565b6127d9818561269d565b9350836020820285016127eb856126ae565b8060005b85811015612827578484038952815161280885826127a3565b9450612813836127b7565b925060208a019950506001810190506127ef565b50829750879550505050505092915050565b6000602082019050818103600083015261285381846127c4565b905092915050565b60008060006060848603121561287457612873611ee9565b5b6000612882868287016121b4565b935050602061289386828701611f3c565b92505060406128a4868287016121b4565b9150509250925092565b600080600080608085870312156128c8576128c7611ee9565b5b60006128d687828801611f3c565b94505060206128e787828801611f72565b93505060406128f887828801611f3c565b9250506060612909878288016121b4565b91505092959194509250565b6000806040838503121561292c5761292b611ee9565b5b600061293a85828601611f3c565b925050602061294b85828601611f3c565b9150509250929050565b600060208201905061296a60008301846122d0565b92915050565b6000806040838503121561298757612986611ee9565b5b6000612995858286016121b4565b92505060206129a685828601611f3c565b9150509250929050565b600067ffffffffffffffff8211156129cb576129ca611fa2565b5b6129d482611f91565b9050602081019050919050565b60006129f46129ef846129b0565b612002565b905082815260208101848484011115612a1057612a0f611f8c565b5b612a1b84828561204e565b509392505050565b600082601f830112612a3857612a37611f87565b5b8135612a488482602086016129e1565b91505092915050565b600080600060608486031215612a6a57612a69611ee9565b5b600084013567ffffffffffffffff811115612a8857612a87611eee565b5b612a9486828701612a23565b935050602084013567ffffffffffffffff811115612ab557612ab4611eee565b5b612ac186828701612a23565b9250506040612ad2868287016121b4565b9150509250925092565b6000602082019050612af16000830184612237565b92915050565b600060208284031215612b0d57612b0c611ee9565b5b6000612b1b848285016121b4565b91505092915050565b600081519050919050565b600082825260208201905092915050565b6000819050602082019050919050565b612b5981611f13565b82525050565b606082016000820151612b756000850182612b50565b506020820151612b886020850182612708565b506040820151612b9b6040850182612717565b50505050565b6000612bad8383612b5f565b60608301905092915050565b6000602082019050919050565b6000612bd182612b24565b612bdb8185612b2f565b9350612be683612b40565b8060005b83811015612c17578151612bfe8882612ba1565b9750612c0983612bb9565b925050600181019050612bea565b5085935050505092915050565b60006020820190508181036000830152612c3e8184612bc6565b905092915050565b7f4e6f74206964656e74697479206f776e65720000000000000000000000000000600082015250565b6000612c7c601283612422565b9150612c8782612c46565b602082019050919050565b60006020820190508181036000830152612cab81612c6f565b9050919050565b6000819050919050565b612ccd612cc882611f51565b612cb2565b82525050565b600081905092915050565b6000612ce982612537565b612cf38185612cd3565b9350612d03818560208601612433565b80840191505092915050565b6000612d1b8285612cbc565b602082019150612d2b8284612cde565b91508190509392505050565b6000606082019050612d4c60008301866122d0565b8181036020830152612d5e8185612553565b9050612d6d604083018461221c565b949350505050565b612d7e81612308565b82525050565b6000608082019050612d9960008301876122d0565b612da66020830186612d75565b612db360408301856122d0565b612dc060608301846122d0565b95945050505050565b7f496e76616c6964207369676e6174757265000000000000000000000000000000600082015250565b6000612dff601183612422565b9150612e0a82612dc9565b602082019050919050565b60006020820190508181036000830152612e2e81612df2565b9050919050565b7f4e487b7100000000000000000000000000000000000000000000000000000000600052602260045260246000fd5b60006002820490506001821680612e7c57607f821691505b602082108103612e8f57612e8e612e35565b5b50919050565b7f4e487b7100000000000000000000000000000000000000000000000000000000600052601160045260246000fd5b6000612ecf82612193565b9150612eda83612193565b9250828201905080821115612ef257612ef1612e95565b5b92915050565b60008190508160005260206000209050919050565b60006020601f8301049050919050565b600082821b905092915050565b600060088302612f5a7fffffffffffffffffffffffffffffffffffffffffffffffffffffffffffffffff82612f1d565b612f648683612f1d565b95508019841693508086168417925050509392505050565b6000819050919050565b6000612fa1612f9c612f9784612193565b612f7c565b612193565b9050919050565b6000819050919050565b612fbb83612f86565b612fcf612fc782612fa8565b848454612f2a565b825550505050565b600090565b612fe4612fd7565b612fef818484612fb2565b505050565b5b8181101561301357613008600082612fdc565b600181019050612ff5565b5050565b601f8211156130585761302981612ef8565b61303284612f0d565b81016020851015613041578190505b61305561304d85612f0d565b830182612ff4565b50505b505050565b600082821c905092915050565b600061307b6000198460080261305d565b1980831691505092915050565b6000613094838361306a565b9150826002028217905092915050565b6130ad82612537565b67ffffffffffffffff8111156130c6576130c5611fa2565b5b6130d08254612e64565b6130db828285613017565b600060209050601f83116001811461310e57600084156130fc578287015190505b6131068582613088565b86555061316e565b601f19841661311c86612ef8565b60005b828110156131445784890151825560018201915060208501945060208101905061311f565b86831015613161578489015161315d601f89168261306a565b8355505b6001600288020188555050505b505050505050565b600060608201905061318b60008301866122d0565b6131986020830185612169565b6131a5604083018461221c565b949350505050565b7f496e76616c696420646f63496400000000000000000000000000000000000000600082015250565b60006131e3600d83612422565b91506131ee826131ad565b602082019050919050565b60006020820190508181036000830152613212816131d6565b9050919050565b7f4e487b7100000000000000000000000000000000000000000000000000000000600052603260045260246000fd5b7f446f63756d656e7420696e76616c696400000000000000000000000000000000600082015250565b600061327e601083612422565b915061328982613248565b602082019050919050565b600060208201905081810360008301526132ad81613271565b9050919050565b60006040820190506132c96000830185612169565b6132d6602083018461221c565b9392505050565b600081905092915050565b7f6368616e67654f776e6572000000000000000000000000000000000000000000600082015250565b600061331e600b836132dd565b9150613329826132e8565b600b82019050919050565b60008160601b9050919050565b600061334c82613334565b9050919050565b600061335e82613341565b9050919050565b61337661337182611f13565b613353565b82525050565b600061338782613311565b91506133938285613365565b6014820191506133a38284613365565b6014820191508190509392505050565b60006133be82612193565b91507fffffffffffffffffffffffffffffffffffffffffffffffffffffffffffffffff82036133f0576133ef612e95565b5b600182019050919050565b7f4e6f2061637469766520736861726520666f756e640000000000000000000000600082015250565b6000613431601583612422565b915061343c826133fb565b602082019050919050565b6000602082019050818103600083015261346081613424565b9050919050565b60008190508160005260206000209050919050565b601f8211156134bd5761348e81613467565b61349784612f0d565b810160208510156134a6578190505b6134ba6134b285612f0d565b830182612ff4565b50505b505050565b6134cb82612417565b67ffffffffffffffff8111156134e4576134e3611fa2565b5b6134ee8254612e64565b6134f982828561347c565b600060209050601f83116001811461352c576000841561351a578287015190505b6135248582613088565b86555061358c565b601f19841661353a86613467565b60005b828110156135625784890151825560018201915060208501945060208101905061353d565b8683101561357f578489015161357b601f89168261306a565b8355505b6001600288020188555050505b505050505050565b600061359f82612193565b91506135aa83612193565b92508282039050818111156135c2576135c1612e95565b5b92915050565b600060208201905081810360008301526135e2818461245d565b90509291505056fea26469706673582212203fbbfa11ff7bed6d7dc67b223418b4644fde5b341593297cf0d6ff20caab9edd64736f6c63430008140033",
  "linkReferences": {},
  "deployedLinkReferences": {}
}