{
  "_format": "hh-sol-artifact-1",
  "contractName": "IdentityManager",
  "sourceName": "contracts/IdentityManager.sol",
  "abi": [
    {
      "anonymous": false,
      "inputs": [
        {
          "indexed": true,
          "internalType": "address",
          "name": "identity",
          "type": "address"
        },
        {
          "indexed": false,
          "internalType": "bytes32",
          "name": "name",
          "type": "bytes32"
        },
        {
          "indexed": false,
          "internalType": "bytes",
          "name": "value",
          "type": "bytes"
        },
        {
          "indexed": false,
          "internalType": "uint256",
          "name": "validTo",
          "type": "uint256"
        }
      ],
      "name": "DIDAttributeChanged",
      "type": "event"
    },
    {
      "anonymous": false,
      "inputs": [
        {
          "indexed": true,
          "internalType": "address",
          "name": "identity",
          "type": "address"
        },
        {
          "indexed": false,
          "internalType": "bytes32",
          "name": "delegateType",
          "type": "bytes32"
        },
        {
          "indexed": false,
          "internalType": "address",
          "name": "delegate",
          "type": "address"
        },
        {
          "indexed": false,
          "internalType": "uint256",
          "name": "validTo",
          "type": "uint256"
        }
      ],
      "name": "DIDDelegateChanged",
      "type": "event"
    },
    {
      "anonymous": false,
      "inputs": [
        {
          "indexed": true,
          "internalType": "address",
          "name": "identity",
          "type": "address"
        },
        {
          "indexed": false,
          "internalType": "address",
          "name": "newOwner",
          "type": "address"
        }
      ],
      "name": "DIDOwnerChanged",
      "type": "event"
    },
    {
      "inputs": [
        {
          "internalType": "address",
          "name": "",
          "type": "address"
        },
        {
          "internalType": "uint256",
          "name": "",
          "type": "uint256"
        }
      ],
      "name": "accessList",
      "outputs": [
        {
          "internalType": "address",
          "name": "user",
          "type": "address"
        },
        {
          "internalType": "bool",
          "name": "access",
          "type": "bool"
        }
      ],
      "stateMutability": "view",
      "type": "function"
    },
    {
      "inputs": [
        {
          "internalType": "address",
          "name": "identity",
          "type": "address"
        },
        {
          "internalType": "bytes32",
          "name": "delegateType",
          "type": "bytes32"
        },
        {
          "internalType": "address",
          "name": "delegate",
          "type": "address"
        },
        {
          "internalType": "uint256",
          "name": "expiresIn",
          "type": "uint256"
        }
      ],
      "name": "addDelegate",
      "outputs": [],
      "stateMutability": "nonpayable",
      "type": "function"
    },
    {
      "inputs": [
        {
          "internalType": "address",
          "name": "identity",
          "type": "address"
        },
        {
          "internalType": "bytes32",
          "name": "delegateType",
          "type": "bytes32"
        },
        {
          "internalType": "address",
          "name": "delegate",
          "type": "address"
        },
        {
          "internalType": "uint256",
          "name": "expiresIn",
          "type": "uint256"
        },
        {
          "internalType": "uint8",
          "name": "v",
          "type": "uint8"
        },
        {
          "internalType": "bytes32",
          "name": "r",
          "type": "bytes32"
        },
        {
          "internalType": "bytes32",
          "name": "s",
          "type": "bytes32"
        }
      ],
      "name": "addDelegateSigned",
      "outputs": [],
      "stateMutability": "nonpayable",
      "type": "function"
    },
    {
      "inputs": [
        {
          "internalType": "address",
          "name": "user",
          "type": "address"
        },
        {
          "internalType": "string",
          "name": "url",
          "type": "string"
        }
      ],
      "name": "addDocument",
      "outputs": [],
      "stateMutability": "nonpayable",
      "type": "function"
    },
    {
      "inputs": [
        {
          "internalType": "address",
          "name": "user",
          "type": "address"
        }
      ],
      "name": "allowAccess",
      "outputs": [],
      "stateMutability": "nonpayable",
      "type": "function"
    },
    {
      "inputs": [
        {
          "internalType": "address",
          "name": "identity",
          "type": "address"
        },
        {
          "internalType": "address",
          "name": "newOwner",
          "type": "address"
        }
      ],
      "name": "changeOwner",
      "outputs": [],
      "stateMutability": "nonpayable",
      "type": "function"
    },
    {
      "inputs": [
        {
          "internalType": "address",
          "name": "identity",
          "type": "address"
        },
        {
          "internalType": "address",
          "name": "newOwner",
          "type": "address"
        },
        {
          "internalType": "uint8",
          "name": "v",
          "type": "uint8"
        },
        {
          "internalType": "bytes32",
          "name": "r",
          "type": "bytes32"
        },
        {
          "internalType": "bytes32",
          "name": "s",
          "type": "bytes32"
        }
      ],
      "name": "changeOwnerSigned",
      "outputs": [],
      "stateMutability": "nonpayable",
      "type": "function"
    },
    {
      "inputs": [
        {
          "internalType": "address",
          "name": "identity",
          "type": "address"
        },
        {
          "internalType": "bytes32",
          "name": "delegateType",
          "type": "bytes32"
        },
        {
          "internalType": "address",
          "name": "delegate",
          "type": "address"
        },
        {
          "internalType": "uint256",
          "name": "expiresIn",
          "type": "uint256"
        }
      ],
      "name": "createAddDelegateHash",
      "outputs": [
        {
          "internalType": "bytes32",
          "name": "",
          "type": "bytes32"
        }
      ],
      "stateMutability": "pure",
      "type": "function"
    },
    {
      "inputs": [
        {
          "internalType": "address",
          "name": "identity",
          "type": "address"
        },
        {
          "internalType": "address",
          "name": "newOwner",
          "type": "address"
        }
      ],
      "name": "createChangeOwnerHash",
      "outputs": [
        {
          "internalType": "bytes32",
          "name": "",
          "type": "bytes32"
        }
      ],
      "stateMutability": "pure",
      "type": "function"
    },
    {
      "inputs": [
        {
          "internalType": "address",
          "name": "identity",
          "type": "address"
        },
        {
          "internalType": "bytes32",
          "name": "name",
          "type": "bytes32"
        },
        {
          "internalType": "bytes",
          "name": "attributeValue",
          "type": "bytes"
        }
      ],
      "name": "createRevokeAttributeHash",
      "outputs": [
        {
          "internalType": "bytes32",
          "name": "",
          "type": "bytes32"
        }
      ],
      "stateMutability": "pure",
      "type": "function"
    },
    {
      "inputs": [
        {
          "internalType": "address",
          "name": "identity",
          "type": "address"
        },
        {
          "internalType": "bytes32",
          "name": "delegateType",
          "type": "bytes32"
        },
        {
          "internalType": "address",
          "name": "delegate",
          "type": "address"
        }
      ],
      "name": "createRevokeDelegateHash",
      "outputs": [
        {
          "internalType": "bytes32",
          "name": "",
          "type": "bytes32"
        }
      ],
      "stateMutability": "pure",
      "type": "function"
    },
    {
      "inputs": [
        {
          "internalType": "address",
          "name": "identity",
          "type": "address"
        },
        {
          "internalType": "bytes32",
          "name": "name",
          "type": "bytes32"
        },
        {
          "internalType": "bytes",
          "name": "attributeValue",
          "type": "bytes"
        },
        {
          "internalType": "uint256",
          "name": "expiresIn",
          "type": "uint256"
        }
      ],
      "name": "createSetAttributeHash",
      "outputs": [
        {
          "internalType": "bytes32",
          "name": "",
          "type": "bytes32"
        }
      ],
      "stateMutability": "pure",
      "type": "function"
    },
    {
      "inputs": [
        {
          "internalType": "address",
          "name": "user",
          "type": "address"
        }
      ],
      "name": "disallowAccess",
      "outputs": [],
      "stateMutability": "nonpayable",
      "type": "function"
    },
    {
      "inputs": [
        {
          "internalType": "address",
          "name": "user",
          "type": "address"
        }
      ],
      "name": "displayDocuments",
      "outputs": [
        {
          "internalType": "string[]",
          "name": "",
          "type": "string[]"
        }
      ],
      "stateMutability": "view",
      "type": "function"
    },
    {
      "inputs": [
        {
          "internalType": "address",
          "name": "",
          "type": "address"
        },
        {
          "internalType": "uint256",
          "name": "",
          "type": "uint256"
        }
      ],
      "name": "documentURLs",
      "outputs": [
        {
          "internalType": "string",
          "name": "",
          "type": "string"
        }
      ],
      "stateMutability": "view",
      "type": "function"
    },
    {
      "inputs": [],
      "name": "getChainId",
      "outputs": [
        {
          "internalType": "uint256",
          "name": "",
          "type": "uint256"
        }
      ],
      "stateMutability": "view",
      "type": "function"
    },
    {
      "inputs": [
        {
          "internalType": "address",
          "name": "identity",
          "type": "address"
        }
      ],
      "name": "getOwner",
      "outputs": [
        {
          "internalType": "address",
          "name": "",
          "type": "address"
        }
      ],
      "stateMutability": "view",
      "type": "function"
    },
    {
      "inputs": [
        {
          "internalType": "address",
          "name": "",
          "type": "address"
        },
        {
          "internalType": "bytes32",
          "name": "",
          "type": "bytes32"
        }
      ],
      "name": "identityAttributes",
      "outputs": [
        {
          "internalType": "bytes",
          "name": "value",
          "type": "bytes"
        },
        {
          "internalType": "uint256",
          "name": "expires",
          "type": "uint256"
        }
      ],
      "stateMutability": "view",
      "type": "function"
    },
    {
      "inputs": [
        {
          "internalType": "address",
          "name": "",
          "type": "address"
        },
        {
          "internalType": "address",
          "name": "",
          "type": "address"
        },
        {
          "internalType": "bytes32",
          "name": "",
          "type": "bytes32"
        }
      ],
      "name": "identityDelegates",
      "outputs": [
        {
          "internalType": "bytes32",
          "name": "delegateType",
          "type": "bytes32"
        },
        {
          "internalType": "uint256",
          "name": "expires",
          "type": "uint256"
        }
      ],
      "stateMutability": "view",
      "type": "function"
    },
    {
      "inputs": [
        {
          "internalType": "address",
          "name": "",
          "type": "address"
        }
      ],
      "name": "identityOwners",
      "outputs": [
        {
          "internalType": "address",
          "name": "",
          "type": "address"
        }
      ],
      "stateMutability": "view",
      "type": "function"
    },
    {
      "inputs": [
        {
          "internalType": "address",
          "name": "",
          "type": "address"
        },
        {
          "internalType": "address",
          "name": "",
          "type": "address"
        }
      ],
      "name": "ownership",
      "outputs": [
        {
          "internalType": "bool",
          "name": "",
          "type": "bool"
        }
      ],
      "stateMutability": "view",
      "type": "function"
    },
    {
      "inputs": [
        {
          "internalType": "address",
          "name": "",
          "type": "address"
        },
        {
          "internalType": "address",
          "name": "",
          "type": "address"
        }
      ],
      "name": "previousAccessRecords",
      "outputs": [
        {
          "internalType": "bool",
          "name": "",
          "type": "bool"
        }
      ],
      "stateMutability": "view",
      "type": "function"
    },
    {
      "inputs": [
        {
          "internalType": "address",
          "name": "identity",
          "type": "address"
        },
        {
          "internalType": "bytes32",
          "name": "name",
          "type": "bytes32"
        },
        {
          "internalType": "bytes",
          "name": "attributeValue",
          "type": "bytes"
        }
      ],
      "name": "revokeAttribute",
      "outputs": [],
      "stateMutability": "nonpayable",
      "type": "function"
    },
    {
      "inputs": [
        {
          "internalType": "address",
          "name": "identity",
          "type": "address"
        },
        {
          "internalType": "bytes32",
          "name": "delegateType",
          "type": "bytes32"
        },
        {
          "internalType": "address",
          "name": "delegate",
          "type": "address"
        }
      ],
      "name": "revokeDelegate",
      "outputs": [],
      "stateMutability": "nonpayable",
      "type": "function"
    },
    {
      "inputs": [
        {
          "internalType": "address",
          "name": "identity",
          "type": "address"
        },
        {
          "internalType": "bytes32",
          "name": "name",
          "type": "bytes32"
        },
        {
          "internalType": "bytes",
          "name": "attributeValue",
          "type": "bytes"
        },
        {
          "internalType": "uint256",
          "name": "expiresIn",
          "type": "uint256"
        }
      ],
      "name": "setAttribute",
      "outputs": [],
      "stateMutability": "nonpayable",
      "type": "function"
    },
    {
      "inputs": [],
      "name": "shareAccess",
      "outputs": [
        {
          "components": [
            {
              "internalType": "address",
              "name": "user",
              "type": "address"
            },
            {
              "internalType": "bool",
              "name": "access",
              "type": "bool"
            }
          ],
          "internalType": "struct IdentityManager.Access[]",
          "name": "",
          "type": "tuple[]"
        }
      ],
      "stateMutability": "view",
      "type": "function"
    }
  ],
  "bytecode": "0x6080604052348015600f57600080fd5b506136b18061001f6000396000f3fe608060405234801561001057600080fd5b506004361061018d5760003560e01c8063974fe591116100de578063bc8bef8111610097578063d0cb151911610071578063d0cb1519146104dd578063f00d4b5d1461050d578063fa54416114610529578063fbc61c4a146105595761018d565b8063bc8bef8114610473578063c31e499714610491578063c4a85bc1146104c15761018d565b8063974fe5911461038e5780639c2764d8146103be578063a7068d66146103ef578063a8d115b01461040b578063b30bdf091461043b578063b4449c30146104575761018d565b806367e4f1bf1161014b5780637de0fa55116101255780637de0fa55146102e257806380b29f7c14610312578063852976e41461032e57806396ceead31461035e5761018d565b806367e4f1bf1461026557806370c2b419146102955780637ad4b0a4146102c65761018d565b8062c023da1461019257806332ba5e6f146101ae5780633408e470146101ca5780634e39a72a146101e857806351a7bac2146102195780636566876414610249575b600080fd5b6101ac60048036038101906101a7919061216c565b610589565b005b6101c860048036038101906101c39190612214565b6106d8565b005b6101d2610883565b6040516101df91906122a8565b60405180910390f35b61020260048036038101906101fd91906122c3565b61088b565b604051610210929190612382565b60405180910390f35b610233600480360381019061022e91906123de565b610944565b6040516102409190612470565b60405180910390f35b610263600480360381019061025e919061252c565b61097d565b005b61027f600480360381019061027a9190612588565b610a61565b60405161028c9190612470565b60405180910390f35b6102af60048036038101906102aa91906125db565b610a97565b6040516102bd929190612645565b60405180910390f35b6102e060048036038101906102db91906123de565b610b01565b005b6102fc60048036038101906102f7919061266e565b610c92565b60405161030991906127b2565b60405180910390f35b61032c60048036038101906103279190612588565b610ea9565b005b6103486004803603810190610343919061266e565b61100d565b60405161035591906127d4565b60405180910390f35b610378600480360381019061037391906127ef565b611040565b604051610385919061282f565b60405180910390f35b6103a860048036038101906103a391906127ef565b61106f565b6040516103b5919061282f565b60405180910390f35b6103d860048036038101906103d3919061284a565b61109e565b6040516103e692919061289d565b60405180910390f35b610409600480360381019061040491906128c6565b6110dc565b005b610425600480360381019061042091906127ef565b611276565b6040516104329190612470565b60405180910390f35b6104556004803603810190610450919061292d565b6112a9565b005b610471600480360381019061046c919061266e565b6114a9565b005b61047b6116c5565b6040516104889190612acb565b60405180910390f35b6104ab60048036038101906104a6919061216c565b6117ce565b6040516104b89190612470565b60405180910390f35b6104db60048036038101906104d6919061266e565b611804565b005b6104f760048036038101906104f291906125db565b611c45565b6040516105049190612b37565b60405180910390f35b610527600480360381019061052291906127ef565b611cfe565b005b610543600480360381019061053e919061266e565b611e45565b60405161055091906127d4565b60405180910390f35b610573600480360381019061056e91906128c6565b611f45565b6040516105809190612470565b60405180910390f35b8261059381611e45565b73ffffffffffffffffffffffffffffffffffffffff163373ffffffffffffffffffffffffffffffffffffffff1614610600576040517f08c379a00000000000000000000000000000000000000000000000000000000081526004016105f790612ba5565b60405180910390fd5b42600260008673ffffffffffffffffffffffffffffffffffffffff1673ffffffffffffffffffffffffffffffffffffffff16815260200190815260200160002060008585604051602001610655929190612c22565b604051602081830303815290604052805190602001208152602001908152602001600020600101819055508373ffffffffffffffffffffffffffffffffffffffff167f3c245a8c1b6b130ac5da86703bf855a1d9657013c1d88239123bbfb25f5252e38484426040516106ca93929190612c4a565b60405180910390a250505050565b60006106e48686611276565b905060006001828686866040516000815260200160405260405161070b9493929190612c97565b6020604051602081039080840390855afa15801561072d573d6000803e3d6000fd5b50505060206040510351905061074287611e45565b73ffffffffffffffffffffffffffffffffffffffff168173ffffffffffffffffffffffffffffffffffffffff16146107af576040517f08c379a00000000000000000000000000000000000000000000000000000000081526004016107a690612d28565b60405180910390fd5b856000808973ffffffffffffffffffffffffffffffffffffffff1673ffffffffffffffffffffffffffffffffffffffff16815260200190815260200160002060006101000a81548173ffffffffffffffffffffffffffffffffffffffff021916908373ffffffffffffffffffffffffffffffffffffffff1602179055508673ffffffffffffffffffffffffffffffffffffffff167f9071b3f486383ebd5972712e0a90e1012d2f68a61306af305f8bdc974debde878760405161087291906127d4565b60405180910390a250505050505050565b600046905090565b6002602052816000526040600020602052806000526040600020600091509150508060000180546108bb90612d77565b80601f01602080910402602001604051908101604052809291908181526020018280546108e790612d77565b80156109345780601f1061090957610100808354040283529160200191610934565b820191906000526020600020905b81548152906001019060200180831161091757829003601f168201915b5050505050908060010154905082565b60008484848460405160200161095d9493929190612e68565b604051602081830303815290604052805190602001209050949350505050565b8173ffffffffffffffffffffffffffffffffffffffff163373ffffffffffffffffffffffffffffffffffffffff16146109eb576040517f08c379a00000000000000000000000000000000000000000000000000000000081526004016109e290612f2f565b60405180910390fd5b600360008373ffffffffffffffffffffffffffffffffffffffff1673ffffffffffffffffffffffffffffffffffffffff16815260200190815260200160002081908060018154018082558091505060019003906000526020600020016000909190919091509081610a5c91906130fb565b505050565b6000838383604051602001610a7893929190613219565b6040516020818303038152906040528051906020012090509392505050565b60056020528160005260406000208181548110610ab357600080fd5b90600052602060002001600091509150508060000160009054906101000a900473ffffffffffffffffffffffffffffffffffffffff16908060000160149054906101000a900460ff16905082565b83610b0b81611e45565b73ffffffffffffffffffffffffffffffffffffffff163373ffffffffffffffffffffffffffffffffffffffff1614610b78576040517f08c379a0000000000000000000000000000000000000000000000000000000008152600401610b6f90612ba5565b60405180910390fd5b60008242610b869190613290565b9050604051806040016040528085815260200182815250600260008873ffffffffffffffffffffffffffffffffffffffff1673ffffffffffffffffffffffffffffffffffffffff16815260200190815260200160002060008787604051602001610bf1929190612c22565b6040516020818303038152906040528051906020012081526020019081526020016000206000820151816000019081610c2a919061331f565b50602082015181600101559050508573ffffffffffffffffffffffffffffffffffffffff167f3c245a8c1b6b130ac5da86703bf855a1d9657013c1d88239123bbfb25f5252e3868684604051610c8293929190612c4a565b60405180910390a2505050505050565b60603373ffffffffffffffffffffffffffffffffffffffff168273ffffffffffffffffffffffffffffffffffffffff161480610d545750600460008373ffffffffffffffffffffffffffffffffffffffff1673ffffffffffffffffffffffffffffffffffffffff16815260200190815260200160002060003373ffffffffffffffffffffffffffffffffffffffff1673ffffffffffffffffffffffffffffffffffffffff16815260200190815260200160002060009054906101000a900460ff165b610d93576040517f08c379a0000000000000000000000000000000000000000000000000000000008152600401610d8a9061343d565b60405180910390fd5b600360008373ffffffffffffffffffffffffffffffffffffffff1673ffffffffffffffffffffffffffffffffffffffff168152602001908152602001600020805480602002602001604051908101604052809291908181526020016000905b82821015610e9e578382906000526020600020018054610e1190612d77565b80601f0160208091040260200160405190810160405280929190818152602001828054610e3d90612d77565b8015610e8a5780601f10610e5f57610100808354040283529160200191610e8a565b820191906000526020600020905b815481529060010190602001808311610e6d57829003601f168201915b505050505081526020019060010190610df2565b505050509050919050565b82610eb381611e45565b73ffffffffffffffffffffffffffffffffffffffff163373ffffffffffffffffffffffffffffffffffffffff1614610f20576040517f08c379a0000000000000000000000000000000000000000000000000000000008152600401610f1790612ba5565b60405180910390fd5b42600160008673ffffffffffffffffffffffffffffffffffffffff1673ffffffffffffffffffffffffffffffffffffffff16815260200190815260200160002060008473ffffffffffffffffffffffffffffffffffffffff1673ffffffffffffffffffffffffffffffffffffffff1681526020019081526020016000206000858152602001908152602001600020600101819055508373ffffffffffffffffffffffffffffffffffffffff167fca4b351e0fc5a646ec7f99026c19fbc183d6d851946cdb5831f0c15fbec3ec1d848442604051610fff9392919061345d565b60405180910390a250505050565b60006020528060005260406000206000915054906101000a900473ffffffffffffffffffffffffffffffffffffffff1681565b60066020528160005260406000206020528060005260406000206000915091509054906101000a900460ff1681565b60046020528160005260406000206020528060005260406000206000915091509054906101000a900460ff1681565b600160205282600052604060002060205281600052604060002060205280600052604060002060009250925050508060000154908060010154905082565b836110e681611e45565b73ffffffffffffffffffffffffffffffffffffffff163373ffffffffffffffffffffffffffffffffffffffff1614611153576040517f08c379a000000000000000000000000000000000000000000000000000000000815260040161114a90612ba5565b60405180910390fd5b600082426111619190613290565b9050604051806040016040528086815260200182815250600160008873ffffffffffffffffffffffffffffffffffffffff1673ffffffffffffffffffffffffffffffffffffffff16815260200190815260200160002060008673ffffffffffffffffffffffffffffffffffffffff1673ffffffffffffffffffffffffffffffffffffffff168152602001908152602001600020600087815260200190815260200160002060008201518160000155602082015181600101559050508573ffffffffffffffffffffffffffffffffffffffff167fca4b351e0fc5a646ec7f99026c19fbc183d6d851946cdb5831f0c15fbec3ec1d8686846040516112669392919061345d565b60405180910390a2505050505050565b6000828260405160200161128b9291906134e0565b60405160208183030381529060405280519060200120905092915050565b60006112b788888888611f45565b90506000600182868686604051600081526020016040526040516112de9493929190612c97565b6020604051602081039080840390855afa158015611300573d6000803e3d6000fd5b50505060206040510351905061131589611e45565b73ffffffffffffffffffffffffffffffffffffffff168173ffffffffffffffffffffffffffffffffffffffff1614611382576040517f08c379a000000000000000000000000000000000000000000000000000000000815260040161137990612d28565b60405180910390fd5b600086426113909190613290565b905060405180604001604052808a815260200182815250600160008c73ffffffffffffffffffffffffffffffffffffffff1673ffffffffffffffffffffffffffffffffffffffff16815260200190815260200160002060008a73ffffffffffffffffffffffffffffffffffffffff1673ffffffffffffffffffffffffffffffffffffffff16815260200190815260200160002060008b815260200190815260200160002060008201518160000155602082015181600101559050508973ffffffffffffffffffffffffffffffffffffffff167fca4b351e0fc5a646ec7f99026c19fbc183d6d851946cdb5831f0c15fbec3ec1d8a8a846040516114959392919061345d565b60405180910390a250505050505050505050565b6000600460003373ffffffffffffffffffffffffffffffffffffffff1673ffffffffffffffffffffffffffffffffffffffff16815260200190815260200160002060008373ffffffffffffffffffffffffffffffffffffffff1673ffffffffffffffffffffffffffffffffffffffff16815260200190815260200160002060006101000a81548160ff02191690831515021790555060005b600560003373ffffffffffffffffffffffffffffffffffffffff1673ffffffffffffffffffffffffffffffffffffffff168152602001908152602001600020805490508110156116c1578173ffffffffffffffffffffffffffffffffffffffff16600560003373ffffffffffffffffffffffffffffffffffffffff1673ffffffffffffffffffffffffffffffffffffffff16815260200190815260200160002082815481106115f3576115f2613517565b5b9060005260206000200160000160009054906101000a900473ffffffffffffffffffffffffffffffffffffffff1673ffffffffffffffffffffffffffffffffffffffff16036116b4576000600560003373ffffffffffffffffffffffffffffffffffffffff1673ffffffffffffffffffffffffffffffffffffffff168152602001908152602001600020828154811061168f5761168e613517565b5b9060005260206000200160000160146101000a81548160ff0219169083151502179055505b8080600101915050611541565b5050565b6060600560003373ffffffffffffffffffffffffffffffffffffffff1673ffffffffffffffffffffffffffffffffffffffff168152602001908152602001600020805480602002602001604051908101604052809291908181526020016000905b828210156117c5578382906000526020600020016040518060400160405290816000820160009054906101000a900473ffffffffffffffffffffffffffffffffffffffff1673ffffffffffffffffffffffffffffffffffffffff1673ffffffffffffffffffffffffffffffffffffffff1681526020016000820160149054906101000a900460ff16151515158152505081526020019060010190611726565b50505050905090565b60008383836040516020016117e593929190613592565b6040516020818303038152906040528051906020012090509392505050565b6001600460003373ffffffffffffffffffffffffffffffffffffffff1673ffffffffffffffffffffffffffffffffffffffff16815260200190815260200160002060008373ffffffffffffffffffffffffffffffffffffffff1673ffffffffffffffffffffffffffffffffffffffff16815260200190815260200160002060006101000a81548160ff021916908315150217905550600660003373ffffffffffffffffffffffffffffffffffffffff1673ffffffffffffffffffffffffffffffffffffffff16815260200190815260200160002060008273ffffffffffffffffffffffffffffffffffffffff1673ffffffffffffffffffffffffffffffffffffffff16815260200190815260200160002060009054906101000a900460ff1615611ab15760005b600560003373ffffffffffffffffffffffffffffffffffffffff1673ffffffffffffffffffffffffffffffffffffffff16815260200190815260200160002080549050811015611aab578173ffffffffffffffffffffffffffffffffffffffff16600560003373ffffffffffffffffffffffffffffffffffffffff1673ffffffffffffffffffffffffffffffffffffffff16815260200190815260200160002082815481106119dd576119dc613517565b5b9060005260206000200160000160009054906101000a900473ffffffffffffffffffffffffffffffffffffffff1673ffffffffffffffffffffffffffffffffffffffff1603611a9e576001600560003373ffffffffffffffffffffffffffffffffffffffff1673ffffffffffffffffffffffffffffffffffffffff1681526020019081526020016000208281548110611a7957611a78613517565b5b9060005260206000200160000160146101000a81548160ff0219169083151502179055505b808060010191505061192b565b50611c42565b600560003373ffffffffffffffffffffffffffffffffffffffff1673ffffffffffffffffffffffffffffffffffffffff16815260200190815260200160002060405180604001604052808373ffffffffffffffffffffffffffffffffffffffff168152602001600115158152509080600181540180825580915050600190039060005260206000200160009091909190915060008201518160000160006101000a81548173ffffffffffffffffffffffffffffffffffffffff021916908373ffffffffffffffffffffffffffffffffffffffff16021790555060208201518160000160146101000a81548160ff02191690831515021790555050506001600660003373ffffffffffffffffffffffffffffffffffffffff1673ffffffffffffffffffffffffffffffffffffffff16815260200190815260200160002060008373ffffffffffffffffffffffffffffffffffffffff1673ffffffffffffffffffffffffffffffffffffffff16815260200190815260200160002060006101000a81548160ff0219169083151502179055505b50565b60036020528160005260406000208181548110611c6157600080fd5b90600052602060002001600091509150508054611c7d90612d77565b80601f0160208091040260200160405190810160405280929190818152602001828054611ca990612d77565b8015611cf65780601f10611ccb57610100808354040283529160200191611cf6565b820191906000526020600020905b815481529060010190602001808311611cd957829003601f168201915b505050505081565b81611d0881611e45565b73ffffffffffffffffffffffffffffffffffffffff163373ffffffffffffffffffffffffffffffffffffffff1614611d75576040517f08c379a0000000000000000000000000000000000000000000000000000000008152600401611d6c90612ba5565b60405180910390fd5b816000808573ffffffffffffffffffffffffffffffffffffffff1673ffffffffffffffffffffffffffffffffffffffff16815260200190815260200160002060006101000a81548173ffffffffffffffffffffffffffffffffffffffff021916908373ffffffffffffffffffffffffffffffffffffffff1602179055508273ffffffffffffffffffffffffffffffffffffffff167f9071b3f486383ebd5972712e0a90e1012d2f68a61306af305f8bdc974debde8783604051611e3891906127d4565b60405180910390a2505050565b60008073ffffffffffffffffffffffffffffffffffffffff166000808473ffffffffffffffffffffffffffffffffffffffff1673ffffffffffffffffffffffffffffffffffffffff16815260200190815260200160002060009054906101000a900473ffffffffffffffffffffffffffffffffffffffff1673ffffffffffffffffffffffffffffffffffffffff1614611f3c576000808373ffffffffffffffffffffffffffffffffffffffff1673ffffffffffffffffffffffffffffffffffffffff16815260200190815260200160002060009054906101000a900473ffffffffffffffffffffffffffffffffffffffff16611f3e565b815b9050919050565b600084848484604051602001611f5e9493929190613622565b604051602081830303815290604052805190602001209050949350505050565b6000604051905090565b600080fd5b600080fd5b600073ffffffffffffffffffffffffffffffffffffffff82169050919050565b6000611fbd82611f92565b9050919050565b611fcd81611fb2565b8114611fd857600080fd5b50565b600081359050611fea81611fc4565b92915050565b6000819050919050565b61200381611ff0565b811461200e57600080fd5b50565b60008135905061202081611ffa565b92915050565b600080fd5b600080fd5b6000601f19601f8301169050919050565b7f4e487b7100000000000000000000000000000000000000000000000000000000600052604160045260246000fd5b61207982612030565b810181811067ffffffffffffffff8211171561209857612097612041565b5b80604052505050565b60006120ab611f7e565b90506120b78282612070565b919050565b600067ffffffffffffffff8211156120d7576120d6612041565b5b6120e082612030565b9050602081019050919050565b82818337600083830152505050565b600061210f61210a846120bc565b6120a1565b90508281526020810184848401111561212b5761212a61202b565b5b6121368482856120ed565b509392505050565b600082601f83011261215357612152612026565b5b81356121638482602086016120fc565b91505092915050565b60008060006060848603121561218557612184611f88565b5b600061219386828701611fdb565b93505060206121a486828701612011565b925050604084013567ffffffffffffffff8111156121c5576121c4611f8d565b5b6121d18682870161213e565b9150509250925092565b600060ff82169050919050565b6121f1816121db565b81146121fc57600080fd5b50565b60008135905061220e816121e8565b92915050565b600080600080600060a086880312156122305761222f611f88565b5b600061223e88828901611fdb565b955050602061224f88828901611fdb565b9450506040612260888289016121ff565b935050606061227188828901612011565b925050608061228288828901612011565b9150509295509295909350565b6000819050919050565b6122a28161228f565b82525050565b60006020820190506122bd6000830184612299565b92915050565b600080604083850312156122da576122d9611f88565b5b60006122e885828601611fdb565b92505060206122f985828601612011565b9150509250929050565b600081519050919050565b600082825260208201905092915050565b60005b8381101561233d578082015181840152602081019050612322565b60008484015250505050565b600061235482612303565b61235e818561230e565b935061236e81856020860161231f565b61237781612030565b840191505092915050565b6000604082019050818103600083015261239c8185612349565b90506123ab6020830184612299565b9392505050565b6123bb8161228f565b81146123c657600080fd5b50565b6000813590506123d8816123b2565b92915050565b600080600080608085870312156123f8576123f7611f88565b5b600061240687828801611fdb565b945050602061241787828801612011565b935050604085013567ffffffffffffffff81111561243857612437611f8d565b5b6124448782880161213e565b9250506060612455878288016123c9565b91505092959194509250565b61246a81611ff0565b82525050565b60006020820190506124856000830184612461565b92915050565b600067ffffffffffffffff8211156124a6576124a5612041565b5b6124af82612030565b9050602081019050919050565b60006124cf6124ca8461248b565b6120a1565b9050828152602081018484840111156124eb576124ea61202b565b5b6124f68482856120ed565b509392505050565b600082601f83011261251357612512612026565b5b81356125238482602086016124bc565b91505092915050565b6000806040838503121561254357612542611f88565b5b600061255185828601611fdb565b925050602083013567ffffffffffffffff81111561257257612571611f8d565b5b61257e858286016124fe565b9150509250929050565b6000806000606084860312156125a1576125a0611f88565b5b60006125af86828701611fdb565b93505060206125c086828701612011565b92505060406125d186828701611fdb565b9150509250925092565b600080604083850312156125f2576125f1611f88565b5b600061260085828601611fdb565b9250506020612611858286016123c9565b9150509250929050565b61262481611fb2565b82525050565b60008115159050919050565b61263f8161262a565b82525050565b600060408201905061265a600083018561261b565b6126676020830184612636565b9392505050565b60006020828403121561268457612683611f88565b5b600061269284828501611fdb565b91505092915050565b600081519050919050565b600082825260208201905092915050565b6000819050602082019050919050565b600081519050919050565b600082825260208201905092915050565b60006126ee826126c7565b6126f881856126d2565b935061270881856020860161231f565b61271181612030565b840191505092915050565b600061272883836126e3565b905092915050565b6000602082019050919050565b60006127488261269b565b61275281856126a6565b935083602082028501612764856126b7565b8060005b858110156127a05784840389528151612781858261271c565b945061278c83612730565b925060208a01995050600181019050612768565b50829750879550505050505092915050565b600060208201905081810360008301526127cc818461273d565b905092915050565b60006020820190506127e9600083018461261b565b92915050565b6000806040838503121561280657612805611f88565b5b600061281485828601611fdb565b925050602061282585828601611fdb565b9150509250929050565b60006020820190506128446000830184612636565b92915050565b60008060006060848603121561286357612862611f88565b5b600061287186828701611fdb565b935050602061288286828701611fdb565b925050604061289386828701612011565b9150509250925092565b60006040820190506128b26000830185612461565b6128bf6020830184612299565b9392505050565b600080600080608085870312156128e0576128df611f88565b5b60006128ee87828801611fdb565b94505060206128ff87828801612011565b935050604061291087828801611fdb565b9250506060612921878288016123c9565b91505092959194509250565b600080600080600080600060e0888a03121561294c5761294b611f88565b5b600061295a8a828b01611fdb565b975050602061296b8a828b01612011565b965050604061297c8a828b01611fdb565b955050606061298d8a828b016123c9565b945050608061299e8a828b016121ff565b93505060a06129af8a828b01612011565b92505060c06129c08a828b01612011565b91505092959891949750929550565b600081519050919050565b600082825260208201905092915050565b6000819050602082019050919050565b612a0481611fb2565b82525050565b612a138161262a565b82525050565b604082016000820151612a2f60008501826129fb565b506020820151612a426020850182612a0a565b50505050565b6000612a548383612a19565b60408301905092915050565b6000602082019050919050565b6000612a78826129cf565b612a8281856129da565b9350612a8d836129eb565b8060005b83811015612abe578151612aa58882612a48565b9750612ab083612a60565b925050600181019050612a91565b5085935050505092915050565b60006020820190508181036000830152612ae58184612a6d565b905092915050565b600082825260208201905092915050565b6000612b09826126c7565b612b138185612aed565b9350612b2381856020860161231f565b612b2c81612030565b840191505092915050565b60006020820190508181036000830152612b518184612afe565b905092915050565b7f4e6f7420746865206964656e74697479206f776e657200000000000000000000600082015250565b6000612b8f601683612aed565b9150612b9a82612b59565b602082019050919050565b60006020820190508181036000830152612bbe81612b82565b9050919050565b6000819050919050565b612be0612bdb82611ff0565b612bc5565b82525050565b600081905092915050565b6000612bfc82612303565b612c068185612be6565b9350612c1681856020860161231f565b80840191505092915050565b6000612c2e8285612bcf565b602082019150612c3e8284612bf1565b91508190509392505050565b6000606082019050612c5f6000830186612461565b8181036020830152612c718185612349565b9050612c806040830184612299565b949350505050565b612c91816121db565b82525050565b6000608082019050612cac6000830187612461565b612cb96020830186612c88565b612cc66040830185612461565b612cd36060830184612461565b95945050505050565b7f5369676e617475726520696e76616c6964650000000000000000000000000000600082015250565b6000612d12601283612aed565b9150612d1d82612cdc565b602082019050919050565b60006020820190508181036000830152612d4181612d05565b9050919050565b7f4e487b7100000000000000000000000000000000000000000000000000000000600052602260045260246000fd5b60006002820490506001821680612d8f57607f821691505b602082108103612da257612da1612d48565b5b50919050565b600081905092915050565b7f7365744174747269627574650000000000000000000000000000000000000000600082015250565b6000612de9600c83612da8565b9150612df482612db3565b600c82019050919050565b60008160601b9050919050565b6000612e1782612dff565b9050919050565b6000612e2982612e0c565b9050919050565b612e41612e3c82611fb2565b612e1e565b82525050565b6000819050919050565b612e62612e5d8261228f565b612e47565b82525050565b6000612e7382612ddc565b9150612e7f8287612e30565b601482019150612e8f8286612bcf565b602082019150612e9f8285612bf1565b9150612eab8284612e51565b60208201915081905095945050505050565b7f596f752063616e206f6e6c792075706c6f616420646f63756d656e747320666f60008201527f7220796f757273656c6600000000000000000000000000000000000000000000602082015250565b6000612f19602a83612aed565b9150612f2482612ebd565b604082019050919050565b60006020820190508181036000830152612f4881612f0c565b9050919050565b60008190508160005260206000209050919050565b60006020601f8301049050919050565b600082821b905092915050565b600060088302612fb17fffffffffffffffffffffffffffffffffffffffffffffffffffffffffffffffff82612f74565b612fbb8683612f74565b95508019841693508086168417925050509392505050565b6000819050919050565b6000612ff8612ff3612fee8461228f565b612fd3565b61228f565b9050919050565b6000819050919050565b61301283612fdd565b61302661301e82612fff565b848454612f81565b825550505050565b600090565b61303b61302e565b613046818484613009565b505050565b5b8181101561306a5761305f600082613033565b60018101905061304c565b5050565b601f8211156130af5761308081612f4f565b61308984612f64565b81016020851015613098578190505b6130ac6130a485612f64565b83018261304b565b50505b505050565b600082821c905092915050565b60006130d2600019846008026130b4565b1980831691505092915050565b60006130eb83836130c1565b9150826002028217905092915050565b613104826126c7565b67ffffffffffffffff81111561311d5761311c612041565b5b6131278254612d77565b61313282828561306e565b600060209050601f8311600181146131655760008415613153578287015190505b61315d85826130df565b8655506131c5565b601f19841661317386612f4f565b60005b8281101561319b57848901518255600182019150602085019450602081019050613176565b868310156131b857848901516131b4601f8916826130c1565b8355505b6001600288020188555050505b505050505050565b7f7265766f6b6544656c6567617465000000000000000000000000000000000000600082015250565b6000613203600e83612da8565b915061320e826131cd565b600e82019050919050565b6000613224826131f6565b91506132308286612e30565b6014820191506132408285612bcf565b6020820191506132508284612e30565b601482019150819050949350505050565b7f4e487b7100000000000000000000000000000000000000000000000000000000600052601160045260246000fd5b600061329b8261228f565b91506132a68361228f565b92508282019050808211156132be576132bd613261565b5b92915050565b60008190508160005260206000209050919050565b601f82111561331a576132eb816132c4565b6132f484612f64565b81016020851015613303578190505b61331761330f85612f64565b83018261304b565b50505b505050565b61332882612303565b67ffffffffffffffff81111561334157613340612041565b5b61334b8254612d77565b6133568282856132d9565b600060209050601f8311600181146133895760008415613377578287015190505b61338185826130df565b8655506133e9565b601f198416613397866132c4565b60005b828110156133bf5784890151825560018201915060208501945060208101905061339a565b868310156133dc57848901516133d8601f8916826130c1565b8355505b6001600288020188555050505b505050505050565b7f596f7520646f6e27742068617665206163636573730000000000000000000000600082015250565b6000613427601583612aed565b9150613432826133f1565b602082019050919050565b600060208201905081810360008301526134568161341a565b9050919050565b60006060820190506134726000830186612461565b61347f602083018561261b565b61348c6040830184612299565b949350505050565b7f6368616e67654f776e6572000000000000000000000000000000000000000000600082015250565b60006134ca600b83612da8565b91506134d582613494565b600b82019050919050565b60006134eb826134bd565b91506134f78285612e30565b6014820191506135078284612e30565b6014820191508190509392505050565b7f4e487b7100000000000000000000000000000000000000000000000000000000600052603260045260246000fd5b7f7265766f6b654174747269627574650000000000000000000000000000000000600082015250565b600061357c600f83612da8565b915061358782613546565b600f82019050919050565b600061359d8261356f565b91506135a98286612e30565b6014820191506135b98285612bcf565b6020820191506135c98284612bf1565b9150819050949350505050565b7f61646444656c6567617465000000000000000000000000000000000000000000600082015250565b600061360c600b83612da8565b9150613617826135d6565b600b82019050919050565b600061362d826135ff565b91506136398287612e30565b6014820191506136498286612bcf565b6020820191506136598285612e30565b6014820191506136698284612e51565b6020820191508190509594505050505056fea26469706673582212204198f65b5665dc00bb5e02e0db338259f352383f3d6f7a6221371eae085dc08564736f6c634300081d0033",
  "linkReferences": {},
  "deployedLinkReferences": {}
}