{
  "contractName": "DocumentStore",
  "abi": [
    {
      "constant": true,
      "inputs": [
        {
          "name": "",
          "type": "address"
        },
        {
          "name": "",
          "type": "address"
        },
        {
          "name": "",
          "type": "uint256"
        }
      ],
      "name": "sharedAccess",
      "outputs": [
        {
          "name": "",
          "type": "bool"
        }
      ],
      "payable": false,
      "stateMutability": "view",
      "type": "function",
      "signature": "0x8646fe38"
    },
    {
      "constant": true,
      "inputs": [
        {
          "name": "",
          "type": "uint256"
        }
      ],
      "name": "shareLogs",
      "outputs": [
        {
          "name": "from",
          "type": "address"
        },
        {
          "name": "to",
          "type": "address"
        },
        {
          "name": "docIndex",
          "type": "uint256"
        },
        {
          "name": "timestamp",
          "type": "uint256"
        },
        {
          "name": "revoked",
          "type": "bool"
        }
      ],
      "payable": false,
      "stateMutability": "view",
      "type": "function",
      "signature": "0x9fed614c"
    },
    {
      "anonymous": false,
      "inputs": [
        {
          "indexed": true,
          "name": "user",
          "type": "address"
        },
        {
          "indexed": false,
          "name": "cid",
          "type": "string"
        },
        {
          "indexed": false,
          "name": "title",
          "type": "string"
        }
      ],
      "name": "DocumentAdded",
      "type": "event",
      "signature": "0x07645f127bfac4daf3357acb380f90f0224d68150d39744ebb2fdf1e58a7206f"
    },
    {
      "anonymous": false,
      "inputs": [
        {
          "indexed": true,
          "name": "from",
          "type": "address"
        },
        {
          "indexed": true,
          "name": "to",
          "type": "address"
        },
        {
          "indexed": false,
          "name": "docIndex",
          "type": "uint256"
        }
      ],
      "name": "DocumentShared",
      "type": "event",
      "signature": "0x195c22b233bb4ee95de7e4a499a9bdb25d9a09d8d9d6063345c120f23dc9f110"
    },
    {
      "anonymous": false,
      "inputs": [
        {
          "indexed": true,
          "name": "from",
          "type": "address"
        },
        {
          "indexed": true,
          "name": "to",
          "type": "address"
        },
        {
          "indexed": false,
          "name": "docIndex",
          "type": "uint256"
        }
      ],
      "name": "AccessRevoked",
      "type": "event",
      "signature": "0x6f6a404ffd2cea4713256a4fd9ce99c8cf8cf32d85c2bb8061d1603ff57d50c3"
    },
    {
      "constant": false,
      "inputs": [
        {
          "name": "_cid",
          "type": "string"
        },
        {
          "name": "_title",
          "type": "string"
        }
      ],
      "name": "addDocument",
      "outputs": [],
      "payable": false,
      "stateMutability": "nonpayable",
      "type": "function",
      "signature": "0x4d2b1978"
    },
    {
      "constant": true,
      "inputs": [],
      "name": "getDocumentCount",
      "outputs": [
        {
          "name": "",
          "type": "uint256"
        }
      ],
      "payable": false,
      "stateMutability": "view",
      "type": "function",
      "signature": "0x3d1c2273"
    },
    {
      "constant": true,
      "inputs": [
        {
          "name": "index",
          "type": "uint256"
        }
      ],
      "name": "getDocumentByIndex",
      "outputs": [
        {
          "name": "cid",
          "type": "string"
        },
        {
          "name": "title",
          "type": "string"
        }
      ],
      "payable": false,
      "stateMutability": "view",
      "type": "function",
      "signature": "0x3764a7cd"
    },
    {
      "constant": false,
      "inputs": [
        {
          "name": "to",
          "type": "address"
        },
        {
          "name": "docIndex",
          "type": "uint256"
        }
      ],
      "name": "shareDocument",
      "outputs": [],
      "payable": false,
      "stateMutability": "nonpayable",
      "type": "function",
      "signature": "0x67cdcae2"
    },
    {
      "constant": false,
      "inputs": [
        {
          "name": "to",
          "type": "address"
        },
        {
          "name": "docIndex",
          "type": "uint256"
        }
      ],
      "name": "revokeAccess",
      "outputs": [],
      "payable": false,
      "stateMutability": "nonpayable",
      "type": "function",
      "signature": "0xa99d8379"
    },
    {
      "constant": true,
      "inputs": [],
      "name": "getShareLogCount",
      "outputs": [
        {
          "name": "",
          "type": "uint256"
        }
      ],
      "payable": false,
      "stateMutability": "view",
      "type": "function",
      "signature": "0x0a764a2c"
    },
    {
      "constant": true,
      "inputs": [
        {
          "name": "index",
          "type": "uint256"
        }
      ],
      "name": "getShareLogByIndex",
      "outputs": [
        {
          "name": "from",
          "type": "address"
        },
        {
          "name": "to",
          "type": "address"
        },
        {
          "name": "docIndex",
          "type": "uint256"
        },
        {
          "name": "timestamp",
          "type": "uint256"
        },
        {
          "name": "revoked",
          "type": "bool"
        }
      ],
      "payable": false,
      "stateMutability": "view",
      "type": "function",
      "signature": "0x551e9a00"
    },
    {
      "constant": true,
      "inputs": [
        {
          "name": "owner",
          "type": "address"
        },
        {
          "name": "docIndex",
          "type": "uint256"
        }
      ],
      "name": "canAccess",
      "outputs": [
        {
          "name": "",
          "type": "bool"
        }
      ],
      "payable": false,
      "stateMutability": "view",
      "type": "function",
      "signature": "0xc61fffec"
    },
    {
      "constant": true,
      "inputs": [
        {
          "name": "owner",
          "type": "address"
        },
        {
          "name": "index",
          "type": "uint256"
        }
      ],
      "name": "getDocumentByIndexFrom",
      "outputs": [
        {
          "name": "cid",
          "type": "string"
        },
        {
          "name": "title",
          "type": "string"
        }
      ],
      "payable": false,
      "stateMutability": "view",
      "type": "function",
      "signature": "0x678d0bdf"
    }
  ],
  "bytecode": "0x608060405234801561001057600080fd5b5061188f806100206000396000f3fe6080604052600436106100af576000357c0100000000000000000000000000000000000000000000000000000000900463ffffffff1680630a764a2c146100b45780633764a7cd146100df5780633d1c22731461011d5780634d2b197814610148578063551e9a0014610171578063678d0bdf146101b257806367cdcae2146101f05780638646fe38146102195780639fed614c14610256578063a99d837914610297578063c61fffec146102c0575b600080fd5b3480156100c057600080fd5b506100c96102fd565b6040516100d6919061171f565b60405180910390f35b3480156100eb57600080fd5b50610106600480360361010191908101906114e9565b610309565b604051610114929190611688565b60405180910390f35b34801561012957600080fd5b5061013261055f565b60405161013f919061171f565b60405180910390f35b34801561015457600080fd5b5061016f600480360361016a919081019061147d565b6105a9565b005b34801561017d57600080fd5b50610198600480360361019391908101906114e9565b610745565b6040516101a995949392919061161a565b60405180910390f35b3480156101be57600080fd5b506101d960048036036101d49190810190611441565b6108d0565b6040516101e7929190611688565b60405180910390f35b3480156101fc57600080fd5b5061021760048036036102129190810190611441565b610b28565b005b34801561022557600080fd5b50610240600480360361023b91908101906113f2565b610e06565b60405161024d919061166d565b60405180910390f35b34801561026257600080fd5b5061027d600480360361027891908101906114e9565b610e42565b60405161028e95949392919061161a565b60405180910390f35b3480156102a357600080fd5b506102be60048036036102b99190810190611441565b610ed4565b005b3480156102cc57600080fd5b506102e760048036036102e29190810190611441565b6111b2565b6040516102f4919061166d565b60405180910390f35b60008080549050905090565b606080600160003373ffffffffffffffffffffffffffffffffffffffff1673ffffffffffffffffffffffffffffffffffffffff1681526020019081526020016000208054905083101515610392576040517f08c379a0000000000000000000000000000000000000000000000000000000008152600401610389906116ff565b60405180910390fd5b61039a611257565b600160003373ffffffffffffffffffffffffffffffffffffffff1673ffffffffffffffffffffffffffffffffffffffff168152602001908152602001600020848154811015156103e657fe5b9060005260206000209060020201604080519081016040529081600082018054600181600116156101000203166002900480601f0160208091040260200160405190810160405280929190818152602001828054600181600116156101000203166002900480156104985780601f1061046d57610100808354040283529160200191610498565b820191906000526020600020905b81548152906001019060200180831161047b57829003601f168201915b50505050508152602001600182018054600181600116156101000203166002900480601f01602080910402602001604051908101604052809291908181526020018280546001816001161561010002031660029004801561053a5780601f1061050f5761010080835404028352916020019161053a565b820191906000526020600020905b81548152906001019060200180831161051d57829003601f168201915b5050505050815250509050806000015181602001518191508090509250925050915091565b6000600160003373ffffffffffffffffffffffffffffffffffffffff1673ffffffffffffffffffffffffffffffffffffffff16815260200190815260200160002080549050905090565b600082511115156105ef576040517f08c379a00000000000000000000000000000000000000000000000000000000081526004016105e6906116df565b60405180910390fd5b60008151111515610635576040517f08c379a000000000000000000000000000000000000000000000000000000000815260040161062c906116bf565b60405180910390fd5b600160003373ffffffffffffffffffffffffffffffffffffffff1673ffffffffffffffffffffffffffffffffffffffff1681526020019081526020016000206040805190810160405280848152602001838152509080600181540180825580915050906001820390600052602060002090600202016000909192909190915060008201518160000190805190602001906106d0929190611271565b5060208201518160010190805190602001906106ed929190611271565b505050503373ffffffffffffffffffffffffffffffffffffffff167f07645f127bfac4daf3357acb380f90f0224d68150d39744ebb2fdf1e58a7206f8383604051610739929190611688565b60405180910390a25050565b6000806000806000808054905086101515610795576040517f08c379a000000000000000000000000000000000000000000000000000000000815260040161078c906116ff565b60405180910390fd5b61079d6112f1565b6000878154811015156107ac57fe5b906000526020600020906005020160a060405190810160405290816000820160009054906101000a900473ffffffffffffffffffffffffffffffffffffffff1673ffffffffffffffffffffffffffffffffffffffff1673ffffffffffffffffffffffffffffffffffffffff1681526020016001820160009054906101000a900473ffffffffffffffffffffffffffffffffffffffff1673ffffffffffffffffffffffffffffffffffffffff1673ffffffffffffffffffffffffffffffffffffffff16815260200160028201548152602001600382015481526020016004820160009054906101000a900460ff161515151581525050905080600001518160200151826040015183606001518460800151955095509550955095505091939590929450565b606080600160008573ffffffffffffffffffffffffffffffffffffffff1673ffffffffffffffffffffffffffffffffffffffff1681526020019081526020016000208054905083101515610959576040517f08c379a0000000000000000000000000000000000000000000000000000000008152600401610950906116ff565b60405180910390fd5b610961611257565b600160008673ffffffffffffffffffffffffffffffffffffffff1673ffffffffffffffffffffffffffffffffffffffff168152602001908152602001600020848154811015156109ad57fe5b9060005260206000209060020201604080519081016040529081600082018054600181600116156101000203166002900480601f016020809104026020016040519081016040528092919081815260200182805460018160011615610100020316600290048015610a5f5780601f10610a3457610100808354040283529160200191610a5f565b820191906000526020600020905b815481529060010190602001808311610a4257829003601f168201915b50505050508152602001600182018054600181600116156101000203166002900480601f016020809104026020016040519081016040528092919081815260200182805460018160011615610100020316600290048015610b015780601f10610ad657610100808354040283529160200191610b01565b820191906000526020600020905b815481529060010190602001808311610ae457829003601f168201915b50505050508152505090508060000151816020015181915080905092509250509250929050565b600160003373ffffffffffffffffffffffffffffffffffffffff1673ffffffffffffffffffffffffffffffffffffffff1681526020019081526020016000208054905081101515610bae576040517f08c379a0000000000000000000000000000000000000000000000000000000008152600401610ba5906116ff565b60405180910390fd5b6001600260003373ffffffffffffffffffffffffffffffffffffffff1673ffffffffffffffffffffffffffffffffffffffff16815260200190815260200160002060008473ffffffffffffffffffffffffffffffffffffffff1673ffffffffffffffffffffffffffffffffffffffff168152602001908152602001600020600083815260200190815260200160002060006101000a81548160ff021916908315150217905550600060a0604051908101604052803373ffffffffffffffffffffffffffffffffffffffff1681526020018473ffffffffffffffffffffffffffffffffffffffff168152602001838152602001428152602001600015158152509080600181540180825580915050906001820390600052602060002090600502016000909192909190915060008201518160000160006101000a81548173ffffffffffffffffffffffffffffffffffffffff021916908373ffffffffffffffffffffffffffffffffffffffff16021790555060208201518160010160006101000a81548173ffffffffffffffffffffffffffffffffffffffff021916908373ffffffffffffffffffffffffffffffffffffffff160217905550604082015181600201556060820151816003015560808201518160040160006101000a81548160ff0219169083151502179055505050508173ffffffffffffffffffffffffffffffffffffffff163373ffffffffffffffffffffffffffffffffffffffff167f195c22b233bb4ee95de7e4a499a9bdb25d9a09d8d9d6063345c120f23dc9f11083604051610dfa919061171f565b60405180910390a35050565b6002602052826000526040600020602052816000526040600020602052806000526040600020600092509250509054906101000a900460ff1681565b600081815481101515610e5157fe5b90600052602060002090600502016000915090508060000160009054906101000a900473ffffffffffffffffffffffffffffffffffffffff16908060010160009054906101000a900473ffffffffffffffffffffffffffffffffffffffff16908060020154908060030154908060040160009054906101000a900460ff16905085565b600160003373ffffffffffffffffffffffffffffffffffffffff1673ffffffffffffffffffffffffffffffffffffffff1681526020019081526020016000208054905081101515610f5a576040517f08c379a0000000000000000000000000000000000000000000000000000000008152600401610f51906116ff565b60405180910390fd5b6000600260003373ffffffffffffffffffffffffffffffffffffffff1673ffffffffffffffffffffffffffffffffffffffff16815260200190815260200160002060008473ffffffffffffffffffffffffffffffffffffffff1673ffffffffffffffffffffffffffffffffffffffff168152602001908152602001600020600083815260200190815260200160002060006101000a81548160ff021916908315150217905550600060a0604051908101604052803373ffffffffffffffffffffffffffffffffffffffff1681526020018473ffffffffffffffffffffffffffffffffffffffff168152602001838152602001428152602001600115158152509080600181540180825580915050906001820390600052602060002090600502016000909192909190915060008201518160000160006101000a81548173ffffffffffffffffffffffffffffffffffffffff021916908373ffffffffffffffffffffffffffffffffffffffff16021790555060208201518160010160006101000a81548173ffffffffffffffffffffffffffffffffffffffff021916908373ffffffffffffffffffffffffffffffffffffffff160217905550604082015181600201556060820151816003015560808201518160040160006101000a81548160ff0219169083151502179055505050508173ffffffffffffffffffffffffffffffffffffffff163373ffffffffffffffffffffffffffffffffffffffff167f6f6a404ffd2cea4713256a4fd9ce99c8cf8cf32d85c2bb8061d1603ff57d50c3836040516111a6919061171f565b60405180910390a35050565b6000600260008473ffffffffffffffffffffffffffffffffffffffff1673ffffffffffffffffffffffffffffffffffffffff16815260200190815260200160002060003373ffffffffffffffffffffffffffffffffffffffff1673ffffffffffffffffffffffffffffffffffffffff168152602001908152602001600020600083815260200190815260200160002060009054906101000a900460ff16905092915050565b604080519081016040528060608152602001606081525090565b828054600181600116156101000203166002900490600052602060002090601f016020900481019282601f106112b257805160ff19168380011785556112e0565b828001600101855582156112e0579182015b828111156112df5782518255916020019190600101906112c4565b5b5090506112ed919061134f565b5090565b60a060405190810160405280600073ffffffffffffffffffffffffffffffffffffffff168152602001600073ffffffffffffffffffffffffffffffffffffffff16815260200160008152602001600081526020016000151581525090565b61137191905b8082111561136d576000816000905550600101611355565b5090565b90565b600061138082356117e6565b905092915050565b600082601f830112151561139b57600080fd5b81356113ae6113a982611767565b61173a565b915080825260208301602083018583830111156113ca57600080fd5b6113d5838284611802565b50505092915050565b60006113ea82356117f8565b905092915050565b60008060006060848603121561140757600080fd5b600061141586828701611374565b935050602061142686828701611374565b9250506040611437868287016113de565b9150509250925092565b6000806040838503121561145457600080fd5b600061146285828601611374565b9250506020611473858286016113de565b9150509250929050565b6000806040838503121561149057600080fd5b600083013567ffffffffffffffff8111156114aa57600080fd5b6114b685828601611388565b925050602083013567ffffffffffffffff8111156114d357600080fd5b6114df85828601611388565b9150509250929050565b6000602082840312156114fb57600080fd5b6000611509848285016113de565b91505092915050565b61151b8161179e565b82525050565b61152a816117b0565b82525050565b600061153b82611793565b80845261154f816020860160208601611811565b61155881611844565b602085010191505092915050565b6000600c82527f54697472652072657175697300000000000000000000000000000000000000006020830152604082019050919050565b6000600a82527f43494420726571756973000000000000000000000000000000000000000000006020830152604082019050919050565b6000600e82527f496e64657820696e76616c6964650000000000000000000000000000000000006020830152604082019050919050565b611614816117dc565b82525050565b600060a08201905061162f6000830188611512565b61163c6020830187611512565b611649604083018661160b565b611656606083018561160b565b6116636080830184611521565b9695505050505050565b60006020820190506116826000830184611521565b92915050565b600060408201905081810360008301526116a28185611530565b905081810360208301526116b68184611530565b90509392505050565b600060208201905081810360008301526116d881611566565b9050919050565b600060208201905081810360008301526116f88161159d565b9050919050565b60006020820190508181036000830152611718816115d4565b9050919050565b6000602082019050611734600083018461160b565b92915050565b6000604051905081810181811067ffffffffffffffff8211171561175d57600080fd5b8060405250919050565b600067ffffffffffffffff82111561177e57600080fd5b601f19601f8301169050602081019050919050565b600081519050919050565b60006117a9826117bc565b9050919050565b60008115159050919050565b600073ffffffffffffffffffffffffffffffffffffffff82169050919050565b6000819050919050565b60006117f1826117bc565b9050919050565b6000819050919050565b82818337600083830152505050565b60005b8381101561182f578082015181840152602081019050611814565b8381111561183e576000848401525b50505050565b6000601f19601f830116905091905056fea265627a7a7230582057ecabfd60d117d81f9eabcc896f79295b86c6f50e98843b6bd36082b872817b6c6578706572696d656e74616cf50037",
  "source": "// SPDX-License-Identifier: MIT\r\npragma solidity ^0.5.0;\r\npragma experimental ABIEncoderV2;\r\n\r\ncontract DocumentStore {\r\n    struct Document {\r\n        string cid;\r\n        string title;\r\n    }\r\n\r\n    struct ShareLog {\r\n        address from;\r\n        address to;\r\n        uint docIndex;\r\n        uint timestamp;\r\n        bool revoked;\r\n    }\r\n\r\n    ShareLog[] public shareLogs;\r\n\r\n    mapping(address => Document[]) private userDocuments;\r\n\r\n    event DocumentAdded(address indexed user, string cid, string title);\r\n    event DocumentShared(address indexed from, address indexed to, uint docIndex);\r\n    event AccessRevoked(address indexed from, address indexed to, uint docIndex);\r\n\r\n    // ðŸ“¥ Ajouter un document\r\n    function addDocument(string memory _cid, string memory _title) public {\r\n        require(bytes(_cid).length > 0, \"CID requis\");\r\n        require(bytes(_title).length > 0, \"Titre requis\");\r\n        userDocuments[msg.sender].push(Document(_cid, _title));\r\n        emit DocumentAdded(msg.sender, _cid, _title);\r\n    }\r\n\r\n    // ðŸ“š Voir ses documents\r\n    function getDocumentCount() public view returns (uint) {\r\n        return userDocuments[msg.sender].length;\r\n    }\r\n\r\n    function getDocumentByIndex(uint index) public view returns (string memory cid, string memory title) {\r\n        require(index < userDocuments[msg.sender].length, \"Index invalide\");\r\n        Document memory doc = userDocuments[msg.sender][index];\r\n        return (doc.cid, doc.title);\r\n    }\r\n\r\n    // ðŸ”— Partage simplifiÃ©\r\n    mapping(address => mapping(address => mapping(uint => bool))) public sharedAccess;\r\n\r\n    function shareDocument(address to, uint docIndex) public {\r\n        require(docIndex < userDocuments[msg.sender].length, \"Index invalide\");\r\n        sharedAccess[msg.sender][to][docIndex] = true;\r\n        shareLogs.push(ShareLog(msg.sender, to, docIndex, now, false));\r\n        emit DocumentShared(msg.sender, to, docIndex);\r\n    }\r\n\r\n    function revokeAccess(address to, uint docIndex) public {\r\n        require(docIndex < userDocuments[msg.sender].length, \"Index invalide\");\r\n        sharedAccess[msg.sender][to][docIndex] = false;\r\n        shareLogs.push(ShareLog(msg.sender, to, docIndex, now, true));\r\n        emit AccessRevoked(msg.sender, to, docIndex);\r\n    }\r\n\r\n    // ðŸ” Obtenir tous les logs de partage\r\n    function getShareLogCount() public view returns (uint) {\r\n    return shareLogs.length;\r\n    }\r\n\r\n    function getShareLogByIndex(uint index) public view returns (\r\n        address from,\r\n        address to,\r\n        uint docIndex,\r\n        uint timestamp,\r\n        bool revoked\r\n    ) {\r\n        require(index < shareLogs.length, \"Index invalide\");\r\n        ShareLog memory log = shareLogs[index];\r\n        return (log.from, log.to, log.docIndex, log.timestamp, log.revoked);\r\n    }\r\n\r\n\r\n    function canAccess(address owner, uint docIndex) public view returns (bool) {\r\n        return sharedAccess[owner][msg.sender][docIndex];\r\n    }\r\n\r\n    function getDocumentByIndexFrom(address owner, uint index) public view returns (string memory cid, string memory title) {\r\n        require(index < userDocuments[owner].length, \"Index invalide\");\r\n        Document memory doc = userDocuments[owner][index];\r\n        return (doc.cid, doc.title);\r\n    }\r\n}\r\n",
  "sourcePath": "C:/DIMS-app/decentralized-identity-management/src/contracts/DocumentStore.sol",
  "compiler": {
    "name": "solc",
    "version": "0.5.0+commit.1d4f565a.Emscripten.clang"
  },
  "schemaVersion": "3.0.2",
  "updatedAt": "2025-07-22T04:36:54.487Z",
  "devdoc": {
    "methods": {}
  },
  "userdoc": {
    "methods": {}
  }
}