{
  "contractName": "IdentityManagerWithUpload",
  "abi": [
    {
      "anonymous": false,
      "inputs": [
        {
          "indexed": true,
          "internalType": "address",
          "name": "identity",
          "type": "address"
        },
        {
          "indexed": false,
          "internalType": "bytes32",
          "name": "name",
          "type": "bytes32"
        },
        {
          "indexed": false,
          "internalType": "bytes",
          "name": "value",
          "type": "bytes"
        },
        {
          "indexed": false,
          "internalType": "uint256",
          "name": "validTo",
          "type": "uint256"
        }
      ],
      "name": "DIDAttributeChanged",
      "type": "event"
    },
    {
      "anonymous": false,
      "inputs": [
        {
          "indexed": true,
          "internalType": "address",
          "name": "identity",
          "type": "address"
        },
        {
          "indexed": false,
          "internalType": "bytes32",
          "name": "delegateType",
          "type": "bytes32"
        },
        {
          "indexed": false,
          "internalType": "address",
          "name": "delegate",
          "type": "address"
        },
        {
          "indexed": false,
          "internalType": "uint256",
          "name": "validTo",
          "type": "uint256"
        }
      ],
      "name": "DIDDelegateChanged",
      "type": "event"
    },
    {
      "anonymous": false,
      "inputs": [
        {
          "indexed": true,
          "internalType": "address",
          "name": "identity",
          "type": "address"
        },
        {
          "indexed": false,
          "internalType": "address",
          "name": "newOwner",
          "type": "address"
        }
      ],
      "name": "DIDOwnerChanged",
      "type": "event"
    },
    {
      "inputs": [
        {
          "internalType": "address",
          "name": "",
          "type": "address"
        },
        {
          "internalType": "uint256",
          "name": "",
          "type": "uint256"
        }
      ],
      "name": "accessList",
      "outputs": [
        {
          "internalType": "address",
          "name": "user",
          "type": "address"
        },
        {
          "internalType": "bool",
          "name": "access",
          "type": "bool"
        }
      ],
      "stateMutability": "view",
      "type": "function"
    },
    {
      "inputs": [
        {
          "internalType": "address",
          "name": "",
          "type": "address"
        },
        {
          "internalType": "uint256",
          "name": "",
          "type": "uint256"
        }
      ],
      "name": "documentURLs",
      "outputs": [
        {
          "internalType": "string",
          "name": "",
          "type": "string"
        }
      ],
      "stateMutability": "view",
      "type": "function"
    },
    {
      "inputs": [
        {
          "internalType": "address",
          "name": "",
          "type": "address"
        },
        {
          "internalType": "bytes32",
          "name": "",
          "type": "bytes32"
        }
      ],
      "name": "identityAttributes",
      "outputs": [
        {
          "internalType": "bytes",
          "name": "value",
          "type": "bytes"
        },
        {
          "internalType": "uint256",
          "name": "expires",
          "type": "uint256"
        }
      ],
      "stateMutability": "view",
      "type": "function"
    },
    {
      "inputs": [
        {
          "internalType": "address",
          "name": "",
          "type": "address"
        },
        {
          "internalType": "address",
          "name": "",
          "type": "address"
        },
        {
          "internalType": "bytes32",
          "name": "",
          "type": "bytes32"
        }
      ],
      "name": "identityDelegates",
      "outputs": [
        {
          "internalType": "bytes32",
          "name": "delegateType",
          "type": "bytes32"
        },
        {
          "internalType": "uint256",
          "name": "expires",
          "type": "uint256"
        }
      ],
      "stateMutability": "view",
      "type": "function"
    },
    {
      "inputs": [
        {
          "internalType": "address",
          "name": "",
          "type": "address"
        }
      ],
      "name": "identityOwners",
      "outputs": [
        {
          "internalType": "address",
          "name": "",
          "type": "address"
        }
      ],
      "stateMutability": "view",
      "type": "function"
    },
    {
      "inputs": [
        {
          "internalType": "address",
          "name": "",
          "type": "address"
        },
        {
          "internalType": "address",
          "name": "",
          "type": "address"
        }
      ],
      "name": "ownership",
      "outputs": [
        {
          "internalType": "bool",
          "name": "",
          "type": "bool"
        }
      ],
      "stateMutability": "view",
      "type": "function"
    },
    {
      "inputs": [
        {
          "internalType": "address",
          "name": "",
          "type": "address"
        },
        {
          "internalType": "address",
          "name": "",
          "type": "address"
        }
      ],
      "name": "previousAccessRecords",
      "outputs": [
        {
          "internalType": "bool",
          "name": "",
          "type": "bool"
        }
      ],
      "stateMutability": "view",
      "type": "function"
    },
    {
      "inputs": [
        {
          "internalType": "address",
          "name": "identity",
          "type": "address"
        }
      ],
      "name": "getOwner",
      "outputs": [
        {
          "internalType": "address",
          "name": "",
          "type": "address"
        }
      ],
      "stateMutability": "view",
      "type": "function"
    },
    {
      "inputs": [
        {
          "internalType": "address",
          "name": "identity",
          "type": "address"
        },
        {
          "internalType": "address",
          "name": "newOwner",
          "type": "address"
        }
      ],
      "name": "changeOwner",
      "outputs": [],
      "stateMutability": "nonpayable",
      "type": "function"
    },
    {
      "inputs": [
        {
          "internalType": "address",
          "name": "identity",
          "type": "address"
        },
        {
          "internalType": "bytes32",
          "name": "delegateType",
          "type": "bytes32"
        },
        {
          "internalType": "address",
          "name": "delegate",
          "type": "address"
        },
        {
          "internalType": "uint256",
          "name": "expiresIn",
          "type": "uint256"
        }
      ],
      "name": "addDelegate",
      "outputs": [],
      "stateMutability": "nonpayable",
      "type": "function"
    },
    {
      "inputs": [
        {
          "internalType": "address",
          "name": "identity",
          "type": "address"
        },
        {
          "internalType": "bytes32",
          "name": "delegateType",
          "type": "bytes32"
        },
        {
          "internalType": "address",
          "name": "delegate",
          "type": "address"
        }
      ],
      "name": "revokeDelegate",
      "outputs": [],
      "stateMutability": "nonpayable",
      "type": "function"
    },
    {
      "inputs": [
        {
          "internalType": "address",
          "name": "identity",
          "type": "address"
        },
        {
          "internalType": "bytes32",
          "name": "name",
          "type": "bytes32"
        },
        {
          "internalType": "bytes",
          "name": "attributeValue",
          "type": "bytes"
        },
        {
          "internalType": "uint256",
          "name": "expiresIn",
          "type": "uint256"
        }
      ],
      "name": "setAttribute",
      "outputs": [],
      "stateMutability": "nonpayable",
      "type": "function"
    },
    {
      "inputs": [
        {
          "internalType": "address",
          "name": "identity",
          "type": "address"
        },
        {
          "internalType": "bytes32",
          "name": "name",
          "type": "bytes32"
        },
        {
          "internalType": "bytes",
          "name": "attributeValue",
          "type": "bytes"
        }
      ],
      "name": "revokeAttribute",
      "outputs": [],
      "stateMutability": "nonpayable",
      "type": "function"
    },
    {
      "inputs": [
        {
          "internalType": "address",
          "name": "user",
          "type": "address"
        },
        {
          "internalType": "string",
          "name": "url",
          "type": "string"
        }
      ],
      "name": "addDocument",
      "outputs": [],
      "stateMutability": "nonpayable",
      "type": "function"
    },
    {
      "inputs": [
        {
          "internalType": "address",
          "name": "user",
          "type": "address"
        }
      ],
      "name": "allowAccess",
      "outputs": [],
      "stateMutability": "nonpayable",
      "type": "function"
    },
    {
      "inputs": [
        {
          "internalType": "address",
          "name": "user",
          "type": "address"
        }
      ],
      "name": "disallowAccess",
      "outputs": [],
      "stateMutability": "nonpayable",
      "type": "function"
    },
    {
      "inputs": [
        {
          "internalType": "address",
          "name": "user",
          "type": "address"
        }
      ],
      "name": "displayDocuments",
      "outputs": [
        {
          "internalType": "string[]",
          "name": "",
          "type": "string[]"
        }
      ],
      "stateMutability": "view",
      "type": "function"
    },
    {
      "inputs": [],
      "name": "shareAccess",
      "outputs": [
        {
          "components": [
            {
              "internalType": "address",
              "name": "user",
              "type": "address"
            },
            {
              "internalType": "bool",
              "name": "access",
              "type": "bool"
            }
          ],
          "internalType": "struct IdentityManagerWithUpload.Access[]",
          "name": "",
          "type": "tuple[]"
        }
      ],
      "stateMutability": "view",
      "type": "function"
    },
    {
      "inputs": [
        {
          "internalType": "address",
          "name": "identity",
          "type": "address"
        },
        {
          "internalType": "address",
          "name": "newOwner",
          "type": "address"
        }
      ],
      "name": "createChangeOwnerHash",
      "outputs": [
        {
          "internalType": "bytes32",
          "name": "",
          "type": "bytes32"
        }
      ],
      "stateMutability": "pure",
      "type": "function"
    },
    {
      "inputs": [
        {
          "internalType": "address",
          "name": "identity",
          "type": "address"
        },
        {
          "internalType": "bytes32",
          "name": "delegateType",
          "type": "bytes32"
        },
        {
          "internalType": "address",
          "name": "delegate",
          "type": "address"
        },
        {
          "internalType": "uint256",
          "name": "expiresIn",
          "type": "uint256"
        }
      ],
      "name": "createAddDelegateHash",
      "outputs": [
        {
          "internalType": "bytes32",
          "name": "",
          "type": "bytes32"
        }
      ],
      "stateMutability": "pure",
      "type": "function"
    },
    {
      "inputs": [
        {
          "internalType": "address",
          "name": "identity",
          "type": "address"
        },
        {
          "internalType": "bytes32",
          "name": "delegateType",
          "type": "bytes32"
        },
        {
          "internalType": "address",
          "name": "delegate",
          "type": "address"
        }
      ],
      "name": "createRevokeDelegateHash",
      "outputs": [
        {
          "internalType": "bytes32",
          "name": "",
          "type": "bytes32"
        }
      ],
      "stateMutability": "pure",
      "type": "function"
    },
    {
      "inputs": [
        {
          "internalType": "address",
          "name": "identity",
          "type": "address"
        },
        {
          "internalType": "bytes32",
          "name": "name",
          "type": "bytes32"
        },
        {
          "internalType": "bytes",
          "name": "attributeValue",
          "type": "bytes"
        },
        {
          "internalType": "uint256",
          "name": "expiresIn",
          "type": "uint256"
        }
      ],
      "name": "createSetAttributeHash",
      "outputs": [
        {
          "internalType": "bytes32",
          "name": "",
          "type": "bytes32"
        }
      ],
      "stateMutability": "pure",
      "type": "function"
    },
    {
      "inputs": [
        {
          "internalType": "address",
          "name": "identity",
          "type": "address"
        },
        {
          "internalType": "bytes32",
          "name": "name",
          "type": "bytes32"
        },
        {
          "internalType": "bytes",
          "name": "attributeValue",
          "type": "bytes"
        }
      ],
      "name": "createRevokeAttributeHash",
      "outputs": [
        {
          "internalType": "bytes32",
          "name": "",
          "type": "bytes32"
        }
      ],
      "stateMutability": "pure",
      "type": "function"
    },
    {
      "inputs": [],
      "name": "getChainId",
      "outputs": [
        {
          "internalType": "uint256",
          "name": "",
          "type": "uint256"
        }
      ],
      "stateMutability": "view",
      "type": "function"
    }
  ],
  "bytecode": "0x6080604052348015600f57600080fd5b506117c18061001f6000396000f3fe608060405234801561001057600080fd5b50600436106101575760003560e01c8063974fe591116100c3578063c31e49971161007c578063c31e49971461039e578063c4a85bc1146103b1578063d0cb1519146103c4578063f00d4b5d146103e4578063fa544161146103f7578063fbc61c4a1461040a57600080fd5b8063974fe591146102d75780639c2764d814610305578063a7068d6614610350578063a8d115b014610363578063b4449c3014610376578063bc8bef811461038957600080fd5b806370c2b4191161011557806370c2b419146101e05780637ad4b0a4146102125780637de0fa551461022557806380b29f7c14610245578063852976e41461025857806396ceead31461029957600080fd5b8062c023da1461015c5780633408e470146101715780634e39a72a1461018657806351a7bac2146101a757806365668764146101ba57806367e4f1bf146101cd575b600080fd5b61016f61016a36600461114b565b61041d565b005b465b6040519081526020015b60405180910390f35b6101996101943660046111a2565b610505565b60405161017d92919061121c565b6101736101b536600461123e565b6105b4565b61016f6101c836600461129d565b6105ed565b6101736101db3660046112ff565b61068f565b6101f36101ee3660046111a2565b6106f4565b604080516001600160a01b03909316835290151560208301520161017d565b61016f61022036600461123e565b610737565b61023861023336600461133b565b61084a565b60405161017d9190611356565b61016f6102533660046112ff565b6109b4565b61028161026636600461133b565b6000602081905290815260409020546001600160a01b031681565b6040516001600160a01b03909116815260200161017d565b6102c76102a73660046113bb565b600660209081526000928352604080842090915290825290205460ff1681565b604051901515815260200161017d565b6102c76102e53660046113bb565b600460209081526000928352604080842090915290825290205460ff1681565b61033b6103133660046113ee565b6001602081815260009485526040808620825293855283852090529083529120805491015482565b6040805192835260208301919091520161017d565b61016f61035e36600461142b565b610a60565b6101736103713660046113bb565b610b34565b61016f61038436600461133b565b610b8e565b610391610c6b565b60405161017d919061146f565b6101736103ac36600461114b565b610cee565b61016f6103bf36600461133b565b610d05565b6103d76103d23660046111a2565b610e8b565b60405161017d91906114c9565b61016f6103f23660046113bb565b610f44565b61028161040536600461133b565b610fe4565b61017361041836600461142b565b61102a565b8261042781610fe4565b6001600160a01b0316336001600160a01b0316146104605760405162461bcd60e51b8152600401610457906114dc565b60405180910390fd5b6001600160a01b038416600090815260026020908152604080832090514293919261048f91889188910161150c565b60405160208183030381529060405280519060200120815260200190815260200160002060010181905550836001600160a01b03167f3c245a8c1b6b130ac5da86703bf855a1d9657013c1d88239123bbfb25f5252e38484426040516104f793929190611532565b60405180910390a250505050565b600260209081526000928352604080842090915290825290208054819061052b9061155b565b80601f01602080910402602001604051908101604052809291908181526020018280546105579061155b565b80156105a45780601f10610579576101008083540402835291602001916105a4565b820191906000526020600020905b81548152906001019060200180831161058757829003601f168201915b5050505050908060010154905082565b6000848484846040516020016105cd9493929190611595565b604051602081830303815290604052805190602001209050949350505050565b336001600160a01b038316146106585760405162461bcd60e51b815260206004820152602a60248201527f596f752063616e206f6e6c792075706c6f616420646f63756d656e747320666f60448201526939103cb7bab939b2b63360b11b6064820152608401610457565b6001600160a01b03821660009081526003602090815260408220805460018101825590835291200161068a828261163e565b505050565b6040516d7265766f6b6544656c656761746560901b60208201526001600160601b0319606085811b8216602e8401526042830185905283901b1660628201526000906076015b6040516020818303038152906040528051906020012090509392505050565b6005602052816000526040600020818154811061071057600080fd5b6000918252602090912001546001600160a01b0381169250600160a01b900460ff16905082565b8361074181610fe4565b6001600160a01b0316336001600160a01b0316146107715760405162461bcd60e51b8152600401610457906114dc565b600061077d83426116fd565b60408051808201825286815260208082018490526001600160a01b038a16600090815260028252838120935194955091936107bc918a918a910161150c565b60408051601f19818403018152918152815160209283012083529082019290925201600020815181906107ef908261163e565b5060208201518160010155905050856001600160a01b03167f3c245a8c1b6b130ac5da86703bf855a1d9657013c1d88239123bbfb25f5252e386868460405161083a93929190611532565b60405180910390a2505050505050565b60606001600160a01b03821633148061088657506001600160a01b038216600090815260046020908152604080832033845290915290205460ff165b6108ca5760405162461bcd60e51b8152602060048201526015602482015274596f7520646f6e277420686176652061636365737360581b6044820152606401610457565b6001600160a01b038216600090815260036020908152604080832080548251818502810185019093528083529193909284015b828210156109a957838290600052602060002001805461091c9061155b565b80601f01602080910402602001604051908101604052809291908181526020018280546109489061155b565b80156109955780601f1061096a57610100808354040283529160200191610995565b820191906000526020600020905b81548152906001019060200180831161097857829003601f168201915b5050505050815260200190600101906108fd565b505050509050919050565b826109be81610fe4565b6001600160a01b0316336001600160a01b0316146109ee5760405162461bcd60e51b8152600401610457906114dc565b6001600160a01b03848116600081815260016020818152604080842095881680855295825280842089855282529283902042920182905582518881529081019490945290830152907fca4b351e0fc5a646ec7f99026c19fbc183d6d851946cdb5831f0c15fbec3ec1d906060016104f7565b83610a6a81610fe4565b6001600160a01b0316336001600160a01b031614610a9a5760405162461bcd60e51b8152600401610457906114dc565b6000610aa683426116fd565b60408051808201825287815260208082018481526001600160a01b038b811660008181526001808652878220938d168083529386528782208e8352865290879020955186559251949092019390935583518a8152918201929092529182018390529192507fca4b351e0fc5a646ec7f99026c19fbc183d6d851946cdb5831f0c15fbec3ec1d9060600161083a565b6040516a31b430b733b2a7bbb732b960a91b60208201526001600160601b0319606084811b8216602b84015283901b16603f8201526000906053016040516020818303038152906040528051906020012090505b92915050565b3360009081526004602090815260408083206001600160a01b03851684529091528120805460ff191690555b33600090815260056020526040902054811015610c675733600090815260056020526040902080546001600160a01b038416919083908110610bfe57610bfe61171e565b6000918252602090912001546001600160a01b031603610c5f57336000908152600560205260408120805483908110610c3957610c3961171e565b60009182526020909120018054911515600160a01b0260ff60a01b199092169190911790555b600101610bba565b5050565b336000908152600560209081526040808320805482518185028101850190935280835260609492939192909184015b82821015610ce557600084815260209081902060408051808201909152908401546001600160a01b0381168252600160a01b900460ff16151581830152825260019092019101610c9a565b50505050905090565b60008383836040516020016106d593929190611734565b3360008181526004602090815260408083206001600160a01b038616808552908352818420805460ff1916600117905593835260068252808320938352929052205460ff1615610e035760005b33600090815260056020526040902054811015610c675733600090815260056020526040902080546001600160a01b038416919083908110610d9657610d9661171e565b6000918252602090912001546001600160a01b031603610dfb5733600090815260056020526040902080546001919083908110610dd557610dd561171e565b60009182526020909120018054911515600160a01b0260ff60a01b199092169190911790555b600101610d52565b336000818152600560209081526040808320815180830183526001600160a01b03878116808352600183870181815285548083018755958952878920945194909501805495511515600160a01b026001600160a81b03199096169490931693909317939093179055948452600683528184209084529091529020805460ff1916909117905550565b60036020528160005260406000208181548110610ea757600080fd5b90600052602060002001600091509150508054610ec39061155b565b80601f0160208091040260200160405190810160405280929190818152602001828054610eef9061155b565b8015610f3c5780601f10610f1157610100808354040283529160200191610f3c565b820191906000526020600020905b815481529060010190602001808311610f1f57829003601f168201915b505050505081565b81610f4e81610fe4565b6001600160a01b0316336001600160a01b031614610f7e5760405162461bcd60e51b8152600401610457906114dc565b6001600160a01b038381166000818152602081815260409182902080546001600160a01b0319169487169485179055905192835290917f9071b3f486383ebd5972712e0a90e1012d2f68a61306af305f8bdc974debde87910160405180910390a2505050565b6001600160a01b0381811660009081526020819052604081205490911615611026576001600160a01b0380831660009081526020819052604090205416610b88565b5090565b6040516a61646444656c656761746560a81b60208201526001600160601b0319606086811b8216602b840152603f830186905284901b16605f820152607381018290526000906093016105cd565b80356001600160a01b038116811461108f57600080fd5b919050565b634e487b7160e01b600052604160045260246000fd5b60008067ffffffffffffffff8411156110c5576110c5611094565b50604051601f19601f85018116603f0116810181811067ffffffffffffffff821117156110f4576110f4611094565b60405283815290508082840185101561110c57600080fd5b83836020830137600060208583010152509392505050565b600082601f83011261113557600080fd5b611144838335602085016110aa565b9392505050565b60008060006060848603121561116057600080fd5b61116984611078565b925060208401359150604084013567ffffffffffffffff81111561118c57600080fd5b61119886828701611124565b9150509250925092565b600080604083850312156111b557600080fd5b6111be83611078565b946020939093013593505050565b60005b838110156111e75781810151838201526020016111cf565b50506000910152565b600081518084526112088160208601602086016111cc565b601f01601f19169290920160200192915050565b60408152600061122f60408301856111f0565b90508260208301529392505050565b6000806000806080858703121561125457600080fd5b61125d85611078565b935060208501359250604085013567ffffffffffffffff81111561128057600080fd5b61128c87828801611124565b949793965093946060013593505050565b600080604083850312156112b057600080fd5b6112b983611078565b9150602083013567ffffffffffffffff8111156112d557600080fd5b8301601f810185136112e657600080fd5b6112f5858235602084016110aa565b9150509250929050565b60008060006060848603121561131457600080fd5b61131d84611078565b92506020840135915061133260408501611078565b90509250925092565b60006020828403121561134d57600080fd5b61114482611078565b6000602082016020835280845180835260408501915060408160051b86010192506020860160005b828110156113af57603f1987860301845261139a8583516111f0565b9450602093840193919091019060010161137e565b50929695505050505050565b600080604083850312156113ce57600080fd5b6113d783611078565b91506113e560208401611078565b90509250929050565b60008060006060848603121561140357600080fd5b61140c84611078565b925061141a60208501611078565b929592945050506040919091013590565b6000806000806080858703121561144157600080fd5b61144a85611078565b93506020850135925061145f60408601611078565b9396929550929360600135925050565b602080825282518282018190526000918401906040840190835b818110156114be57835180516001600160a01b0316845260209081015115158185015290930192604090920191600101611489565b509095945050505050565b60208152600061114460208301846111f0565b6020808252601690820152752737ba103a34329034b232b73a34ba3c9037bbb732b960511b604082015260600190565b828152600082516115248160208501602087016111cc565b919091016020019392505050565b83815260606020820152600061154b60608301856111f0565b9050826040830152949350505050565b600181811c9082168061156f57607f821691505b60208210810361158f57634e487b7160e01b600052602260045260246000fd5b50919050565b6b73657441747472696275746560a01b81526bffffffffffffffffffffffff198560601b16600c820152836020820152600083516115da8160408501602088016111cc565b6040920191820192909252606001949350505050565b601f82111561068a57806000526020600020601f840160051c810160208510156116175750805b601f840160051c820191505b818110156116375760008155600101611623565b5050505050565b815167ffffffffffffffff81111561165857611658611094565b61166c81611666845461155b565b846115f0565b6020601f8211600181146116a057600083156116885750848201515b600019600385901b1c1916600184901b178455611637565b600084815260208120601f198516915b828110156116d057878501518255602094850194600190920191016116b0565b50848210156116ee5786840151600019600387901b60f8161c191681555b50505050600190811b01905550565b80820180821115610b8857634e487b7160e01b600052601160045260246000fd5b634e487b7160e01b600052603260045260246000fd5b6e7265766f6b6541747472696275746560881b81526bffffffffffffffffffffffff198460601b16600f8201528260238201526000825161177c8160438501602087016111cc565b9190910160430194935050505056fea2646970667358221220cd6f35b869438bf26442a5f16dd0feebedff9845b9114ba84abca97ecfafbdaf64736f6c634300081d0033",
  "immutableReferences": {},
  "source": "// SPDX-License-Identifier: MIT\r\npragma solidity ^0.8.20;\r\n\r\ncontract IdentityManagerWithUpload {\r\n\r\n    // Enum for different types of delegates\r\n    enum DelegateType { veriKey, sigAuth, enc }\r\n\r\n    // Struct to represent a Delegate with its type and expiration date\r\n    struct Delegate {\r\n        bytes32 delegateType;\r\n        uint256 expires;\r\n    }\r\n\r\n    // Struct for storing an Attribute (e.g., email, phone number) and its expiration date\r\n    struct Attribute {\r\n        bytes value;\r\n        uint256 expires;\r\n    }\r\n\r\n    // Struct to track the access status of users to a specific document\r\n    struct Access {\r\n        address user; \r\n        bool access; // true if access is granted, false otherwise\r\n    }\r\n\r\n    // Mappings to manage different aspects of identity, documents, and access control\r\n    mapping(address => address) public identityOwners; // Maps an identity to its owner\r\n    mapping(address => mapping(address => mapping(bytes32 => Delegate))) public identityDelegates; // Maps identity to delegates\r\n    mapping(address => mapping(bytes32 => Attribute)) public identityAttributes; // Maps identity to its attributes\r\n    mapping(address => string[]) public documentURLs; // Maps a user to an array of document URLs\r\n    mapping(address => mapping(address => bool)) public ownership; // Tracks document ownership between users\r\n    mapping(address => Access[]) public accessList; // List of users with access to a user's documents\r\n    mapping(address => mapping(address => bool)) public previousAccessRecords; // Tracks previous access for each user\r\n\r\n    // Events to log changes to ownership, delegates, and attributes\r\n    event DIDOwnerChanged(address indexed identity, address newOwner);\r\n    event DIDDelegateChanged(address indexed identity, bytes32 delegateType, address delegate, uint256 validTo);\r\n    event DIDAttributeChanged(address indexed identity, bytes32 name, bytes value, uint256 validTo);\r\n\r\n    // Modifier to restrict functions to only the identity owner\r\n    modifier onlyOwner(address identity) {\r\n        require(msg.sender == getOwner(identity), \"Not the identity owner\");\r\n        _;\r\n    }\r\n\r\n    // Function to retrieve the current owner of an identity\r\n    function getOwner(address identity) public view returns (address) {\r\n        return identityOwners[identity] == address(0) ? identity : identityOwners[identity];\r\n    }\r\n\r\n    // Function to transfer ownership of an identity (only accessible by the current owner)\r\n    function changeOwner(address identity, address newOwner) external onlyOwner(identity) {\r\n        identityOwners[identity] = newOwner;\r\n        emit DIDOwnerChanged(identity, newOwner);\r\n    }\r\n\r\n    // Function to add a delegate to an identity (only accessible by the owner)\r\n    function addDelegate(address identity, bytes32 delegateType, address delegate, uint256 expiresIn) external onlyOwner(identity) {\r\n        uint256 validTo = block.timestamp + expiresIn;\r\n        identityDelegates[identity][delegate][delegateType] = Delegate(delegateType, validTo);\r\n        emit DIDDelegateChanged(identity, delegateType, delegate, validTo);\r\n    }\r\n\r\n    // Function to revoke a delegate's access to an identity (only accessible by the owner)\r\n    function revokeDelegate(address identity, bytes32 delegateType, address delegate) external onlyOwner(identity) {\r\n        identityDelegates[identity][delegate][delegateType].expires = block.timestamp;\r\n        emit DIDDelegateChanged(identity, delegateType, delegate, block.timestamp);\r\n    }\r\n\r\n    // Function to set an attribute for an identity (only accessible by the owner)\r\n    function setAttribute(address identity, bytes32 name, bytes memory attributeValue, uint256 expiresIn) external onlyOwner(identity) {\r\n        uint256 validTo = block.timestamp + expiresIn;\r\n        identityAttributes[identity][keccak256(abi.encodePacked(name, attributeValue))] = Attribute(attributeValue, validTo);\r\n        emit DIDAttributeChanged(identity, name, attributeValue, validTo);\r\n    }\r\n\r\n    // Function to revoke an attribute from an identity (only accessible by the owner)\r\n    function revokeAttribute(address identity, bytes32 name, bytes memory attributeValue) external onlyOwner(identity) {\r\n        identityAttributes[identity][keccak256(abi.encodePacked(name, attributeValue))].expires = block.timestamp;\r\n        emit DIDAttributeChanged(identity, name, attributeValue, block.timestamp);\r\n    }\r\n\r\n    // Function to add a document URL to a user's document collection\r\n    function addDocument(address user, string memory url) external {\r\n    require(msg.sender == user, \"You can only upload documents for yourself\");\r\n    documentURLs[user].push(url);\r\n    }\r\n\r\n\r\n    // Function to grant access to documents for a specific user\r\n    function allowAccess(address user) external {\r\n        ownership[msg.sender][user] = true; // Grant access to the user's documents\r\n        if (previousAccessRecords[msg.sender][user]) {\r\n            // If the user had previous access, update their access status\r\n            for (uint i = 0; i < accessList[msg.sender].length; i++) {\r\n                if (accessList[msg.sender][i].user == user) {\r\n                    accessList[msg.sender][i].access = true;\r\n                }\r\n            }\r\n        } else {\r\n            // If the user had no previous access, add them to the access list\r\n            accessList[msg.sender].push(Access(user, true));\r\n            previousAccessRecords[msg.sender][user] = true;\r\n        }\r\n    }\r\n\r\n    // Function to revoke access to documents for a specific user\r\n    function disallowAccess(address user) external {\r\n        ownership[msg.sender][user] = false; // Revoke access to the user's documents\r\n        for (uint i = 0; i < accessList[msg.sender].length; i++) {\r\n            if (accessList[msg.sender][i].user == user) {\r\n                accessList[msg.sender][i].access = false; // Remove access for the user\r\n            }\r\n        }\r\n    }\r\n\r\n    // Function to display the documents owned by a specific user (with access control)\r\n    function displayDocuments(address user) external view returns (string[] memory) {\r\n        require(user == msg.sender || ownership[user][msg.sender], \"You don't have access\");\r\n        return documentURLs[user];\r\n    }\r\n\r\n    // Function to get the list of users who have access to the calling user's documents\r\n    function shareAccess() external view returns (Access[] memory) {\r\n        return accessList[msg.sender];\r\n    }\r\n\r\n    // Helper functions to generate hashes for various operations (for off-chain validation)\r\n    function createChangeOwnerHash(address identity, address newOwner) public pure returns (bytes32) {\r\n        return keccak256(abi.encodePacked(\"changeOwner\", identity, newOwner));\r\n    }\r\n\r\n    function createAddDelegateHash(address identity, bytes32 delegateType, address delegate, uint256 expiresIn) public pure returns (bytes32) {\r\n        return keccak256(abi.encodePacked(\"addDelegate\", identity, delegateType, delegate, expiresIn));\r\n    }\r\n\r\n    function createRevokeDelegateHash(address identity, bytes32 delegateType, address delegate) public pure returns (bytes32) {\r\n        return keccak256(abi.encodePacked(\"revokeDelegate\", identity, delegateType, delegate));\r\n    }\r\n\r\n    function createSetAttributeHash(address identity, bytes32 name, bytes memory attributeValue, uint256 expiresIn) public pure returns (bytes32) {\r\n        return keccak256(abi.encodePacked(\"setAttribute\", identity, name, attributeValue, expiresIn));\r\n    }\r\n\r\n    function createRevokeAttributeHash(address identity, bytes32 name, bytes memory attributeValue) public pure returns (bytes32) {\r\n        return keccak256(abi.encodePacked(\"revokeAttribute\", identity, name, attributeValue));\r\n    }\r\n\r\n    // Function to get the chain ID (useful for identifying the network the contract is deployed on)\r\n    function getChainId() external view returns (uint256) {\r\n        return block.chainid;\r\n    }\r\n}\r\n",
  "sourcePath": "C:\\DIMS-app\\decentralized-identity-management\\smart-contracts\\contracts\\IdentityManager.sol",
  "compiler": {
    "name": "solc",
    "version": "0.8.29+commit.ab55807c.Emscripten.clang"
  },
  "schemaVersion": "3.4.16",
  "updatedAt": "2025-03-29T17:36:06.474Z",
  "devdoc": {
    "kind": "dev",
    "methods": {},
    "version": 1
  },
  "userdoc": {
    "kind": "user",
    "methods": {},
    "version": 1
  }
}