{
  "contractName": "IdentityManager",
  "abi": [
    {
      "anonymous": false,
      "inputs": [
        {
          "indexed": true,
          "internalType": "address",
          "name": "identity",
          "type": "address"
        },
        {
          "indexed": false,
          "internalType": "bytes32",
          "name": "name",
          "type": "bytes32"
        },
        {
          "indexed": false,
          "internalType": "bytes",
          "name": "value",
          "type": "bytes"
        },
        {
          "indexed": false,
          "internalType": "uint256",
          "name": "validTo",
          "type": "uint256"
        }
      ],
      "name": "DIDAttributeChanged",
      "type": "event"
    },
    {
      "anonymous": false,
      "inputs": [
        {
          "indexed": true,
          "internalType": "address",
          "name": "identity",
          "type": "address"
        },
        {
          "indexed": false,
          "internalType": "bytes32",
          "name": "delegateType",
          "type": "bytes32"
        },
        {
          "indexed": false,
          "internalType": "address",
          "name": "delegate",
          "type": "address"
        },
        {
          "indexed": false,
          "internalType": "uint256",
          "name": "validTo",
          "type": "uint256"
        }
      ],
      "name": "DIDDelegateChanged",
      "type": "event"
    },
    {
      "anonymous": false,
      "inputs": [
        {
          "indexed": true,
          "internalType": "address",
          "name": "identity",
          "type": "address"
        },
        {
          "indexed": false,
          "internalType": "address",
          "name": "owner",
          "type": "address"
        }
      ],
      "name": "DIDOwnerChanged",
      "type": "event"
    },
    {
      "inputs": [
        {
          "internalType": "address",
          "name": "",
          "type": "address"
        },
        {
          "internalType": "bytes32",
          "name": "",
          "type": "bytes32"
        }
      ],
      "name": "attributes",
      "outputs": [
        {
          "internalType": "bytes",
          "name": "value",
          "type": "bytes"
        },
        {
          "internalType": "uint256",
          "name": "expires",
          "type": "uint256"
        }
      ],
      "stateMutability": "view",
      "type": "function",
      "constant": true
    },
    {
      "inputs": [
        {
          "internalType": "address",
          "name": "",
          "type": "address"
        },
        {
          "internalType": "address",
          "name": "",
          "type": "address"
        },
        {
          "internalType": "bytes32",
          "name": "",
          "type": "bytes32"
        }
      ],
      "name": "delegates",
      "outputs": [
        {
          "internalType": "bytes32",
          "name": "delegateType",
          "type": "bytes32"
        },
        {
          "internalType": "uint256",
          "name": "expires",
          "type": "uint256"
        }
      ],
      "stateMutability": "view",
      "type": "function",
      "constant": true
    },
    {
      "inputs": [
        {
          "internalType": "address",
          "name": "",
          "type": "address"
        }
      ],
      "name": "owners",
      "outputs": [
        {
          "internalType": "address",
          "name": "",
          "type": "address"
        }
      ],
      "stateMutability": "view",
      "type": "function",
      "constant": true
    },
    {
      "inputs": [
        {
          "internalType": "address",
          "name": "identity",
          "type": "address"
        }
      ],
      "name": "getOwner",
      "outputs": [
        {
          "internalType": "address",
          "name": "",
          "type": "address"
        }
      ],
      "stateMutability": "view",
      "type": "function",
      "constant": true
    },
    {
      "inputs": [
        {
          "internalType": "address",
          "name": "identity",
          "type": "address"
        },
        {
          "internalType": "address",
          "name": "newOwner",
          "type": "address"
        }
      ],
      "name": "changeOwner",
      "outputs": [],
      "stateMutability": "nonpayable",
      "type": "function"
    },
    {
      "inputs": [
        {
          "internalType": "address",
          "name": "identity",
          "type": "address"
        },
        {
          "internalType": "address",
          "name": "newOwner",
          "type": "address"
        },
        {
          "internalType": "uint8",
          "name": "v",
          "type": "uint8"
        },
        {
          "internalType": "bytes32",
          "name": "r",
          "type": "bytes32"
        },
        {
          "internalType": "bytes32",
          "name": "s",
          "type": "bytes32"
        }
      ],
      "name": "changeOwnerSigned",
      "outputs": [],
      "stateMutability": "nonpayable",
      "type": "function"
    },
    {
      "inputs": [
        {
          "internalType": "address",
          "name": "identity",
          "type": "address"
        },
        {
          "internalType": "bytes32",
          "name": "delegateType",
          "type": "bytes32"
        },
        {
          "internalType": "address",
          "name": "delegate",
          "type": "address"
        },
        {
          "internalType": "uint256",
          "name": "expiresIn",
          "type": "uint256"
        }
      ],
      "name": "addDelegate",
      "outputs": [],
      "stateMutability": "nonpayable",
      "type": "function"
    },
    {
      "inputs": [
        {
          "internalType": "address",
          "name": "identity",
          "type": "address"
        },
        {
          "internalType": "bytes32",
          "name": "delegateType",
          "type": "bytes32"
        },
        {
          "internalType": "address",
          "name": "delegate",
          "type": "address"
        },
        {
          "internalType": "uint256",
          "name": "expiresIn",
          "type": "uint256"
        },
        {
          "internalType": "uint8",
          "name": "v",
          "type": "uint8"
        },
        {
          "internalType": "bytes32",
          "name": "r",
          "type": "bytes32"
        },
        {
          "internalType": "bytes32",
          "name": "s",
          "type": "bytes32"
        }
      ],
      "name": "addDelegateSigned",
      "outputs": [],
      "stateMutability": "nonpayable",
      "type": "function"
    },
    {
      "inputs": [
        {
          "internalType": "address",
          "name": "identity",
          "type": "address"
        },
        {
          "internalType": "bytes32",
          "name": "delegateType",
          "type": "bytes32"
        },
        {
          "internalType": "address",
          "name": "delegate",
          "type": "address"
        }
      ],
      "name": "revokeDelegate",
      "outputs": [],
      "stateMutability": "nonpayable",
      "type": "function"
    },
    {
      "inputs": [
        {
          "internalType": "address",
          "name": "identity",
          "type": "address"
        },
        {
          "internalType": "bytes32",
          "name": "delegateType",
          "type": "bytes32"
        },
        {
          "internalType": "address",
          "name": "delegate",
          "type": "address"
        },
        {
          "internalType": "uint8",
          "name": "v",
          "type": "uint8"
        },
        {
          "internalType": "bytes32",
          "name": "r",
          "type": "bytes32"
        },
        {
          "internalType": "bytes32",
          "name": "s",
          "type": "bytes32"
        }
      ],
      "name": "revokeDelegateSigned",
      "outputs": [],
      "stateMutability": "nonpayable",
      "type": "function"
    },
    {
      "inputs": [
        {
          "internalType": "address",
          "name": "identity",
          "type": "address"
        },
        {
          "internalType": "bytes32",
          "name": "name",
          "type": "bytes32"
        },
        {
          "internalType": "bytes",
          "name": "value",
          "type": "bytes"
        },
        {
          "internalType": "uint256",
          "name": "expiresIn",
          "type": "uint256"
        }
      ],
      "name": "setAttribute",
      "outputs": [],
      "stateMutability": "nonpayable",
      "type": "function"
    },
    {
      "inputs": [
        {
          "internalType": "address",
          "name": "identity",
          "type": "address"
        },
        {
          "internalType": "bytes32",
          "name": "name",
          "type": "bytes32"
        },
        {
          "internalType": "bytes",
          "name": "value",
          "type": "bytes"
        },
        {
          "internalType": "uint256",
          "name": "expiresIn",
          "type": "uint256"
        },
        {
          "internalType": "uint8",
          "name": "v",
          "type": "uint8"
        },
        {
          "internalType": "bytes32",
          "name": "r",
          "type": "bytes32"
        },
        {
          "internalType": "bytes32",
          "name": "s",
          "type": "bytes32"
        }
      ],
      "name": "setAttributeSigned",
      "outputs": [],
      "stateMutability": "nonpayable",
      "type": "function"
    },
    {
      "inputs": [
        {
          "internalType": "address",
          "name": "identity",
          "type": "address"
        },
        {
          "internalType": "bytes32",
          "name": "name",
          "type": "bytes32"
        },
        {
          "internalType": "bytes",
          "name": "value",
          "type": "bytes"
        }
      ],
      "name": "revokeAttribute",
      "outputs": [],
      "stateMutability": "nonpayable",
      "type": "function"
    },
    {
      "inputs": [
        {
          "internalType": "address",
          "name": "identity",
          "type": "address"
        },
        {
          "internalType": "bytes32",
          "name": "name",
          "type": "bytes32"
        },
        {
          "internalType": "bytes",
          "name": "value",
          "type": "bytes"
        },
        {
          "internalType": "uint8",
          "name": "v",
          "type": "uint8"
        },
        {
          "internalType": "bytes32",
          "name": "r",
          "type": "bytes32"
        },
        {
          "internalType": "bytes32",
          "name": "s",
          "type": "bytes32"
        }
      ],
      "name": "revokeAttributeSigned",
      "outputs": [],
      "stateMutability": "nonpayable",
      "type": "function"
    },
    {
      "inputs": [
        {
          "internalType": "address",
          "name": "identity",
          "type": "address"
        },
        {
          "internalType": "address",
          "name": "newOwner",
          "type": "address"
        }
      ],
      "name": "createChangeOwnerHash",
      "outputs": [
        {
          "internalType": "bytes32",
          "name": "",
          "type": "bytes32"
        }
      ],
      "stateMutability": "pure",
      "type": "function",
      "constant": true
    },
    {
      "inputs": [
        {
          "internalType": "address",
          "name": "identity",
          "type": "address"
        },
        {
          "internalType": "bytes32",
          "name": "delegateType",
          "type": "bytes32"
        },
        {
          "internalType": "address",
          "name": "delegate",
          "type": "address"
        },
        {
          "internalType": "uint256",
          "name": "expiresIn",
          "type": "uint256"
        }
      ],
      "name": "createAddDelegateHash",
      "outputs": [
        {
          "internalType": "bytes32",
          "name": "",
          "type": "bytes32"
        }
      ],
      "stateMutability": "pure",
      "type": "function",
      "constant": true
    },
    {
      "inputs": [
        {
          "internalType": "address",
          "name": "identity",
          "type": "address"
        },
        {
          "internalType": "bytes32",
          "name": "delegateType",
          "type": "bytes32"
        },
        {
          "internalType": "address",
          "name": "delegate",
          "type": "address"
        }
      ],
      "name": "createRevokeDelegateHash",
      "outputs": [
        {
          "internalType": "bytes32",
          "name": "",
          "type": "bytes32"
        }
      ],
      "stateMutability": "pure",
      "type": "function",
      "constant": true
    },
    {
      "inputs": [
        {
          "internalType": "address",
          "name": "identity",
          "type": "address"
        },
        {
          "internalType": "bytes32",
          "name": "name",
          "type": "bytes32"
        },
        {
          "internalType": "bytes",
          "name": "value",
          "type": "bytes"
        },
        {
          "internalType": "uint256",
          "name": "expiresIn",
          "type": "uint256"
        }
      ],
      "name": "createSetAttributeHash",
      "outputs": [
        {
          "internalType": "bytes32",
          "name": "",
          "type": "bytes32"
        }
      ],
      "stateMutability": "pure",
      "type": "function",
      "constant": true
    },
    {
      "inputs": [
        {
          "internalType": "address",
          "name": "identity",
          "type": "address"
        },
        {
          "internalType": "bytes32",
          "name": "name",
          "type": "bytes32"
        },
        {
          "internalType": "bytes",
          "name": "value",
          "type": "bytes"
        }
      ],
      "name": "createRevokeAttributeHash",
      "outputs": [
        {
          "internalType": "bytes32",
          "name": "",
          "type": "bytes32"
        }
      ],
      "stateMutability": "pure",
      "type": "function",
      "constant": true
    },
    {
      "inputs": [],
      "name": "getChainId",
      "outputs": [
        {
          "internalType": "uint256",
          "name": "",
          "type": "uint256"
        }
      ],
      "stateMutability": "view",
      "type": "function",
      "constant": true
    }
  ],
  "bytecode": "0x6080604052348015600f57600080fd5b506117ef8061001f6000396000f3fe608060405234801561001057600080fd5b506004361061012b5760003560e01c80637ad4b0a4116100ad578063b30bdf0911610071578063b30bdf09146102c5578063c31e4997146102d8578063f00d4b5d146102eb578063fa544161146102fe578063fbc61c4a1461031157600080fd5b80637ad4b0a4146102665780638053fa0d1461027957806380b29f7c1461028c578063a7068d661461029f578063a8d115b0146102b257600080fd5b80633408e470116100f45780633408e470146101fc57806351a7bac21461020c57806367e4f1bf1461021f578063719d0d3014610232578063736be66e1461025357600080fd5b8062c023da14610130578063022914a714610145578063062e8a041461018b578063222961ef1461019e57806332ba5e6f146101e9575b600080fd5b61014361013e36600461105b565b610324565b005b61016e6101533660046110b2565b6000602081905290815260409020546001600160a01b031681565b6040516001600160a01b0390911681526020015b60405180910390f35b6101436101993660046110e5565b6103fa565b6101d46101ac36600461116b565b6001602081815260009485526040808620825293855283852090529083529120805491015482565b60408051928352602083019190915201610182565b6101436101f73660046111a8565b610570565b465b604051908152602001610182565b6101fe61021a3660046111fd565b610683565b6101fe61022d36600461125c565b6106bc565b610245610240366004611298565b610721565b604051610182929190611312565b610143610261366004611334565b6107d0565b6101436102743660046111fd565b6108e8565b610143610287366004611393565b6109e9565b61014361029a36600461125c565b610b18565b6101436102ad3660046113f3565b610bb2565b6101fe6102c0366004611437565b610c74565b6101436102d336600461146a565b610cce565b6101fe6102e636600461105b565b610e51565b6101436102f9366004611437565b610e68565b61016e61030c3660046110b2565b610f08565b6101fe61031f3660046113f3565b610f4c565b8261032e81610f08565b6001600160a01b0316336001600160a01b0316146103675760405162461bcd60e51b815260040161035e906114b8565b60405180910390fd5b6001600160a01b03841660009081526002602090815260408083209051429391926103969188918891016114e4565b60405160208183030381529060405280519060200120815260200190815260200160002060010181905550836001600160a01b031660008051602061179a8339815191528484426040516103ec9392919061150a565b60405180910390a250505050565b600061040888888888610683565b6040805160008082526020820180845284905260ff88169282019290925260608101869052608081018590529192509060019060a0016020604051602081039080840390855afa158015610460573d6000803e3d6000fd5b50505060206040510351905061047589610f08565b6001600160a01b0316816001600160a01b0316146104a55760405162461bcd60e51b815260040161035e90611533565b60006104b1874261155e565b6040805180820182528a815260208082018490526001600160a01b038e16600090815260028252838120935194955091936104f0918e918e91016114e4565b60408051601f19818403018152918152815160209283012083529082019290925201600020815181906105239082611608565b5060208201518160010155905050896001600160a01b031660008051602061179a8339815191528a8a8460405161055c9392919061150a565b60405180910390a250505050505050505050565b600061057c8686610c74565b6040805160008082526020820180845284905260ff88169282019290925260608101869052608081018590529192509060019060a0016020604051602081039080840390855afa1580156105d4573d6000803e3d6000fd5b5050506020604051035190506105e987610f08565b6001600160a01b0316816001600160a01b0316146106195760405162461bcd60e51b815260040161035e90611533565b6001600160a01b038781166000818152602081815260409182902080546001600160a01b031916948b169485179055905192835290917f9071b3f486383ebd5972712e0a90e1012d2f68a61306af305f8bdc974debde87910160405180910390a250505050505050565b60008484848460405160200161069c94939291906116c7565b604051602081830303815290604052805190602001209050949350505050565b6040516d7265766f6b6544656c656761746560901b60208201526001600160601b0319606085811b8216602e8401526042830185905283901b1660628201526000906076015b6040516020818303038152906040528051906020012090509392505050565b60026020908152600092835260408084209091529082529020805481906107479061157f565b80601f01602080910402602001604051908101604052809291908181526020018280546107739061157f565b80156107c05780601f10610795576101008083540402835291602001916107c0565b820191906000526020600020905b8154815290600101906020018083116107a357829003601f168201915b5050505050908060010154905082565b60006107dd8787876106bc565b6040805160008082526020820180845284905260ff88169282019290925260608101869052608081018590529192509060019060a0016020604051602081039080840390855afa158015610835573d6000803e3d6000fd5b50505060206040510351905061084a88610f08565b6001600160a01b0316816001600160a01b03161461087a5760405162461bcd60e51b815260040161035e90611533565b6001600160a01b038881166000818152600160208181526040808420958c168085529582528084208d855282529283902042920182905582518c815290810194909452908301529060008051602061177a833981519152906060015b60405180910390a25050505050505050565b836108f281610f08565b6001600160a01b0316336001600160a01b0316146109225760405162461bcd60e51b815260040161035e906114b8565b600061092e834261155e565b60408051808201825286815260208082018490526001600160a01b038a166000908152600282528381209351949550919361096d918a918a91016114e4565b60408051601f19818403018152918152815160209283012083529082019290925201600020815181906109a09082611608565b5060208201518160010155905050856001600160a01b031660008051602061179a8339815191528686846040516109d99392919061150a565b60405180910390a2505050505050565b60006109f6878787610e51565b6040805160008082526020820180845284905260ff88169282019290925260608101869052608081018590529192509060019060a0016020604051602081039080840390855afa158015610a4e573d6000803e3d6000fd5b505050602060405103519050610a6388610f08565b6001600160a01b0316816001600160a01b031614610a935760405162461bcd60e51b815260040161035e90611533565b6001600160a01b0388166000908152600260209081526040808320905142939192610ac2918c918c91016114e4565b60405160208183030381529060405280519060200120815260200190815260200160002060010181905550876001600160a01b031660008051602061179a8339815191528888426040516108d69392919061150a565b82610b2281610f08565b6001600160a01b0316336001600160a01b031614610b525760405162461bcd60e51b815260040161035e906114b8565b6001600160a01b038481166000818152600160208181526040808420958816808552958252808420898552825292839020429201829055825188815290810194909452908301529060008051602061177a833981519152906060016103ec565b83610bbc81610f08565b6001600160a01b0316336001600160a01b031614610bec5760405162461bcd60e51b815260040161035e906114b8565b6000610bf8834261155e565b60408051808201825287815260208082018481526001600160a01b038b811660008181526001808652878220938d168083529386528782208e8352865290879020955186559251949092019390935583518a81529182019290925291820183905291925060008051602061177a833981519152906060016109d9565b6040516a31b430b733b2a7bbb732b960a91b60208201526001600160601b0319606084811b8216602b84015283901b16603f8201526000906053016040516020818303038152906040528051906020012090505b92915050565b6000610cdc88888888610f4c565b6040805160008082526020820180845284905260ff88169282019290925260608101869052608081018590529192509060019060a0016020604051602081039080840390855afa158015610d34573d6000803e3d6000fd5b505050602060405103519050610d4989610f08565b6001600160a01b0316816001600160a01b031614610d795760405162461bcd60e51b815260040161035e90611533565b6000610d85874261155e565b905060405180604001604052808a815260200182815250600160008c6001600160a01b03166001600160a01b0316815260200190815260200160002060008a6001600160a01b03166001600160a01b0316815260200190815260200160002060008b81526020019081526020016000206000820151816000015560208201518160010155905050896001600160a01b031660008051602061177a8339815191528a8a8460405161055c939291909283526001600160a01b03919091166020830152604082015260600190565b600083838360405160200161070293929190611722565b81610e7281610f08565b6001600160a01b0316336001600160a01b031614610ea25760405162461bcd60e51b815260040161035e906114b8565b6001600160a01b038381166000818152602081815260409182902080546001600160a01b0319169487169485179055905192835290917f9071b3f486383ebd5972712e0a90e1012d2f68a61306af305f8bdc974debde87910160405180910390a2505050565b6001600160a01b03818116600090815260208190526040812054909116610f2d575090565b506001600160a01b039081166000908152602081905260409020541690565b6040516a61646444656c656761746560a81b60208201526001600160601b0319606086811b8216602b840152603f830186905284901b16605f8201526073810182905260009060930161069c565b80356001600160a01b0381168114610fb157600080fd5b919050565b634e487b7160e01b600052604160045260246000fd5b600082601f830112610fdd57600080fd5b813567ffffffffffffffff811115610ff757610ff7610fb6565b604051601f8201601f19908116603f0116810167ffffffffffffffff8111828210171561102657611026610fb6565b60405281815283820160200185101561103e57600080fd5b816020850160208301376000918101602001919091529392505050565b60008060006060848603121561107057600080fd5b61107984610f9a565b925060208401359150604084013567ffffffffffffffff81111561109c57600080fd5b6110a886828701610fcc565b9150509250925092565b6000602082840312156110c457600080fd5b6110cd82610f9a565b9392505050565b803560ff81168114610fb157600080fd5b600080600080600080600060e0888a03121561110057600080fd5b61110988610f9a565b965060208801359550604088013567ffffffffffffffff81111561112c57600080fd5b6111388a828b01610fcc565b9550506060880135935061114e608089016110d4565b9699959850939692959460a0840135945060c09093013592915050565b60008060006060848603121561118057600080fd5b61118984610f9a565b925061119760208501610f9a565b929592945050506040919091013590565b600080600080600060a086880312156111c057600080fd5b6111c986610f9a565b94506111d760208701610f9a565b93506111e5604087016110d4565b94979396509394606081013594506080013592915050565b6000806000806080858703121561121357600080fd5b61121c85610f9a565b935060208501359250604085013567ffffffffffffffff81111561123f57600080fd5b61124b87828801610fcc565b949793965093946060013593505050565b60008060006060848603121561127157600080fd5b61127a84610f9a565b92506020840135915061128f60408501610f9a565b90509250925092565b600080604083850312156112ab57600080fd5b6112b483610f9a565b946020939093013593505050565b60005b838110156112dd5781810151838201526020016112c5565b50506000910152565b600081518084526112fe8160208601602086016112c2565b601f01601f19169290920160200192915050565b60408152600061132560408301856112e6565b90508260208301529392505050565b60008060008060008060c0878903121561134d57600080fd5b61135687610f9a565b95506020870135945061136b60408801610f9a565b9350611379606088016110d4565b9598949750929560808101359460a0909101359350915050565b60008060008060008060c087890312156113ac57600080fd5b6113b587610f9a565b955060208701359450604087013567ffffffffffffffff8111156113d857600080fd5b6113e489828a01610fcc565b945050611379606088016110d4565b6000806000806080858703121561140957600080fd5b61141285610f9a565b93506020850135925061142760408601610f9a565b9396929550929360600135925050565b6000806040838503121561144a57600080fd5b61145383610f9a565b915061146160208401610f9a565b90509250929050565b600080600080600080600060e0888a03121561148557600080fd5b61148e88610f9a565b9650602088013595506114a360408901610f9a565b94506060880135935061114e608089016110d4565b6020808252601290820152712737ba1034b232b73a34ba3c9037bbb732b960711b604082015260600190565b828152600082516114fc8160208501602087016112c2565b919091016020019392505050565b83815260606020820152600061152360608301856112e6565b9050826040830152949350505050565b602080825260119082015270496e76616c6964207369676e617475726560781b604082015260600190565b80820180821115610cc857634e487b7160e01b600052601160045260246000fd5b600181811c9082168061159357607f821691505b6020821081036115b357634e487b7160e01b600052602260045260246000fd5b50919050565b601f82111561160357806000526020600020601f840160051c810160208510156115e05750805b601f840160051c820191505b8181101561160057600081556001016115ec565b50505b505050565b815167ffffffffffffffff81111561162257611622610fb6565b61163681611630845461157f565b846115b9565b6020601f82116001811461166a57600083156116525750848201515b600019600385901b1c1916600184901b178455611600565b600084815260208120601f198516915b8281101561169a578785015182556020948501946001909201910161167a565b50848210156116b85786840151600019600387901b60f8161c191681555b50505050600190811b01905550565b6b73657441747472696275746560a01b81526bffffffffffffffffffffffff198560601b16600c8201528360208201526000835161170c8160408501602088016112c2565b6040920191820192909252606001949350505050565b6e7265766f6b6541747472696275746560881b81526bffffffffffffffffffffffff198460601b16600f8201528260238201526000825161176a8160438501602087016112c2565b9190910160430194935050505056feca4b351e0fc5a646ec7f99026c19fbc183d6d851946cdb5831f0c15fbec3ec1d3c245a8c1b6b130ac5da86703bf855a1d9657013c1d88239123bbfb25f5252e3a26469706673582212201af7875c12a8801709c6bff79d3c624553e5e0d4c52676dea705d6437686ad9e64736f6c634300081d0033",
  "immutableReferences": {},
  "source": "// SPDX-License-Identifier: MIT\r\npragma solidity ^0.8.20;\r\n\r\ncontract IdentityManager {\r\n    enum DelegateType { veriKey, sigAuth, enc }\r\n\r\n    struct Delegate {\r\n        bytes32 delegateType;\r\n        uint256 expires;\r\n    }\r\n\r\n    struct Attribute {\r\n        bytes value;\r\n        uint256 expires;\r\n    }\r\n\r\n    mapping(address => address) public owners;\r\n    mapping(address => mapping(address => mapping(bytes32 => Delegate))) public delegates;\r\n    mapping(address => mapping(bytes32 => Attribute)) public attributes;\r\n\r\n    event DIDOwnerChanged(address indexed identity, address owner);\r\n    event DIDDelegateChanged(address indexed identity, bytes32 delegateType, address delegate, uint256 validTo);\r\n    event DIDAttributeChanged(address indexed identity, bytes32 name, bytes value, uint256 validTo);\r\n\r\n    modifier onlyOwner(address identity) {\r\n        require(msg.sender == getOwner(identity), \"Not identity owner\");\r\n        _;\r\n    }\r\n\r\n    function getOwner(address identity) public view returns (address) {\r\n        if (owners[identity] == address(0)) return identity;\r\n        return owners[identity];\r\n    }\r\n\r\n    function changeOwner(address identity, address newOwner) external onlyOwner(identity) {\r\n        owners[identity] = newOwner;\r\n        emit DIDOwnerChanged(identity, newOwner);\r\n    }\r\n\r\n    function changeOwnerSigned(address identity, address newOwner, uint8 v, bytes32 r, bytes32 s) external {\r\n        bytes32 hash = createChangeOwnerHash(identity, newOwner);\r\n        address signer = ecrecover(hash, v, r, s);\r\n        require(signer == getOwner(identity), \"Invalid signature\");\r\n        owners[identity] = newOwner;\r\n        emit DIDOwnerChanged(identity, newOwner);\r\n    }\r\n\r\n    function addDelegate(address identity, bytes32 delegateType, address delegate, uint256 expiresIn) external onlyOwner(identity) {\r\n        uint256 validTo = block.timestamp + expiresIn;\r\n        delegates[identity][delegate][delegateType] = Delegate(delegateType, validTo);\r\n        emit DIDDelegateChanged(identity, delegateType, delegate, validTo);\r\n    }\r\n\r\n    function addDelegateSigned(address identity, bytes32 delegateType, address delegate, uint256 expiresIn, uint8 v, bytes32 r, bytes32 s) external {\r\n        bytes32 hash = createAddDelegateHash(identity, delegateType, delegate, expiresIn);\r\n        address signer = ecrecover(hash, v, r, s);\r\n        require(signer == getOwner(identity), \"Invalid signature\");\r\n        uint256 validTo = block.timestamp + expiresIn;\r\n        delegates[identity][delegate][delegateType] = Delegate(delegateType, validTo);\r\n        emit DIDDelegateChanged(identity, delegateType, delegate, validTo);\r\n    }\r\n\r\n    function revokeDelegate(address identity, bytes32 delegateType, address delegate) external onlyOwner(identity) {\r\n        delegates[identity][delegate][delegateType].expires = block.timestamp;\r\n        emit DIDDelegateChanged(identity, delegateType, delegate, block.timestamp);\r\n    }\r\n\r\n    function revokeDelegateSigned(address identity, bytes32 delegateType, address delegate, uint8 v, bytes32 r, bytes32 s) external {\r\n        bytes32 hash = createRevokeDelegateHash(identity, delegateType, delegate);\r\n        address signer = ecrecover(hash, v, r, s);\r\n        require(signer == getOwner(identity), \"Invalid signature\");\r\n        delegates[identity][delegate][delegateType].expires = block.timestamp;\r\n        emit DIDDelegateChanged(identity, delegateType, delegate, block.timestamp);\r\n    }\r\n\r\n    function setAttribute(address identity, bytes32 name, bytes memory value, uint256 expiresIn) external onlyOwner(identity) {\r\n        uint256 validTo = block.timestamp + expiresIn;\r\n        attributes[identity][keccak256(abi.encodePacked(name, value))] = Attribute(value, validTo);\r\n        emit DIDAttributeChanged(identity, name, value, validTo);\r\n    }\r\n\r\n    function setAttributeSigned(address identity, bytes32 name, bytes memory value, uint256 expiresIn, uint8 v, bytes32 r, bytes32 s) external {\r\n        bytes32 hash = createSetAttributeHash(identity, name, value, expiresIn);\r\n        address signer = ecrecover(hash, v, r, s);\r\n        require(signer == getOwner(identity), \"Invalid signature\");\r\n        uint256 validTo = block.timestamp + expiresIn;\r\n        attributes[identity][keccak256(abi.encodePacked(name, value))] = Attribute(value, validTo);\r\n        emit DIDAttributeChanged(identity, name, value, validTo);\r\n    }\r\n\r\n    function revokeAttribute(address identity, bytes32 name, bytes memory value) external onlyOwner(identity) {\r\n        attributes[identity][keccak256(abi.encodePacked(name, value))].expires = block.timestamp;\r\n        emit DIDAttributeChanged(identity, name, value, block.timestamp);\r\n    }\r\n\r\n    function revokeAttributeSigned(address identity, bytes32 name, bytes memory value, uint8 v, bytes32 r, bytes32 s) external {\r\n        bytes32 hash = createRevokeAttributeHash(identity, name, value);\r\n        address signer = ecrecover(hash, v, r, s);\r\n        require(signer == getOwner(identity), \"Invalid signature\");\r\n        attributes[identity][keccak256(abi.encodePacked(name, value))].expires = block.timestamp;\r\n        emit DIDAttributeChanged(identity, name, value, block.timestamp);\r\n    }\r\n\r\n    function createChangeOwnerHash(address identity, address newOwner) public pure returns (bytes32) {\r\n        return keccak256(abi.encodePacked(\"changeOwner\", identity, newOwner));\r\n    }\r\n\r\n    function createAddDelegateHash(address identity, bytes32 delegateType, address delegate, uint256 expiresIn) public pure returns (bytes32) {\r\n        return keccak256(abi.encodePacked(\"addDelegate\", identity, delegateType, delegate, expiresIn));\r\n    }\r\n\r\n    function createRevokeDelegateHash(address identity, bytes32 delegateType, address delegate) public pure returns (bytes32) {\r\n        return keccak256(abi.encodePacked(\"revokeDelegate\", identity, delegateType, delegate));\r\n    }\r\n\r\n    function createSetAttributeHash(address identity, bytes32 name, bytes memory value, uint256 expiresIn) public pure returns (bytes32) {\r\n        return keccak256(abi.encodePacked(\"setAttribute\", identity, name, value, expiresIn));\r\n    }\r\n\r\n    function createRevokeAttributeHash(address identity, bytes32 name, bytes memory value) public pure returns (bytes32) {\r\n        return keccak256(abi.encodePacked(\"revokeAttribute\", identity, name, value));\r\n    }\r\n\r\n    function getChainId() external view returns (uint256) {\r\n        return block.chainid;\r\n    }\r\n}\r\n",
  "sourcePath": "C:\\temp\\DIMS\\decentralized-identity-management\\smart-contracts\\contracts\\IdentityManager.sol",
  "compiler": {
    "name": "solc",
    "version": "0.8.29+commit.ab55807c.Emscripten.clang"
  },
  "schemaVersion": "3.4.16",
  "updatedAt": "2025-03-25T18:10:25.161Z",
  "networkType": "ethereum",
  "devdoc": {
    "kind": "dev",
    "methods": {},
    "version": 1
  },
  "userdoc": {
    "kind": "user",
    "methods": {},
    "version": 1
  }
}