{
  "contractName": "IdentityManagerWithUpload",
  "abi": [
    {
      "anonymous": false,
      "inputs": [
        {
          "indexed": true,
          "internalType": "address",
          "name": "identity",
          "type": "address"
        },
        {
          "indexed": false,
          "internalType": "bytes32",
          "name": "name",
          "type": "bytes32"
        },
        {
          "indexed": false,
          "internalType": "bytes",
          "name": "value",
          "type": "bytes"
        },
        {
          "indexed": false,
          "internalType": "uint256",
          "name": "validTo",
          "type": "uint256"
        }
      ],
      "name": "DIDAttributeChanged",
      "type": "event"
    },
    {
      "anonymous": false,
      "inputs": [
        {
          "indexed": true,
          "internalType": "address",
          "name": "identity",
          "type": "address"
        },
        {
          "indexed": false,
          "internalType": "bytes32",
          "name": "delegateType",
          "type": "bytes32"
        },
        {
          "indexed": false,
          "internalType": "address",
          "name": "delegate",
          "type": "address"
        },
        {
          "indexed": false,
          "internalType": "uint256",
          "name": "validTo",
          "type": "uint256"
        }
      ],
      "name": "DIDDelegateChanged",
      "type": "event"
    },
    {
      "anonymous": false,
      "inputs": [
        {
          "indexed": true,
          "internalType": "address",
          "name": "identity",
          "type": "address"
        },
        {
          "indexed": false,
          "internalType": "address",
          "name": "owner",
          "type": "address"
        }
      ],
      "name": "DIDOwnerChanged",
      "type": "event"
    },
    {
      "inputs": [
        {
          "internalType": "address",
          "name": "",
          "type": "address"
        },
        {
          "internalType": "uint256",
          "name": "",
          "type": "uint256"
        }
      ],
      "name": "accessList",
      "outputs": [
        {
          "internalType": "address",
          "name": "user",
          "type": "address"
        },
        {
          "internalType": "bool",
          "name": "access",
          "type": "bool"
        }
      ],
      "stateMutability": "view",
      "type": "function"
    },
    {
      "inputs": [
        {
          "internalType": "address",
          "name": "",
          "type": "address"
        },
        {
          "internalType": "bytes32",
          "name": "",
          "type": "bytes32"
        }
      ],
      "name": "attributes",
      "outputs": [
        {
          "internalType": "bytes",
          "name": "value",
          "type": "bytes"
        },
        {
          "internalType": "uint256",
          "name": "expires",
          "type": "uint256"
        }
      ],
      "stateMutability": "view",
      "type": "function"
    },
    {
      "inputs": [
        {
          "internalType": "address",
          "name": "",
          "type": "address"
        },
        {
          "internalType": "address",
          "name": "",
          "type": "address"
        },
        {
          "internalType": "bytes32",
          "name": "",
          "type": "bytes32"
        }
      ],
      "name": "delegates",
      "outputs": [
        {
          "internalType": "bytes32",
          "name": "delegateType",
          "type": "bytes32"
        },
        {
          "internalType": "uint256",
          "name": "expires",
          "type": "uint256"
        }
      ],
      "stateMutability": "view",
      "type": "function"
    },
    {
      "inputs": [
        {
          "internalType": "address",
          "name": "",
          "type": "address"
        }
      ],
      "name": "owners",
      "outputs": [
        {
          "internalType": "address",
          "name": "",
          "type": "address"
        }
      ],
      "stateMutability": "view",
      "type": "function"
    },
    {
      "inputs": [
        {
          "internalType": "address",
          "name": "",
          "type": "address"
        },
        {
          "internalType": "address",
          "name": "",
          "type": "address"
        }
      ],
      "name": "ownership",
      "outputs": [
        {
          "internalType": "bool",
          "name": "",
          "type": "bool"
        }
      ],
      "stateMutability": "view",
      "type": "function"
    },
    {
      "inputs": [
        {
          "internalType": "address",
          "name": "",
          "type": "address"
        },
        {
          "internalType": "address",
          "name": "",
          "type": "address"
        }
      ],
      "name": "previousData",
      "outputs": [
        {
          "internalType": "bool",
          "name": "",
          "type": "bool"
        }
      ],
      "stateMutability": "view",
      "type": "function"
    },
    {
      "inputs": [
        {
          "internalType": "address",
          "name": "",
          "type": "address"
        },
        {
          "internalType": "uint256",
          "name": "",
          "type": "uint256"
        }
      ],
      "name": "value",
      "outputs": [
        {
          "internalType": "string",
          "name": "",
          "type": "string"
        }
      ],
      "stateMutability": "view",
      "type": "function"
    },
    {
      "inputs": [
        {
          "internalType": "address",
          "name": "identity",
          "type": "address"
        }
      ],
      "name": "getOwner",
      "outputs": [
        {
          "internalType": "address",
          "name": "",
          "type": "address"
        }
      ],
      "stateMutability": "view",
      "type": "function"
    },
    {
      "inputs": [
        {
          "internalType": "address",
          "name": "identity",
          "type": "address"
        },
        {
          "internalType": "address",
          "name": "newOwner",
          "type": "address"
        }
      ],
      "name": "changeOwner",
      "outputs": [],
      "stateMutability": "nonpayable",
      "type": "function"
    },
    {
      "inputs": [
        {
          "internalType": "address",
          "name": "identity",
          "type": "address"
        },
        {
          "internalType": "bytes32",
          "name": "delegateType",
          "type": "bytes32"
        },
        {
          "internalType": "address",
          "name": "delegate",
          "type": "address"
        },
        {
          "internalType": "uint256",
          "name": "expiresIn",
          "type": "uint256"
        }
      ],
      "name": "addDelegate",
      "outputs": [],
      "stateMutability": "nonpayable",
      "type": "function"
    },
    {
      "inputs": [
        {
          "internalType": "address",
          "name": "identity",
          "type": "address"
        },
        {
          "internalType": "bytes32",
          "name": "delegateType",
          "type": "bytes32"
        },
        {
          "internalType": "address",
          "name": "delegate",
          "type": "address"
        }
      ],
      "name": "revokeDelegate",
      "outputs": [],
      "stateMutability": "nonpayable",
      "type": "function"
    },
    {
      "inputs": [
        {
          "internalType": "address",
          "name": "identity",
          "type": "address"
        },
        {
          "internalType": "bytes32",
          "name": "name",
          "type": "bytes32"
        },
        {
          "internalType": "bytes",
          "name": "value",
          "type": "bytes"
        },
        {
          "internalType": "uint256",
          "name": "expiresIn",
          "type": "uint256"
        }
      ],
      "name": "setAttribute",
      "outputs": [],
      "stateMutability": "nonpayable",
      "type": "function"
    },
    {
      "inputs": [
        {
          "internalType": "address",
          "name": "identity",
          "type": "address"
        },
        {
          "internalType": "bytes32",
          "name": "name",
          "type": "bytes32"
        },
        {
          "internalType": "bytes",
          "name": "value",
          "type": "bytes"
        }
      ],
      "name": "revokeAttribute",
      "outputs": [],
      "stateMutability": "nonpayable",
      "type": "function"
    },
    {
      "inputs": [
        {
          "internalType": "address",
          "name": "_user",
          "type": "address"
        },
        {
          "internalType": "string",
          "name": "url",
          "type": "string"
        }
      ],
      "name": "addDocument",
      "outputs": [],
      "stateMutability": "nonpayable",
      "type": "function"
    },
    {
      "inputs": [
        {
          "internalType": "address",
          "name": "user",
          "type": "address"
        }
      ],
      "name": "allowAccess",
      "outputs": [],
      "stateMutability": "nonpayable",
      "type": "function"
    },
    {
      "inputs": [
        {
          "internalType": "address",
          "name": "user",
          "type": "address"
        }
      ],
      "name": "disallowAccess",
      "outputs": [],
      "stateMutability": "nonpayable",
      "type": "function"
    },
    {
      "inputs": [
        {
          "internalType": "address",
          "name": "_user",
          "type": "address"
        }
      ],
      "name": "displayDocuments",
      "outputs": [
        {
          "internalType": "string[]",
          "name": "",
          "type": "string[]"
        }
      ],
      "stateMutability": "view",
      "type": "function"
    },
    {
      "inputs": [],
      "name": "shareAccess",
      "outputs": [
        {
          "components": [
            {
              "internalType": "address",
              "name": "user",
              "type": "address"
            },
            {
              "internalType": "bool",
              "name": "access",
              "type": "bool"
            }
          ],
          "internalType": "struct IdentityManagerWithUpload.Access[]",
          "name": "",
          "type": "tuple[]"
        }
      ],
      "stateMutability": "view",
      "type": "function"
    },
    {
      "inputs": [
        {
          "internalType": "address",
          "name": "identity",
          "type": "address"
        },
        {
          "internalType": "address",
          "name": "newOwner",
          "type": "address"
        }
      ],
      "name": "createChangeOwnerHash",
      "outputs": [
        {
          "internalType": "bytes32",
          "name": "",
          "type": "bytes32"
        }
      ],
      "stateMutability": "pure",
      "type": "function"
    },
    {
      "inputs": [
        {
          "internalType": "address",
          "name": "identity",
          "type": "address"
        },
        {
          "internalType": "bytes32",
          "name": "delegateType",
          "type": "bytes32"
        },
        {
          "internalType": "address",
          "name": "delegate",
          "type": "address"
        },
        {
          "internalType": "uint256",
          "name": "expiresIn",
          "type": "uint256"
        }
      ],
      "name": "createAddDelegateHash",
      "outputs": [
        {
          "internalType": "bytes32",
          "name": "",
          "type": "bytes32"
        }
      ],
      "stateMutability": "pure",
      "type": "function"
    },
    {
      "inputs": [
        {
          "internalType": "address",
          "name": "identity",
          "type": "address"
        },
        {
          "internalType": "bytes32",
          "name": "delegateType",
          "type": "bytes32"
        },
        {
          "internalType": "address",
          "name": "delegate",
          "type": "address"
        }
      ],
      "name": "createRevokeDelegateHash",
      "outputs": [
        {
          "internalType": "bytes32",
          "name": "",
          "type": "bytes32"
        }
      ],
      "stateMutability": "pure",
      "type": "function"
    },
    {
      "inputs": [
        {
          "internalType": "address",
          "name": "identity",
          "type": "address"
        },
        {
          "internalType": "bytes32",
          "name": "name",
          "type": "bytes32"
        },
        {
          "internalType": "bytes",
          "name": "value",
          "type": "bytes"
        },
        {
          "internalType": "uint256",
          "name": "expiresIn",
          "type": "uint256"
        }
      ],
      "name": "createSetAttributeHash",
      "outputs": [
        {
          "internalType": "bytes32",
          "name": "",
          "type": "bytes32"
        }
      ],
      "stateMutability": "pure",
      "type": "function"
    },
    {
      "inputs": [
        {
          "internalType": "address",
          "name": "identity",
          "type": "address"
        },
        {
          "internalType": "bytes32",
          "name": "name",
          "type": "bytes32"
        },
        {
          "internalType": "bytes",
          "name": "value",
          "type": "bytes"
        }
      ],
      "name": "createRevokeAttributeHash",
      "outputs": [
        {
          "internalType": "bytes32",
          "name": "",
          "type": "bytes32"
        }
      ],
      "stateMutability": "pure",
      "type": "function"
    },
    {
      "inputs": [],
      "name": "getChainId",
      "outputs": [
        {
          "internalType": "uint256",
          "name": "",
          "type": "uint256"
        }
      ],
      "stateMutability": "view",
      "type": "function"
    }
  ],
  "bytecode": "0x6080604052348015600f57600080fd5b506117508061001f6000396000f3fe608060405234801561001057600080fd5b50600436106101575760003560e01c80637de0fa55116100c3578063bc8bef811161007c578063bc8bef81146103a9578063c31e4997146103be578063c4a85bc1146103d1578063f00d4b5d146103e4578063fa544161146103f7578063fbc61c4a1461040a57600080fd5b80637de0fa551461030f57806380b29f7c1461032f578063974fe59114610342578063a7068d6614610370578063a8d115b014610383578063b4449c301461039657600080fd5b806351a7bac21161011557806351a7bac214610270578063656687641461028357806367e4f1bf1461029657806370c2b419146102a9578063719d0d30146102db5780637ad4b0a4146102fc57600080fd5b8062c023da1461015c578063022914a7146101715780630f8b27d7146101b7578063222961ef146101d7578063227d5e9a146102225780633408e47014610260575b600080fd5b61016f61016a3660046110de565b61041d565b005b61019a61017f366004611135565b6000602081905290815260409020546001600160a01b031681565b6040516001600160a01b0390911681526020015b60405180910390f35b6101ca6101c5366004611150565b610505565b6040516101ae91906111ca565b61020d6101e53660046111dd565b6001602081815260009485526040808620825293855283852090529083529120805491015482565b604080519283526020830191909152016101ae565b61025061023036600461121a565b600660209081526000928352604080842090915290825290205460ff1681565b60405190151581526020016101ae565b465b6040519081526020016101ae565b61026261027e36600461124d565b6105be565b61016f6102913660046112ac565b6105f7565b6102626102a436600461130e565b61062e565b6102bc6102b7366004611150565b610693565b604080516001600160a01b0390931683529015156020830152016101ae565b6102ee6102e9366004611150565b6106d6565b6040516101ae92919061134a565b61016f61030a36600461124d565b610785565b61032261031d366004611135565b610898565b6040516101ae919061136c565b61016f61033d36600461130e565b610a02565b61025061035036600461121a565b600460209081526000928352604080842090915290825290205460ff1681565b61016f61037e3660046113d1565b610aae565b61026261039136600461121a565b610b82565b61016f6103a4366004611135565b610bdc565b6103b1610cb9565b6040516101ae9190611415565b6102626103cc3660046110de565b610d3c565b61016f6103df366004611135565b610d53565b61016f6103f236600461121a565b610ed9565b61019a610405366004611135565b610f79565b6102626104183660046113d1565b610fbd565b8261042781610f79565b6001600160a01b0316336001600160a01b0316146104605760405162461bcd60e51b81526004016104579061146f565b60405180910390fd5b6001600160a01b038416600090815260026020908152604080832090514293919261048f91889188910161149b565b60405160208183030381529060405280519060200120815260200190815260200160002060010181905550836001600160a01b03167f3c245a8c1b6b130ac5da86703bf855a1d9657013c1d88239123bbfb25f5252e38484426040516104f7939291906114c1565b60405180910390a250505050565b6003602052816000526040600020818154811061052157600080fd5b9060005260206000200160009150915050805461053d906114ea565b80601f0160208091040260200160405190810160405280929190818152602001828054610569906114ea565b80156105b65780601f1061058b576101008083540402835291602001916105b6565b820191906000526020600020905b81548152906001019060200180831161059957829003601f168201915b505050505081565b6000848484846040516020016105d79493929190611524565b604051602081830303815290604052805190602001209050949350505050565b6001600160a01b03821660009081526003602090815260408220805460018101825590835291200161062982826115cd565b505050565b6040516d7265766f6b6544656c656761746560901b60208201526001600160601b0319606085811b8216602e8401526042830185905283901b1660628201526000906076015b6040516020818303038152906040528051906020012090509392505050565b600560205281600052604060002081815481106106af57600080fd5b6000918252602090912001546001600160a01b0381169250600160a01b900460ff16905082565b60026020908152600092835260408084209091529082529020805481906106fc906114ea565b80601f0160208091040260200160405190810160405280929190818152602001828054610728906114ea565b80156107755780601f1061074a57610100808354040283529160200191610775565b820191906000526020600020905b81548152906001019060200180831161075857829003601f168201915b5050505050908060010154905082565b8361078f81610f79565b6001600160a01b0316336001600160a01b0316146107bf5760405162461bcd60e51b81526004016104579061146f565b60006107cb834261168c565b60408051808201825286815260208082018490526001600160a01b038a166000908152600282528381209351949550919361080a918a918a910161149b565b60408051601f198184030181529181528151602092830120835290820192909252016000208151819061083d90826115cd565b5060208201518160010155905050856001600160a01b03167f3c245a8c1b6b130ac5da86703bf855a1d9657013c1d88239123bbfb25f5252e3868684604051610888939291906114c1565b60405180910390a2505050505050565b60606001600160a01b0382163314806108d457506001600160a01b038216600090815260046020908152604080832033845290915290205460ff165b6109185760405162461bcd60e51b8152602060048201526015602482015274596f7520646f6e277420686176652061636365737360581b6044820152606401610457565b6001600160a01b038216600090815260036020908152604080832080548251818502810185019093528083529193909284015b828210156109f757838290600052602060002001805461096a906114ea565b80601f0160208091040260200160405190810160405280929190818152602001828054610996906114ea565b80156109e35780601f106109b8576101008083540402835291602001916109e3565b820191906000526020600020905b8154815290600101906020018083116109c657829003601f168201915b50505050508152602001906001019061094b565b505050509050919050565b82610a0c81610f79565b6001600160a01b0316336001600160a01b031614610a3c5760405162461bcd60e51b81526004016104579061146f565b6001600160a01b03848116600081815260016020818152604080842095881680855295825280842089855282529283902042920182905582518881529081019490945290830152907fca4b351e0fc5a646ec7f99026c19fbc183d6d851946cdb5831f0c15fbec3ec1d906060016104f7565b83610ab881610f79565b6001600160a01b0316336001600160a01b031614610ae85760405162461bcd60e51b81526004016104579061146f565b6000610af4834261168c565b60408051808201825287815260208082018481526001600160a01b038b811660008181526001808652878220938d168083529386528782208e8352865290879020955186559251949092019390935583518a8152918201929092529182018390529192507fca4b351e0fc5a646ec7f99026c19fbc183d6d851946cdb5831f0c15fbec3ec1d90606001610888565b6040516a31b430b733b2a7bbb732b960a91b60208201526001600160601b0319606084811b8216602b84015283901b16603f8201526000906053016040516020818303038152906040528051906020012090505b92915050565b3360009081526004602090815260408083206001600160a01b03851684529091528120805460ff191690555b33600090815260056020526040902054811015610cb55733600090815260056020526040902080546001600160a01b038416919083908110610c4c57610c4c6116ad565b6000918252602090912001546001600160a01b031603610cad57336000908152600560205260408120805483908110610c8757610c876116ad565b60009182526020909120018054911515600160a01b0260ff60a01b199092169190911790555b600101610c08565b5050565b336000908152600560209081526040808320805482518185028101850190935280835260609492939192909184015b82821015610d3357600084815260209081902060408051808201909152908401546001600160a01b0381168252600160a01b900460ff16151581830152825260019092019101610ce8565b50505050905090565b6000838383604051602001610674939291906116c3565b3360008181526004602090815260408083206001600160a01b038616808552908352818420805460ff1916600117905593835260068252808320938352929052205460ff1615610e515760005b33600090815260056020526040902054811015610cb55733600090815260056020526040902080546001600160a01b038416919083908110610de457610de46116ad565b6000918252602090912001546001600160a01b031603610e495733600090815260056020526040902080546001919083908110610e2357610e236116ad565b60009182526020909120018054911515600160a01b0260ff60a01b199092169190911790555b600101610da0565b336000818152600560209081526040808320815180830183526001600160a01b03878116808352600183870181815285548083018755958952878920945194909501805495511515600160a01b026001600160a81b03199096169490931693909317939093179055948452600683528184209084529091529020805460ff1916909117905550565b81610ee381610f79565b6001600160a01b0316336001600160a01b031614610f135760405162461bcd60e51b81526004016104579061146f565b6001600160a01b038381166000818152602081815260409182902080546001600160a01b0319169487169485179055905192835290917f9071b3f486383ebd5972712e0a90e1012d2f68a61306af305f8bdc974debde87910160405180910390a2505050565b6001600160a01b03818116600090815260208190526040812054909116610f9e575090565b506001600160a01b039081166000908152602081905260409020541690565b6040516a61646444656c656761746560a81b60208201526001600160601b0319606086811b8216602b840152603f830186905284901b16605f820152607381018290526000906093016105d7565b80356001600160a01b038116811461102257600080fd5b919050565b634e487b7160e01b600052604160045260246000fd5b60008067ffffffffffffffff84111561105857611058611027565b50604051601f19601f85018116603f0116810181811067ffffffffffffffff8211171561108757611087611027565b60405283815290508082840185101561109f57600080fd5b83836020830137600060208583010152509392505050565b600082601f8301126110c857600080fd5b6110d78383356020850161103d565b9392505050565b6000806000606084860312156110f357600080fd5b6110fc8461100b565b925060208401359150604084013567ffffffffffffffff81111561111f57600080fd5b61112b868287016110b7565b9150509250925092565b60006020828403121561114757600080fd5b6110d78261100b565b6000806040838503121561116357600080fd5b61116c8361100b565b946020939093013593505050565b60005b8381101561119557818101518382015260200161117d565b50506000910152565b600081518084526111b681602086016020860161117a565b601f01601f19169290920160200192915050565b6020815260006110d7602083018461119e565b6000806000606084860312156111f257600080fd5b6111fb8461100b565b92506112096020850161100b565b929592945050506040919091013590565b6000806040838503121561122d57600080fd5b6112368361100b565b91506112446020840161100b565b90509250929050565b6000806000806080858703121561126357600080fd5b61126c8561100b565b935060208501359250604085013567ffffffffffffffff81111561128f57600080fd5b61129b878288016110b7565b949793965093946060013593505050565b600080604083850312156112bf57600080fd5b6112c88361100b565b9150602083013567ffffffffffffffff8111156112e457600080fd5b8301601f810185136112f557600080fd5b6113048582356020840161103d565b9150509250929050565b60008060006060848603121561132357600080fd5b61132c8461100b565b9250602084013591506113416040850161100b565b90509250925092565b60408152600061135d604083018561119e565b90508260208301529392505050565b6000602082016020835280845180835260408501915060408160051b86010192506020860160005b828110156113c557603f198786030184526113b085835161119e565b94506020938401939190910190600101611394565b50929695505050505050565b600080600080608085870312156113e757600080fd5b6113f08561100b565b9350602085013592506114056040860161100b565b9396929550929360600135925050565b602080825282518282018190526000918401906040840190835b8181101561146457835180516001600160a01b031684526020908101511515818501529093019260409092019160010161142f565b509095945050505050565b6020808252601290820152712737ba1034b232b73a34ba3c9037bbb732b960711b604082015260600190565b828152600082516114b381602085016020870161117a565b919091016020019392505050565b8381526060602082015260006114da606083018561119e565b9050826040830152949350505050565b600181811c908216806114fe57607f821691505b60208210810361151e57634e487b7160e01b600052602260045260246000fd5b50919050565b6b73657441747472696275746560a01b81526bffffffffffffffffffffffff198560601b16600c8201528360208201526000835161156981604085016020880161117a565b6040920191820192909252606001949350505050565b601f82111561062957806000526020600020601f840160051c810160208510156115a65750805b601f840160051c820191505b818110156115c657600081556001016115b2565b5050505050565b815167ffffffffffffffff8111156115e7576115e7611027565b6115fb816115f584546114ea565b8461157f565b6020601f82116001811461162f57600083156116175750848201515b600019600385901b1c1916600184901b1784556115c6565b600084815260208120601f198516915b8281101561165f578785015182556020948501946001909201910161163f565b508482101561167d5786840151600019600387901b60f8161c191681555b50505050600190811b01905550565b80820180821115610bd657634e487b7160e01b600052601160045260246000fd5b634e487b7160e01b600052603260045260246000fd5b6e7265766f6b6541747472696275746560881b81526bffffffffffffffffffffffff198460601b16600f8201528260238201526000825161170b81604385016020870161117a565b9190910160430194935050505056fea26469706673582212204a84a84d0bedfb882dfea9f57ae7aa0cbe8500d6df09377da2d7d4a2958cedbb64736f6c634300081d0033",
  "immutableReferences": {},
  "source": "// SPDX-License-Identifier: MIT\r\npragma solidity ^0.8.20;\r\n\r\n\r\n\r\ncontract IdentityManagerWithUpload {\r\n\r\n    // Enum to represent different types of delegates\r\n    enum DelegateType { veriKey, sigAuth, enc }\r\n\r\n    // Struct to represent a Delegate with its type and expiration\r\n    struct Delegate {\r\n        bytes32 delegateType;\r\n        uint256 expires;\r\n    }\r\n\r\n    // Struct to represent an Attribute (e.g., email, phone number) with its value and expiration\r\n    struct Attribute {\r\n        bytes value;\r\n        uint256 expires;\r\n    }\r\n\r\n    // Struct for Access to Documents (tracks if user has access or not)\r\n    struct Access {\r\n        address user; \r\n        bool access; // true if access is granted, false otherwise\r\n    }\r\n\r\n    // Mappings to manage different aspects of identity and access control\r\n    mapping(address => address) public owners; // Maps identity to its owner\r\n    mapping(address => mapping(address => mapping(bytes32 => Delegate))) public delegates; // Maps identity to its delegates\r\n    mapping(address => mapping(bytes32 => Attribute)) public attributes; // Maps identity to its attributes\r\n    mapping(address => string[]) public value; // Maps user address to an array of document URLs (owned by the user)\r\n    mapping(address => mapping(address => bool)) public ownership; // Tracks whether one user has ownership of another's documents\r\n    mapping(address => Access[]) public accessList; // Tracks the list of users with access to a specific user's documents\r\n    mapping(address => mapping(address => bool)) public previousData; // Tracks previous access relationships\r\n\r\n    // Events to log changes to ownership, delegates, and attributes\r\n    event DIDOwnerChanged(address indexed identity, address owner);\r\n    event DIDDelegateChanged(address indexed identity, bytes32 delegateType, address delegate, uint256 validTo);\r\n    event DIDAttributeChanged(address indexed identity, bytes32 name, bytes value, uint256 validTo);\r\n\r\n    // Modifier to ensure only the owner of an identity can perform certain actions\r\n    modifier onlyOwner(address identity) {\r\n        require(msg.sender == getOwner(identity), \"Not identity owner\");\r\n        _;\r\n    }\r\n\r\n    // Function to get the current owner of an identity (if no owner, returns identity itself)\r\n    function getOwner(address identity) public view returns (address) {\r\n        if (owners[identity] == address(0)) return identity;\r\n        return owners[identity];\r\n    }\r\n\r\n    // Function to change the owner of an identity (only accessible by the current owner)\r\n    function changeOwner(address identity, address newOwner) external onlyOwner(identity) {\r\n        owners[identity] = newOwner;\r\n        emit DIDOwnerChanged(identity, newOwner);\r\n    }\r\n\r\n    // Function to add a delegate to an identity (only accessible by the owner)\r\n    function addDelegate(address identity, bytes32 delegateType, address delegate, uint256 expiresIn) external onlyOwner(identity) {\r\n        uint256 validTo = block.timestamp + expiresIn;\r\n        delegates[identity][delegate][delegateType] = Delegate(delegateType, validTo);\r\n        emit DIDDelegateChanged(identity, delegateType, delegate, validTo);\r\n    }\r\n\r\n    // Function to revoke a delegate (only accessible by the owner)\r\n    function revokeDelegate(address identity, bytes32 delegateType, address delegate) external onlyOwner(identity) {\r\n        delegates[identity][delegate][delegateType].expires = block.timestamp;\r\n        emit DIDDelegateChanged(identity, delegateType, delegate, block.timestamp);\r\n    }\r\n\r\n    // Function to set an attribute (only accessible by the owner)\r\n    function setAttribute(address identity, bytes32 name, bytes memory value, uint256 expiresIn) external onlyOwner(identity) {\r\n        uint256 validTo = block.timestamp + expiresIn;\r\n        attributes[identity][keccak256(abi.encodePacked(name, value))] = Attribute(value, validTo);\r\n        emit DIDAttributeChanged(identity, name, value, validTo);\r\n    }\r\n\r\n    // Function to revoke an attribute (only accessible by the owner)\r\n    function revokeAttribute(address identity, bytes32 name, bytes memory value) external onlyOwner(identity) {\r\n        attributes[identity][keccak256(abi.encodePacked(name, value))].expires = block.timestamp;\r\n        emit DIDAttributeChanged(identity, name, value, block.timestamp);\r\n    }\r\n\r\n    // Function to add a document URL for a user\r\n    function addDocument(address _user, string memory url) external {\r\n        value[_user].push(url);\r\n    }\r\n\r\n    // Function to allow access to documents for a specific user\r\n    function allowAccess(address user) external {\r\n        ownership[msg.sender][user] = true; // Grant ownership to the user for the calling user's documents\r\n        if (previousData[msg.sender][user]) {\r\n            // If the user has previously had access, update their access status\r\n            for (uint i = 0; i < accessList[msg.sender].length; i++) {\r\n                if (accessList[msg.sender][i].user == user) {\r\n                    accessList[msg.sender][i].access = true;\r\n                }\r\n            }\r\n        } else {\r\n            // If the user has never had access, add them to the access list\r\n            accessList[msg.sender].push(Access(user, true));\r\n            previousData[msg.sender][user] = true;\r\n        }\r\n    }\r\n\r\n    // Function to disallow access for a specific user\r\n    function disallowAccess(address user) external {\r\n        ownership[msg.sender][user] = false; // Revoke ownership of the documents\r\n        for (uint i = 0; i < accessList[msg.sender].length; i++) {\r\n            if (accessList[msg.sender][i].user == user) {\r\n                accessList[msg.sender][i].access = false; // Set access to false for the user\r\n            }\r\n        }\r\n    }\r\n\r\n    // Function to display the documents owned by a specific user (access control applied)\r\n    function displayDocuments(address _user) external view returns (string[] memory) {\r\n        require(_user == msg.sender || ownership[_user][msg.sender], \"You don't have access\");\r\n        return value[_user];\r\n    }\r\n\r\n    // Function to get the list of users who have access to the calling user's documents\r\n    function shareAccess() external view returns (Access[] memory) {\r\n        return accessList[msg.sender];\r\n    }\r\n\r\n    // Helper functions to create hashes for various operations (for off-chain signing and validation)\r\n    function createChangeOwnerHash(address identity, address newOwner) public pure returns (bytes32) {\r\n        return keccak256(abi.encodePacked(\"changeOwner\", identity, newOwner));\r\n    }\r\n\r\n    function createAddDelegateHash(address identity, bytes32 delegateType, address delegate, uint256 expiresIn) public pure returns (bytes32) {\r\n        return keccak256(abi.encodePacked(\"addDelegate\", identity, delegateType, delegate, expiresIn));\r\n    }\r\n\r\n    function createRevokeDelegateHash(address identity, bytes32 delegateType, address delegate) public pure returns (bytes32) {\r\n        return keccak256(abi.encodePacked(\"revokeDelegate\", identity, delegateType, delegate));\r\n    }\r\n\r\n    function createSetAttributeHash(address identity, bytes32 name, bytes memory value, uint256 expiresIn) public pure returns (bytes32) {\r\n        return keccak256(abi.encodePacked(\"setAttribute\", identity, name, value, expiresIn));\r\n    }\r\n\r\n    function createRevokeAttributeHash(address identity, bytes32 name, bytes memory value) public pure returns (bytes32) {\r\n        return keccak256(abi.encodePacked(\"revokeAttribute\", identity, name, value));\r\n    }\r\n\r\n    // Function to get the chain ID (useful for identifying the network the contract is deployed on)\r\n    function getChainId() external view returns (uint256) {\r\n        return block.chainid;\r\n    }\r\n}\r\n",
  "sourcePath": "C:\\DIMS-app\\decentralized-identity-management\\smart-contracts\\contracts\\IdentityManager.sol",
  "compiler": {
    "name": "solc",
    "version": "0.8.29+commit.ab55807c.Emscripten.clang"
  },
  "schemaVersion": "3.4.16",
  "updatedAt": "2025-03-25T18:10:20.545Z",
  "devdoc": {
    "kind": "dev",
    "methods": {},
    "version": 1
  },
  "userdoc": {
    "kind": "user",
    "methods": {},
    "version": 1
  }
}