{
  "contractName": "IdentityManager",
  "abi": [
    {
      "anonymous": false,
      "inputs": [
        {
          "indexed": true,
          "internalType": "address",
          "name": "accessor",
          "type": "address"
        },
        {
          "indexed": false,
          "internalType": "string",
          "name": "resourceType",
          "type": "string"
        },
        {
          "indexed": false,
          "internalType": "string",
          "name": "resourceDetail",
          "type": "string"
        },
        {
          "indexed": false,
          "internalType": "uint256",
          "name": "timestamp",
          "type": "uint256"
        }
      ],
      "name": "AccessLogged",
      "type": "event"
    },
    {
      "anonymous": false,
      "inputs": [
        {
          "indexed": true,
          "internalType": "address",
          "name": "from",
          "type": "address"
        },
        {
          "indexed": true,
          "internalType": "address",
          "name": "to",
          "type": "address"
        },
        {
          "indexed": false,
          "internalType": "uint256",
          "name": "index",
          "type": "uint256"
        }
      ],
      "name": "DocumentAccessRevoked",
      "type": "event"
    },
    {
      "anonymous": false,
      "inputs": [
        {
          "indexed": true,
          "internalType": "address",
          "name": "from",
          "type": "address"
        },
        {
          "indexed": true,
          "internalType": "address",
          "name": "to",
          "type": "address"
        },
        {
          "indexed": false,
          "internalType": "uint256",
          "name": "index",
          "type": "uint256"
        }
      ],
      "name": "DocumentShared",
      "type": "event"
    },
    {
      "anonymous": false,
      "inputs": [
        {
          "indexed": true,
          "internalType": "address",
          "name": "user",
          "type": "address"
        },
        {
          "indexed": false,
          "internalType": "string",
          "name": "ipfsHash",
          "type": "string"
        },
        {
          "indexed": false,
          "internalType": "string",
          "name": "docType",
          "type": "string"
        },
        {
          "indexed": false,
          "internalType": "uint256",
          "name": "timestamp",
          "type": "uint256"
        }
      ],
      "name": "DocumentStored",
      "type": "event"
    },
    {
      "anonymous": false,
      "inputs": [
        {
          "indexed": true,
          "internalType": "address",
          "name": "from",
          "type": "address"
        },
        {
          "indexed": true,
          "internalType": "address",
          "name": "to",
          "type": "address"
        }
      ],
      "name": "ProfileAccessRevoked",
      "type": "event"
    },
    {
      "anonymous": false,
      "inputs": [
        {
          "indexed": true,
          "internalType": "address",
          "name": "user",
          "type": "address"
        }
      ],
      "name": "ProfileCreated",
      "type": "event"
    },
    {
      "anonymous": false,
      "inputs": [
        {
          "indexed": true,
          "internalType": "address",
          "name": "from",
          "type": "address"
        },
        {
          "indexed": true,
          "internalType": "address",
          "name": "to",
          "type": "address"
        }
      ],
      "name": "ProfileShared",
      "type": "event"
    },
    {
      "inputs": [
        {
          "internalType": "string",
          "name": "email",
          "type": "string"
        },
        {
          "internalType": "string",
          "name": "phoneNumber",
          "type": "string"
        },
        {
          "internalType": "string",
          "name": "ipfsPhoto",
          "type": "string"
        }
      ],
      "name": "createProfile",
      "outputs": [],
      "stateMutability": "nonpayable",
      "type": "function"
    },
    {
      "inputs": [
        {
          "internalType": "string",
          "name": "email",
          "type": "string"
        },
        {
          "internalType": "string",
          "name": "phoneNumber",
          "type": "string"
        },
        {
          "internalType": "string",
          "name": "ipfsPhoto",
          "type": "string"
        }
      ],
      "name": "updateProfile",
      "outputs": [],
      "stateMutability": "nonpayable",
      "type": "function"
    },
    {
      "inputs": [],
      "name": "getMyProfile",
      "outputs": [
        {
          "internalType": "string",
          "name": "",
          "type": "string"
        },
        {
          "internalType": "string",
          "name": "",
          "type": "string"
        },
        {
          "internalType": "string",
          "name": "",
          "type": "string"
        }
      ],
      "stateMutability": "view",
      "type": "function",
      "constant": true
    },
    {
      "inputs": [
        {
          "internalType": "address",
          "name": "user",
          "type": "address"
        }
      ],
      "name": "getProfileOf",
      "outputs": [
        {
          "internalType": "string",
          "name": "",
          "type": "string"
        },
        {
          "internalType": "string",
          "name": "",
          "type": "string"
        },
        {
          "internalType": "string",
          "name": "",
          "type": "string"
        }
      ],
      "stateMutability": "view",
      "type": "function",
      "constant": true
    },
    {
      "inputs": [
        {
          "internalType": "address",
          "name": "target",
          "type": "address"
        }
      ],
      "name": "shareProfileWith",
      "outputs": [],
      "stateMutability": "nonpayable",
      "type": "function"
    },
    {
      "inputs": [
        {
          "internalType": "address",
          "name": "target",
          "type": "address"
        }
      ],
      "name": "revokeProfileAccess",
      "outputs": [],
      "stateMutability": "nonpayable",
      "type": "function"
    },
    {
      "inputs": [
        {
          "internalType": "address",
          "name": "owner",
          "type": "address"
        }
      ],
      "name": "hasAccessToProfile",
      "outputs": [
        {
          "internalType": "bool",
          "name": "",
          "type": "bool"
        }
      ],
      "stateMutability": "view",
      "type": "function",
      "constant": true
    },
    {
      "inputs": [
        {
          "internalType": "string",
          "name": "ipfsHash",
          "type": "string"
        },
        {
          "internalType": "string",
          "name": "docType",
          "type": "string"
        }
      ],
      "name": "storeDocumentHash",
      "outputs": [],
      "stateMutability": "nonpayable",
      "type": "function"
    },
    {
      "inputs": [],
      "name": "getMyDocuments",
      "outputs": [
        {
          "components": [
            {
              "internalType": "string",
              "name": "ipfsHash",
              "type": "string"
            },
            {
              "internalType": "uint256",
              "name": "timestamp",
              "type": "uint256"
            },
            {
              "internalType": "string",
              "name": "docType",
              "type": "string"
            }
          ],
          "internalType": "struct IdentityManager.Document[]",
          "name": "",
          "type": "tuple[]"
        }
      ],
      "stateMutability": "view",
      "type": "function",
      "constant": true
    },
    {
      "inputs": [
        {
          "internalType": "uint256",
          "name": "index",
          "type": "uint256"
        }
      ],
      "name": "getMyDocument",
      "outputs": [
        {
          "components": [
            {
              "internalType": "string",
              "name": "ipfsHash",
              "type": "string"
            },
            {
              "internalType": "uint256",
              "name": "timestamp",
              "type": "uint256"
            },
            {
              "internalType": "string",
              "name": "docType",
              "type": "string"
            }
          ],
          "internalType": "struct IdentityManager.Document",
          "name": "",
          "type": "tuple"
        }
      ],
      "stateMutability": "view",
      "type": "function",
      "constant": true
    },
    {
      "inputs": [
        {
          "internalType": "address",
          "name": "target",
          "type": "address"
        },
        {
          "internalType": "uint256",
          "name": "index",
          "type": "uint256"
        }
      ],
      "name": "shareDocumentWith",
      "outputs": [],
      "stateMutability": "nonpayable",
      "type": "function"
    },
    {
      "inputs": [
        {
          "internalType": "address",
          "name": "from",
          "type": "address"
        },
        {
          "internalType": "uint256",
          "name": "index",
          "type": "uint256"
        }
      ],
      "name": "acceptDocumentShare",
      "outputs": [],
      "stateMutability": "nonpayable",
      "type": "function"
    },
    {
      "inputs": [
        {
          "internalType": "address",
          "name": "target",
          "type": "address"
        },
        {
          "internalType": "uint256",
          "name": "index",
          "type": "uint256"
        }
      ],
      "name": "revokeDocumentAccess",
      "outputs": [],
      "stateMutability": "nonpayable",
      "type": "function"
    },
    {
      "inputs": [
        {
          "internalType": "address",
          "name": "owner",
          "type": "address"
        },
        {
          "internalType": "uint256",
          "name": "index",
          "type": "uint256"
        }
      ],
      "name": "hasAccessToDocument",
      "outputs": [
        {
          "internalType": "bool",
          "name": "",
          "type": "bool"
        }
      ],
      "stateMutability": "view",
      "type": "function",
      "constant": true
    },
    {
      "inputs": [
        {
          "internalType": "address",
          "name": "owner",
          "type": "address"
        },
        {
          "internalType": "uint256",
          "name": "index",
          "type": "uint256"
        }
      ],
      "name": "getDocumentFrom",
      "outputs": [
        {
          "components": [
            {
              "internalType": "string",
              "name": "ipfsHash",
              "type": "string"
            },
            {
              "internalType": "uint256",
              "name": "timestamp",
              "type": "uint256"
            },
            {
              "internalType": "string",
              "name": "docType",
              "type": "string"
            }
          ],
          "internalType": "struct IdentityManager.Document",
          "name": "",
          "type": "tuple"
        }
      ],
      "stateMutability": "view",
      "type": "function",
      "constant": true
    },
    {
      "inputs": [],
      "name": "getMyAccessLogs",
      "outputs": [
        {
          "components": [
            {
              "internalType": "address",
              "name": "accessor",
              "type": "address"
            },
            {
              "internalType": "uint256",
              "name": "timestamp",
              "type": "uint256"
            },
            {
              "internalType": "string",
              "name": "resourceType",
              "type": "string"
            },
            {
              "internalType": "string",
              "name": "resourceDetail",
              "type": "string"
            }
          ],
          "internalType": "struct IdentityManager.AccessLog[]",
          "name": "",
          "type": "tuple[]"
        }
      ],
      "stateMutability": "view",
      "type": "function",
      "constant": true
    }
  ],
  "bytecode": "0x6080604052348015600f57600080fd5b50611a468061001f6000396000f3fe608060405234801561001057600080fd5b50600436106101005760003560e01c8063732ee66c11610097578063988e50d711610066578063988e50d71461025e5780639def09011461027e578063a15a652014610291578063af77749a146102a457600080fd5b8063732ee66c146102105780639111976e1461022357806395fcb2f9146102385780639841c82c1461024b57600080fd5b80633a8f1d31116100d35780633a8f1d311461016257806351ce52da146101a957806359cc17c9146101bc578063666409a7146101cf57600080fd5b806310de3566146101055780631105a5eb1461012357806321527e50146101385780633796525f1461014f575b600080fd5b61010d6102b7565b60405161011a9190611461565b60405180910390f35b6101366101313660046115ae565b610465565b005b610140610529565b60405161011a93929190611642565b61013661015d366004611685565b610786565b61019961017036600461170a565b6001600160a01b0316600090815260026020908152604080832033845290915290205460ff1690565b604051901515815260200161011a565b6101366101b736600461172c565b610839565b6101366101ca36600461172c565b6108e0565b6101996101dd36600461172c565b6001600160a01b039190911660009081526003602090815260408083203384528252808320938352929052205460ff1690565b61013661021e36600461170a565b610976565b61022b6109fe565b60405161011a9190611797565b61013661024636600461170a565b610b8d565b6101366102593660046115ae565b610c18565b61027161026c3660046117f0565b610d28565b60405161011a9190611809565b61014061028c36600461170a565b610ee9565b61027161029f36600461172c565b6111ac565b6101366102b236600461172c565b6113b6565b336000908152600460209081526040808320805482518185028101850190935280835260609492939192909184015b8282101561045c576000848152602090819020604080516080810182526004860290920180546001600160a01b03168352600181015493830193909352600283018054929392918401916103399061181c565b80601f01602080910402602001604051908101604052809291908181526020018280546103659061181c565b80156103b25780601f10610387576101008083540402835291602001916103b2565b820191906000526020600020905b81548152906001019060200180831161039557829003601f168201915b505050505081526020016003820180546103cb9061181c565b80601f01602080910402602001604051908101604052809291908181526020018280546103f79061181c565b80156104445780601f1061041957610100808354040283529160200191610444565b820191906000526020600020905b81548152906001019060200180831161042757829003601f168201915b505050505081525050815260200190600101906102e6565b50505050905090565b3360009081526020819052604090206003015460ff166104a05760405162461bcd60e51b815260040161049790611856565b60405180910390fd5b604080516080810182528481526020808201859052818301849052600160608301523360009081529081905291909120815181906104de90826118d5565b50602082015160018201906104f390826118d5565b506040820151600282019061050890826118d5565b50606091909101516003909101805460ff1916911515919091179055505050565b60608060606000806000336001600160a01b03166001600160a01b0316815260200190815260200160002060405180608001604052908160008201805461056f9061181c565b80601f016020809104026020016040519081016040528092919081815260200182805461059b9061181c565b80156105e85780601f106105bd576101008083540402835291602001916105e8565b820191906000526020600020905b8154815290600101906020018083116105cb57829003601f168201915b505050505081526020016001820180546106019061181c565b80601f016020809104026020016040519081016040528092919081815260200182805461062d9061181c565b801561067a5780601f1061064f5761010080835404028352916020019161067a565b820191906000526020600020905b81548152906001019060200180831161065d57829003601f168201915b505050505081526020016002820180546106939061181c565b80601f01602080910402602001604051908101604052809291908181526020018280546106bf9061181c565b801561070c5780601f106106e15761010080835404028352916020019161070c565b820191906000526020600020905b8154815290600101906020018083116106ef57829003601f168201915b50505091835250506003919091015460ff161515602090910152606081015190915061076e5760405162461bcd60e51b8152602060048201526011602482015270141c9bd99a5b19481b9bdd08199bdd5b99607a1b6044820152606401610497565b80516020820151604090920151909591945092509050565b33600090815260016020818152604080842081516060810183528781524281850152918201869052805493840181558452922082516003909202019081906107ce90826118d5565b5060208201516001820155604082015160028201906107ed90826118d5565b505050336001600160a01b03167f2fca4b73a01cd27c5d068895159be4df60fecee35e4dfec78b5a73ce3077b46183834260405161082d93929190611994565b60405180910390a25050565b6001600160a01b03821660009081526001602052604090205481106108705760405162461bcd60e51b8152600401610497906119ca565b6001600160a01b038216600081815260036020908152604080832033808552908352818420868552835292819020805460ff19166001179055518481529192917f195c22b233bb4ee95de7e4a499a9bdb25d9a09d8d9d6063345c120f23dc9f11091015b60405180910390a35050565b33600090815260016020526040902054811061090e5760405162461bcd60e51b8152600401610497906119ca565b3360008181526003602090815260408083206001600160a01b038716808552908352818420868552835292819020805460ff19166001179055518481529192917f195c22b233bb4ee95de7e4a499a9bdb25d9a09d8d9d6063345c120f23dc9f11091016108d4565b3360009081526020819052604090206003015460ff166109a85760405162461bcd60e51b815260040161049790611856565b3360008181526002602090815260408083206001600160a01b0386168085529252808320805460ff19169055519092917f73c29115a90a094cdecf9d1868b05a102c832f1de78ab8d52ac1829424023f8691a350565b336000908152600160209081526040808320805482518185028101850190935280835260609492939192909184015b8282101561045c5783829060005260206000209060030201604051806060016040529081600082018054610a609061181c565b80601f0160208091040260200160405190810160405280929190818152602001828054610a8c9061181c565b8015610ad95780601f10610aae57610100808354040283529160200191610ad9565b820191906000526020600020905b815481529060010190602001808311610abc57829003601f168201915b5050505050815260200160018201548152602001600282018054610afc9061181c565b80601f0160208091040260200160405190810160405280929190818152602001828054610b289061181c565b8015610b755780601f10610b4a57610100808354040283529160200191610b75565b820191906000526020600020905b815481529060010190602001808311610b5857829003601f168201915b50505050508152505081526020019060010190610a2d565b3360009081526020819052604090206003015460ff16610bbf5760405162461bcd60e51b815260040161049790611856565b3360008181526002602090815260408083206001600160a01b0386168085529252808320805460ff19166001179055519092917fb96824c386de92908f8d1f2daeb2c8a4f208da2d2eaef2995148efc2eda73fd891a350565b3360009081526020819052604090206003015460ff1615610c745760405162461bcd60e51b815260206004820152601660248201527550726f66696c6520616c72656164792065786973747360501b6044820152606401610497565b60408051608081018252848152602080820185905281830184905260016060830152336000908152908190529190912081518190610cb290826118d5565b5060208201516001820190610cc790826118d5565b5060408201516002820190610cdc90826118d5565b50606091909101516003909101805460ff191691151591909117905560405133907ff10ec97e920cde75887622583772c637595a40b1f7777c18e51ea36cd127475c90600090a2505050565b610d4c60405180606001604052806060815260200160008152602001606081525090565b336000908152600160205260409020548210610d7a5760405162461bcd60e51b8152600401610497906119ca565b336000908152600160205260409020805483908110610d9b57610d9b6119fa565b9060005260206000209060030201604051806060016040529081600082018054610dc49061181c565b80601f0160208091040260200160405190810160405280929190818152602001828054610df09061181c565b8015610e3d5780601f10610e1257610100808354040283529160200191610e3d565b820191906000526020600020905b815481529060010190602001808311610e2057829003601f168201915b5050505050815260200160018201548152602001600282018054610e609061181c565b80601f0160208091040260200160405190810160405280929190818152602001828054610e8c9061181c565b8015610ed95780601f10610eae57610100808354040283529160200191610ed9565b820191906000526020600020905b815481529060010190602001808311610ebc57829003601f168201915b5050505050815250509050919050565b6001600160a01b03811660009081526002602090815260408083203384529091529020546060908190819060ff16610f635760405162461bcd60e51b815260206004820152601860248201527f4163636573732064656e69656420746f2070726f66696c6500000000000000006044820152606401610497565b6001600160a01b038416600090815260208190526040808220815160808101909252805482908290610f949061181c565b80601f0160208091040260200160405190810160405280929190818152602001828054610fc09061181c565b801561100d5780601f10610fe25761010080835404028352916020019161100d565b820191906000526020600020905b815481529060010190602001808311610ff057829003601f168201915b505050505081526020016001820180546110269061181c565b80601f01602080910402602001604051908101604052809291908181526020018280546110529061181c565b801561109f5780601f106110745761010080835404028352916020019161109f565b820191906000526020600020905b81548152906001019060200180831161108257829003601f168201915b505050505081526020016002820180546110b89061181c565b80601f01602080910402602001604051908101604052809291908181526020018280546110e49061181c565b80156111315780601f1061110657610100808354040283529160200191611131565b820191906000526020600020905b81548152906001019060200180831161111457829003601f168201915b50505091835250506003919091015460ff16151560209091015260608101519091506111935760405162461bcd60e51b8152602060048201526011602482015270141c9bd99a5b19481b9bdd08199bdd5b99607a1b6044820152606401610497565b8051602082015160409092015190969195509350915050565b6111d060405180606001604052806060815260200160008152602001606081525090565b6001600160a01b0383166000908152600360209081526040808320338452825280832085845290915290205460ff1661123b5760405162461bcd60e51b815260206004820152600d60248201526c1058d8d95cdcc819195b9a5959609a1b6044820152606401610497565b6001600160a01b0383166000908152600160205260408120805484908110611265576112656119fa565b906000526020600020906003020160405180606001604052908160008201805461128e9061181c565b80601f01602080910402602001604051908101604052809291908181526020018280546112ba9061181c565b80156113075780601f106112dc57610100808354040283529160200191611307565b820191906000526020600020905b8154815290600101906020018083116112ea57829003601f168201915b505050505081526020016001820154815260200160028201805461132a9061181c565b80601f01602080910402602001604051908101604052809291908181526020018280546113569061181c565b80156113a35780601f10611378576101008083540402835291602001916113a3565b820191906000526020600020905b81548152906001019060200180831161138657829003601f168201915b5050509190925250919695505050505050565b3360008181526003602090815260408083206001600160a01b038716808552908352818420868552835292819020805460ff19169055518481529192917f37dc7adccc20c3a9fbb482e745e07624d5cfd4b7c3f8d47ef17e8e792f1831f991016108d4565b6000815180845260005b8181101561144157602081850181015186830182015201611425565b506000602082860101526020601f19601f83011685010191505092915050565b6000602082016020835280845180835260408501915060408160051b86010192506020860160005b828110156114fd57603f19878603018452815160018060a01b038151168652602081015160208701526040810151608060408801526114cb608088018261141b565b90506060820151915086810360608801526114e6818361141b565b965050506020938401939190910190600101611489565b50929695505050505050565b634e487b7160e01b600052604160045260246000fd5b600082601f83011261153057600080fd5b813567ffffffffffffffff81111561154a5761154a611509565b604051601f8201601f19908116603f0116810167ffffffffffffffff8111828210171561157957611579611509565b60405281815283820160200185101561159157600080fd5b816020850160208301376000918101602001919091529392505050565b6000806000606084860312156115c357600080fd5b833567ffffffffffffffff8111156115da57600080fd5b6115e68682870161151f565b935050602084013567ffffffffffffffff81111561160357600080fd5b61160f8682870161151f565b925050604084013567ffffffffffffffff81111561162c57600080fd5b6116388682870161151f565b9150509250925092565b606081526000611655606083018661141b565b8281036020840152611667818661141b565b9050828103604084015261167b818561141b565b9695505050505050565b6000806040838503121561169857600080fd5b823567ffffffffffffffff8111156116af57600080fd5b6116bb8582860161151f565b925050602083013567ffffffffffffffff8111156116d857600080fd5b6116e48582860161151f565b9150509250929050565b80356001600160a01b038116811461170557600080fd5b919050565b60006020828403121561171c57600080fd5b611725826116ee565b9392505050565b6000806040838503121561173f57600080fd5b611748836116ee565b946020939093013593505050565b600081516060845261176b606085018261141b565b9050602083015160208501526040830151848203604086015261178e828261141b565b95945050505050565b6000602082016020835280845180835260408501915060408160051b86010192506020860160005b828110156114fd57603f198786030184526117db858351611756565b945060209384019391909101906001016117bf565b60006020828403121561180257600080fd5b5035919050565b6020815260006117256020830184611756565b600181811c9082168061183057607f821691505b60208210810361185057634e487b7160e01b600052602260045260246000fd5b50919050565b602080825260169082015275141c9bd99a5b1948191bd95cc81b9bdd08195e1a5cdd60521b604082015260600190565b601f8211156118d057806000526020600020601f840160051c810160208510156118ad5750805b601f840160051c820191505b818110156118cd57600081556001016118b9565b50505b505050565b815167ffffffffffffffff8111156118ef576118ef611509565b611903816118fd845461181c565b84611886565b6020601f821160018114611937576000831561191f5750848201515b600019600385901b1c1916600184901b1784556118cd565b600084815260208120601f198516915b828110156119675787850151825560209485019460019092019101611947565b50848210156119855786840151600019600387901b60f8161c191681555b50505050600190811b01905550565b6060815260006119a7606083018661141b565b82810360208401526119b9818661141b565b915050826040830152949350505050565b602080825260169082015275092dcecc2d8d2c840c8dec6eadacadce840d2dcc8caf60531b604082015260600190565b634e487b7160e01b600052603260045260246000fdfea2646970667358221220f4e7e3adcd94587bde9952aee04725da090d06c93bbbbf12b6ca94a6f74d300b64736f6c634300081d0033",
  "immutableReferences": {},
  "source": "// SPDX-License-Identifier: MIT\r\npragma solidity ^0.8.29;\r\n\r\ncontract IdentityManager {\r\n    struct Document {\r\n        string ipfsHash;\r\n        uint256 timestamp;\r\n        string docType;\r\n    }\r\n\r\n    struct Profile {\r\n        string email;\r\n        string phoneNumber;\r\n        string ipfsPhoto;\r\n        bool exists;\r\n    }\r\n\r\n    struct AccessLog {\r\n        address accessor;\r\n        uint256 timestamp;\r\n        string resourceType; // \"document\" or \"profile\"\r\n        string resourceDetail; // docType or \"full-profile\"\r\n    }\r\n\r\n    mapping(address => Profile) private profiles;\r\n    mapping(address => Document[]) private documents;\r\n    mapping(address => mapping(address => bool)) private profileAccess;\r\n    mapping(address => mapping(address => mapping(uint256 => bool))) private documentAccess;\r\n    mapping(address => AccessLog[]) private accessLogs;\r\n\r\n    event ProfileCreated(address indexed user);\r\n    event ProfileShared(address indexed from, address indexed to);\r\n    event ProfileAccessRevoked(address indexed from, address indexed to);\r\n    event DocumentStored(address indexed user, string ipfsHash, string docType, uint256 timestamp);\r\n    event DocumentShared(address indexed from, address indexed to, uint index);\r\n    event DocumentAccessRevoked(address indexed from, address indexed to, uint index);\r\n    event AccessLogged(address indexed accessor, string resourceType, string resourceDetail, uint256 timestamp);\r\n\r\n    modifier onlyProfileOwner() {\r\n        require(profiles[msg.sender].exists, \"Profile does not exist\");\r\n        _;\r\n    }\r\n\r\n    function createProfile(string memory email, string memory phoneNumber, string memory ipfsPhoto) public {\r\n        require(!profiles[msg.sender].exists, \"Profile already exists\");\r\n        profiles[msg.sender] = Profile(email, phoneNumber, ipfsPhoto, true);\r\n        emit ProfileCreated(msg.sender);\r\n    }\r\n\r\n    function updateProfile(string memory email, string memory phoneNumber, string memory ipfsPhoto) public onlyProfileOwner {\r\n        profiles[msg.sender] = Profile(email, phoneNumber, ipfsPhoto, true);\r\n    }\r\n\r\n    function getMyProfile() public view returns (string memory, string memory, string memory) {\r\n        Profile memory p = profiles[msg.sender];\r\n        require(p.exists, \"Profile not found\");\r\n        return (p.email, p.phoneNumber, p.ipfsPhoto);\r\n    }\r\n\r\n    function getProfileOf(address user) public view returns (string memory, string memory, string memory) {\r\n        require(profileAccess[user][msg.sender], \"Access denied to profile\");\r\n        Profile memory p = profiles[user];\r\n        require(p.exists, \"Profile not found\");\r\n        return (p.email, p.phoneNumber, p.ipfsPhoto);\r\n    }\r\n\r\n    function shareProfileWith(address target) public onlyProfileOwner {\r\n        profileAccess[msg.sender][target] = true;\r\n        emit ProfileShared(msg.sender, target);\r\n    }\r\n\r\n    function revokeProfileAccess(address target) public onlyProfileOwner {\r\n        profileAccess[msg.sender][target] = false;\r\n        emit ProfileAccessRevoked(msg.sender, target);\r\n    }\r\n\r\n    function hasAccessToProfile(address owner) public view returns (bool) {\r\n        return profileAccess[owner][msg.sender];\r\n    }\r\n\r\n    function storeDocumentHash(string memory ipfsHash, string memory docType) public {\r\n        documents[msg.sender].push(Document(ipfsHash, block.timestamp, docType));\r\n        emit DocumentStored(msg.sender, ipfsHash, docType, block.timestamp);\r\n    }\r\n\r\n    function getMyDocuments() public view returns (Document[] memory) {\r\n        return documents[msg.sender];\r\n    }\r\n\r\n    function getMyDocument(uint index) public view returns (Document memory) {\r\n        require(index < documents[msg.sender].length, \"Invalid document index\");\r\n        return documents[msg.sender][index];\r\n    }\r\n\r\n    function shareDocumentWith(address target, uint index) public {\r\n        require(index < documents[msg.sender].length, \"Invalid document index\");\r\n        documentAccess[msg.sender][target][index] = true;\r\n        emit DocumentShared(msg.sender, target, index);\r\n    }\r\n\r\n    function acceptDocumentShare(address from, uint index) public {\r\n        require(index < documents[from].length, \"Invalid document index\");\r\n        documentAccess[from][msg.sender][index] = true;\r\n        emit DocumentShared(from, msg.sender, index);\r\n    }\r\n\r\n    function revokeDocumentAccess(address target, uint index) public {\r\n        documentAccess[msg.sender][target][index] = false;\r\n        emit DocumentAccessRevoked(msg.sender, target, index);\r\n    }\r\n\r\n    function hasAccessToDocument(address owner, uint index) public view returns (bool) {\r\n        return documentAccess[owner][msg.sender][index];\r\n    }\r\n\r\n    function getDocumentFrom(address owner, uint index) public view returns (Document memory) {\r\n        require(documentAccess[owner][msg.sender][index], \"Access denied\");\r\n        Document memory doc = documents[owner][index];\r\n        return doc;\r\n    }\r\n\r\n    function logAccess(address accessor, string memory resourceType, string memory resourceDetail) internal {\r\n        accessLogs[accessor].push(AccessLog(accessor, block.timestamp, resourceType, resourceDetail));\r\n        emit AccessLogged(accessor, resourceType, resourceDetail, block.timestamp);\r\n    }\r\n\r\n    function getMyAccessLogs() public view returns (AccessLog[] memory) {\r\n        return accessLogs[msg.sender];\r\n    }\r\n}",
  "sourcePath": "C:\\Users\\noell\\Bureau\\DIMS-app\\decentralized-identity-management\\smart-contracts\\contracts\\IdentityManager.sol",
  "compiler": {
    "name": "solc",
    "version": "0.8.29+commit.ab55807c.Emscripten.clang"
  },
  "schemaVersion": "3.4.16",
  "updatedAt": "2025-03-25T00:02:43.613Z",
  "networkType": "ethereum",
  "devdoc": {
    "kind": "dev",
    "methods": {},
    "version": 1
  },
  "userdoc": {
    "kind": "user",
    "methods": {},
    "version": 1
  }
}