{
  "contractName": "IdentityManager",
  "abi": [
    {
      "anonymous": false,
      "inputs": [
        {
          "indexed": true,
          "internalType": "address",
          "name": "identity",
          "type": "address"
        },
        {
          "indexed": false,
          "internalType": "bytes32",
          "name": "name",
          "type": "bytes32"
        },
        {
          "indexed": false,
          "internalType": "bytes",
          "name": "value",
          "type": "bytes"
        },
        {
          "indexed": false,
          "internalType": "uint256",
          "name": "validTo",
          "type": "uint256"
        }
      ],
      "name": "DIDAttributeChanged",
      "type": "event"
    },
    {
      "anonymous": false,
      "inputs": [
        {
          "indexed": true,
          "internalType": "address",
          "name": "identity",
          "type": "address"
        },
        {
          "indexed": false,
          "internalType": "bytes32",
          "name": "delegateType",
          "type": "bytes32"
        },
        {
          "indexed": false,
          "internalType": "address",
          "name": "delegate",
          "type": "address"
        },
        {
          "indexed": false,
          "internalType": "uint256",
          "name": "validTo",
          "type": "uint256"
        }
      ],
      "name": "DIDDelegateChanged",
      "type": "event"
    },
    {
      "anonymous": false,
      "inputs": [
        {
          "indexed": true,
          "internalType": "address",
          "name": "identity",
          "type": "address"
        },
        {
          "indexed": false,
          "internalType": "address",
          "name": "newOwner",
          "type": "address"
        }
      ],
      "name": "DIDOwnerChanged",
      "type": "event"
    },
    {
      "inputs": [
        {
          "internalType": "address",
          "name": "",
          "type": "address"
        },
        {
          "internalType": "uint256",
          "name": "",
          "type": "uint256"
        }
      ],
      "name": "accessList",
      "outputs": [
        {
          "internalType": "address",
          "name": "user",
          "type": "address"
        },
        {
          "internalType": "bool",
          "name": "access",
          "type": "bool"
        }
      ],
      "stateMutability": "view",
      "type": "function",
      "constant": true
    },
    {
      "inputs": [
        {
          "internalType": "address",
          "name": "",
          "type": "address"
        },
        {
          "internalType": "uint256",
          "name": "",
          "type": "uint256"
        }
      ],
      "name": "documentURLs",
      "outputs": [
        {
          "internalType": "string",
          "name": "",
          "type": "string"
        }
      ],
      "stateMutability": "view",
      "type": "function",
      "constant": true
    },
    {
      "inputs": [
        {
          "internalType": "address",
          "name": "",
          "type": "address"
        },
        {
          "internalType": "bytes32",
          "name": "",
          "type": "bytes32"
        }
      ],
      "name": "identityAttributes",
      "outputs": [
        {
          "internalType": "bytes",
          "name": "value",
          "type": "bytes"
        },
        {
          "internalType": "uint256",
          "name": "expires",
          "type": "uint256"
        }
      ],
      "stateMutability": "view",
      "type": "function",
      "constant": true
    },
    {
      "inputs": [
        {
          "internalType": "address",
          "name": "",
          "type": "address"
        },
        {
          "internalType": "address",
          "name": "",
          "type": "address"
        },
        {
          "internalType": "bytes32",
          "name": "",
          "type": "bytes32"
        }
      ],
      "name": "identityDelegates",
      "outputs": [
        {
          "internalType": "bytes32",
          "name": "delegateType",
          "type": "bytes32"
        },
        {
          "internalType": "uint256",
          "name": "expires",
          "type": "uint256"
        }
      ],
      "stateMutability": "view",
      "type": "function",
      "constant": true
    },
    {
      "inputs": [
        {
          "internalType": "address",
          "name": "",
          "type": "address"
        }
      ],
      "name": "identityOwners",
      "outputs": [
        {
          "internalType": "address",
          "name": "",
          "type": "address"
        }
      ],
      "stateMutability": "view",
      "type": "function",
      "constant": true
    },
    {
      "inputs": [
        {
          "internalType": "address",
          "name": "",
          "type": "address"
        },
        {
          "internalType": "address",
          "name": "",
          "type": "address"
        }
      ],
      "name": "ownership",
      "outputs": [
        {
          "internalType": "bool",
          "name": "",
          "type": "bool"
        }
      ],
      "stateMutability": "view",
      "type": "function",
      "constant": true
    },
    {
      "inputs": [
        {
          "internalType": "address",
          "name": "",
          "type": "address"
        },
        {
          "internalType": "address",
          "name": "",
          "type": "address"
        }
      ],
      "name": "previousAccessRecords",
      "outputs": [
        {
          "internalType": "bool",
          "name": "",
          "type": "bool"
        }
      ],
      "stateMutability": "view",
      "type": "function",
      "constant": true
    },
    {
      "inputs": [
        {
          "internalType": "address",
          "name": "identity",
          "type": "address"
        }
      ],
      "name": "getOwner",
      "outputs": [
        {
          "internalType": "address",
          "name": "",
          "type": "address"
        }
      ],
      "stateMutability": "view",
      "type": "function",
      "constant": true
    },
    {
      "inputs": [
        {
          "internalType": "address",
          "name": "identity",
          "type": "address"
        },
        {
          "internalType": "address",
          "name": "newOwner",
          "type": "address"
        }
      ],
      "name": "changeOwner",
      "outputs": [],
      "stateMutability": "nonpayable",
      "type": "function"
    },
    {
      "inputs": [
        {
          "internalType": "address",
          "name": "identity",
          "type": "address"
        },
        {
          "internalType": "bytes32",
          "name": "delegateType",
          "type": "bytes32"
        },
        {
          "internalType": "address",
          "name": "delegate",
          "type": "address"
        },
        {
          "internalType": "uint256",
          "name": "expiresIn",
          "type": "uint256"
        }
      ],
      "name": "addDelegate",
      "outputs": [],
      "stateMutability": "nonpayable",
      "type": "function"
    },
    {
      "inputs": [
        {
          "internalType": "address",
          "name": "identity",
          "type": "address"
        },
        {
          "internalType": "bytes32",
          "name": "delegateType",
          "type": "bytes32"
        },
        {
          "internalType": "address",
          "name": "delegate",
          "type": "address"
        }
      ],
      "name": "revokeDelegate",
      "outputs": [],
      "stateMutability": "nonpayable",
      "type": "function"
    },
    {
      "inputs": [
        {
          "internalType": "address",
          "name": "identity",
          "type": "address"
        },
        {
          "internalType": "bytes32",
          "name": "name",
          "type": "bytes32"
        },
        {
          "internalType": "bytes",
          "name": "attributeValue",
          "type": "bytes"
        },
        {
          "internalType": "uint256",
          "name": "expiresIn",
          "type": "uint256"
        }
      ],
      "name": "setAttribute",
      "outputs": [],
      "stateMutability": "nonpayable",
      "type": "function"
    },
    {
      "inputs": [
        {
          "internalType": "address",
          "name": "identity",
          "type": "address"
        },
        {
          "internalType": "bytes32",
          "name": "name",
          "type": "bytes32"
        },
        {
          "internalType": "bytes",
          "name": "attributeValue",
          "type": "bytes"
        }
      ],
      "name": "revokeAttribute",
      "outputs": [],
      "stateMutability": "nonpayable",
      "type": "function"
    },
    {
      "inputs": [
        {
          "internalType": "address",
          "name": "user",
          "type": "address"
        },
        {
          "internalType": "string",
          "name": "url",
          "type": "string"
        }
      ],
      "name": "addDocument",
      "outputs": [],
      "stateMutability": "nonpayable",
      "type": "function"
    },
    {
      "inputs": [
        {
          "internalType": "address",
          "name": "identity",
          "type": "address"
        },
        {
          "internalType": "address",
          "name": "newOwner",
          "type": "address"
        },
        {
          "internalType": "uint8",
          "name": "v",
          "type": "uint8"
        },
        {
          "internalType": "bytes32",
          "name": "r",
          "type": "bytes32"
        },
        {
          "internalType": "bytes32",
          "name": "s",
          "type": "bytes32"
        }
      ],
      "name": "changeOwnerSigned",
      "outputs": [],
      "stateMutability": "nonpayable",
      "type": "function"
    },
    {
      "inputs": [
        {
          "internalType": "address",
          "name": "identity",
          "type": "address"
        },
        {
          "internalType": "bytes32",
          "name": "delegateType",
          "type": "bytes32"
        },
        {
          "internalType": "address",
          "name": "delegate",
          "type": "address"
        },
        {
          "internalType": "uint256",
          "name": "expiresIn",
          "type": "uint256"
        },
        {
          "internalType": "uint8",
          "name": "v",
          "type": "uint8"
        },
        {
          "internalType": "bytes32",
          "name": "r",
          "type": "bytes32"
        },
        {
          "internalType": "bytes32",
          "name": "s",
          "type": "bytes32"
        }
      ],
      "name": "addDelegateSigned",
      "outputs": [],
      "stateMutability": "nonpayable",
      "type": "function"
    },
    {
      "inputs": [
        {
          "internalType": "address",
          "name": "user",
          "type": "address"
        }
      ],
      "name": "allowAccess",
      "outputs": [],
      "stateMutability": "nonpayable",
      "type": "function"
    },
    {
      "inputs": [
        {
          "internalType": "address",
          "name": "user",
          "type": "address"
        }
      ],
      "name": "disallowAccess",
      "outputs": [],
      "stateMutability": "nonpayable",
      "type": "function"
    },
    {
      "inputs": [
        {
          "internalType": "address",
          "name": "user",
          "type": "address"
        }
      ],
      "name": "displayDocuments",
      "outputs": [
        {
          "internalType": "string[]",
          "name": "",
          "type": "string[]"
        }
      ],
      "stateMutability": "view",
      "type": "function",
      "constant": true
    },
    {
      "inputs": [],
      "name": "shareAccess",
      "outputs": [
        {
          "components": [
            {
              "internalType": "address",
              "name": "user",
              "type": "address"
            },
            {
              "internalType": "bool",
              "name": "access",
              "type": "bool"
            }
          ],
          "internalType": "struct IdentityManager.Access[]",
          "name": "",
          "type": "tuple[]"
        }
      ],
      "stateMutability": "view",
      "type": "function",
      "constant": true
    },
    {
      "inputs": [
        {
          "internalType": "address",
          "name": "identity",
          "type": "address"
        },
        {
          "internalType": "address",
          "name": "newOwner",
          "type": "address"
        }
      ],
      "name": "createChangeOwnerHash",
      "outputs": [
        {
          "internalType": "bytes32",
          "name": "",
          "type": "bytes32"
        }
      ],
      "stateMutability": "pure",
      "type": "function",
      "constant": true
    },
    {
      "inputs": [
        {
          "internalType": "address",
          "name": "identity",
          "type": "address"
        },
        {
          "internalType": "bytes32",
          "name": "delegateType",
          "type": "bytes32"
        },
        {
          "internalType": "address",
          "name": "delegate",
          "type": "address"
        },
        {
          "internalType": "uint256",
          "name": "expiresIn",
          "type": "uint256"
        }
      ],
      "name": "createAddDelegateHash",
      "outputs": [
        {
          "internalType": "bytes32",
          "name": "",
          "type": "bytes32"
        }
      ],
      "stateMutability": "pure",
      "type": "function",
      "constant": true
    },
    {
      "inputs": [
        {
          "internalType": "address",
          "name": "identity",
          "type": "address"
        },
        {
          "internalType": "bytes32",
          "name": "delegateType",
          "type": "bytes32"
        },
        {
          "internalType": "address",
          "name": "delegate",
          "type": "address"
        }
      ],
      "name": "createRevokeDelegateHash",
      "outputs": [
        {
          "internalType": "bytes32",
          "name": "",
          "type": "bytes32"
        }
      ],
      "stateMutability": "pure",
      "type": "function",
      "constant": true
    },
    {
      "inputs": [
        {
          "internalType": "address",
          "name": "identity",
          "type": "address"
        },
        {
          "internalType": "bytes32",
          "name": "name",
          "type": "bytes32"
        },
        {
          "internalType": "bytes",
          "name": "attributeValue",
          "type": "bytes"
        },
        {
          "internalType": "uint256",
          "name": "expiresIn",
          "type": "uint256"
        }
      ],
      "name": "createSetAttributeHash",
      "outputs": [
        {
          "internalType": "bytes32",
          "name": "",
          "type": "bytes32"
        }
      ],
      "stateMutability": "pure",
      "type": "function",
      "constant": true
    },
    {
      "inputs": [
        {
          "internalType": "address",
          "name": "identity",
          "type": "address"
        },
        {
          "internalType": "bytes32",
          "name": "name",
          "type": "bytes32"
        },
        {
          "internalType": "bytes",
          "name": "attributeValue",
          "type": "bytes"
        }
      ],
      "name": "createRevokeAttributeHash",
      "outputs": [
        {
          "internalType": "bytes32",
          "name": "",
          "type": "bytes32"
        }
      ],
      "stateMutability": "pure",
      "type": "function",
      "constant": true
    },
    {
      "inputs": [],
      "name": "getChainId",
      "outputs": [
        {
          "internalType": "uint256",
          "name": "",
          "type": "uint256"
        }
      ],
      "stateMutability": "view",
      "type": "function",
      "constant": true
    }
  ],
  "bytecode": "0x6080604052348015600f57600080fd5b50611bf48061001f6000396000f3fe608060405234801561001057600080fd5b506004361061018d5760003560e01c8063974fe591116100de578063bc8bef8111610097578063d0cb151911610071578063d0cb151914610420578063f00d4b5d14610440578063fa54416114610453578063fbc61c4a1461046657600080fd5b8063bc8bef81146103e5578063c31e4997146103fa578063c4a85bc11461040d57600080fd5b8063974fe591146103205780639c2764d81461034e578063a7068d6614610399578063a8d115b0146103ac578063b30bdf09146103bf578063b4449c30146103d257600080fd5b806367e4f1bf1161014b5780637de0fa55116101255780637de0fa551461026e57806380b29f7c1461028e578063852976e4146102a157806396ceead3146102e257600080fd5b806367e4f1bf1461021657806370c2b419146102295780637ad4b0a41461025b57600080fd5b8062c023da1461019257806332ba5e6f146101a75780633408e470146101ba5780634e39a72a146101cf57806351a7bac2146101f05780636566876414610203575b600080fd5b6101a56101a03660046114ad565b610479565b005b6101a56101b5366004611515565b610561565b465b6040519081526020015b60405180910390f35b6101e26101dd36600461156a565b610699565b6040516101c69291906115e4565b6101bc6101fe366004611606565b610748565b6101a5610211366004611665565b610781565b6101bc6102243660046116c7565b610823565b61023c61023736600461156a565b610888565b604080516001600160a01b0390931683529015156020830152016101c6565b6101a5610269366004611606565b6108cb565b61028161027c366004611703565b6109de565b6040516101c6919061171e565b6101a561029c3660046116c7565b610b48565b6102ca6102af366004611703565b6000602081905290815260409020546001600160a01b031681565b6040516001600160a01b0390911681526020016101c6565b6103106102f0366004611783565b600660209081526000928352604080842090915290825290205460ff1681565b60405190151581526020016101c6565b61031061032e366004611783565b600460209081526000928352604080842090915290825290205460ff1681565b61038461035c3660046117b6565b6001602081815260009485526040808620825293855283852090529083529120805491015482565b604080519283526020830191909152016101c6565b6101a56103a73660046117f3565b610bf4565b6101bc6103ba366004611783565b610cc8565b6101a56103cd366004611837565b610d22565b6101a56103e0366004611703565b610ef0565b6103ed610fcd565b6040516101c691906118a2565b6101bc6104083660046114ad565b611050565b6101a561041b366004611703565b611067565b61043361042e36600461156a565b6111ed565b6040516101c691906118fc565b6101a561044e366004611783565b6112a6565b6102ca610461366004611703565b611346565b6101bc6104743660046117f3565b61138c565b8261048381611346565b6001600160a01b0316336001600160a01b0316146104bc5760405162461bcd60e51b81526004016104b39061190f565b60405180910390fd5b6001600160a01b03841660009081526002602090815260408083209051429391926104eb91889188910161193f565b60405160208183030381529060405280519060200120815260200190815260200160002060010181905550836001600160a01b03167f3c245a8c1b6b130ac5da86703bf855a1d9657013c1d88239123bbfb25f5252e384844260405161055393929190611965565b60405180910390a250505050565b600061056d8686610cc8565b6040805160008082526020820180845284905260ff88169282019290925260608101869052608081018590529192509060019060a0016020604051602081039080840390855afa1580156105c5573d6000803e3d6000fd5b5050506020604051035190506105da87611346565b6001600160a01b0316816001600160a01b03161461062f5760405162461bcd60e51b81526020600482015260126024820152715369676e617475726520696e76616c69646560701b60448201526064016104b3565b6001600160a01b038781166000818152602081815260409182902080546001600160a01b031916948b169485179055905192835290917f9071b3f486383ebd5972712e0a90e1012d2f68a61306af305f8bdc974debde87910160405180910390a250505050505050565b60026020908152600092835260408084209091529082529020805481906106bf9061198e565b80601f01602080910402602001604051908101604052809291908181526020018280546106eb9061198e565b80156107385780601f1061070d57610100808354040283529160200191610738565b820191906000526020600020905b81548152906001019060200180831161071b57829003601f168201915b5050505050908060010154905082565b60008484848460405160200161076194939291906119c8565b604051602081830303815290604052805190602001209050949350505050565b336001600160a01b038316146107ec5760405162461bcd60e51b815260206004820152602a60248201527f596f752063616e206f6e6c792075706c6f616420646f63756d656e747320666f60448201526939103cb7bab939b2b63360b11b60648201526084016104b3565b6001600160a01b03821660009081526003602090815260408220805460018101825590835291200161081e8282611a71565b505050565b6040516d7265766f6b6544656c656761746560901b60208201526001600160601b0319606085811b8216602e8401526042830185905283901b1660628201526000906076015b6040516020818303038152906040528051906020012090509392505050565b600560205281600052604060002081815481106108a457600080fd5b6000918252602090912001546001600160a01b0381169250600160a01b900460ff16905082565b836108d581611346565b6001600160a01b0316336001600160a01b0316146109055760405162461bcd60e51b81526004016104b39061190f565b60006109118342611b30565b60408051808201825286815260208082018490526001600160a01b038a1660009081526002825283812093519495509193610950918a918a910161193f565b60408051601f19818403018152918152815160209283012083529082019290925201600020815181906109839082611a71565b5060208201518160010155905050856001600160a01b03167f3c245a8c1b6b130ac5da86703bf855a1d9657013c1d88239123bbfb25f5252e38686846040516109ce93929190611965565b60405180910390a2505050505050565b60606001600160a01b038216331480610a1a57506001600160a01b038216600090815260046020908152604080832033845290915290205460ff165b610a5e5760405162461bcd60e51b8152602060048201526015602482015274596f7520646f6e277420686176652061636365737360581b60448201526064016104b3565b6001600160a01b038216600090815260036020908152604080832080548251818502810185019093528083529193909284015b82821015610b3d578382906000526020600020018054610ab09061198e565b80601f0160208091040260200160405190810160405280929190818152602001828054610adc9061198e565b8015610b295780601f10610afe57610100808354040283529160200191610b29565b820191906000526020600020905b815481529060010190602001808311610b0c57829003601f168201915b505050505081526020019060010190610a91565b505050509050919050565b82610b5281611346565b6001600160a01b0316336001600160a01b031614610b825760405162461bcd60e51b81526004016104b39061190f565b6001600160a01b03848116600081815260016020818152604080842095881680855295825280842089855282529283902042920182905582518881529081019490945290830152907fca4b351e0fc5a646ec7f99026c19fbc183d6d851946cdb5831f0c15fbec3ec1d90606001610553565b83610bfe81611346565b6001600160a01b0316336001600160a01b031614610c2e5760405162461bcd60e51b81526004016104b39061190f565b6000610c3a8342611b30565b60408051808201825287815260208082018481526001600160a01b038b811660008181526001808652878220938d168083529386528782208e8352865290879020955186559251949092019390935583518a8152918201929092529182018390529192507fca4b351e0fc5a646ec7f99026c19fbc183d6d851946cdb5831f0c15fbec3ec1d906060016109ce565b6040516a31b430b733b2a7bbb732b960a91b60208201526001600160601b0319606084811b8216602b84015283901b16603f8201526000906053016040516020818303038152906040528051906020012090505b92915050565b6000610d308888888861138c565b6040805160008082526020820180845284905260ff88169282019290925260608101869052608081018590529192509060019060a0016020604051602081039080840390855afa158015610d88573d6000803e3d6000fd5b505050602060405103519050610d9d89611346565b6001600160a01b0316816001600160a01b031614610df25760405162461bcd60e51b81526020600482015260126024820152715369676e617475726520696e76616c69646560701b60448201526064016104b3565b6000610dfe8742611b30565b905060405180604001604052808a815260200182815250600160008c6001600160a01b03166001600160a01b0316815260200190815260200160002060008a6001600160a01b03166001600160a01b0316815260200190815260200160002060008b81526020019081526020016000206000820151816000015560208201518160010155905050896001600160a01b03167fca4b351e0fc5a646ec7f99026c19fbc183d6d851946cdb5831f0c15fbec3ec1d8a8a84604051610edc939291909283526001600160a01b03919091166020830152604082015260600190565b60405180910390a250505050505050505050565b3360009081526004602090815260408083206001600160a01b03851684529091528120805460ff191690555b33600090815260056020526040902054811015610fc95733600090815260056020526040902080546001600160a01b038416919083908110610f6057610f60611b51565b6000918252602090912001546001600160a01b031603610fc157336000908152600560205260408120805483908110610f9b57610f9b611b51565b60009182526020909120018054911515600160a01b0260ff60a01b199092169190911790555b600101610f1c565b5050565b336000908152600560209081526040808320805482518185028101850190935280835260609492939192909184015b8282101561104757600084815260209081902060408051808201909152908401546001600160a01b0381168252600160a01b900460ff16151581830152825260019092019101610ffc565b50505050905090565b600083838360405160200161086993929190611b67565b3360008181526004602090815260408083206001600160a01b038616808552908352818420805460ff1916600117905593835260068252808320938352929052205460ff16156111655760005b33600090815260056020526040902054811015610fc95733600090815260056020526040902080546001600160a01b0384169190839081106110f8576110f8611b51565b6000918252602090912001546001600160a01b03160361115d573360009081526005602052604090208054600191908390811061113757611137611b51565b60009182526020909120018054911515600160a01b0260ff60a01b199092169190911790555b6001016110b4565b336000818152600560209081526040808320815180830183526001600160a01b03878116808352600183870181815285548083018755958952878920945194909501805495511515600160a01b026001600160a81b03199096169490931693909317939093179055948452600683528184209084529091529020805460ff1916909117905550565b6003602052816000526040600020818154811061120957600080fd5b906000526020600020016000915091505080546112259061198e565b80601f01602080910402602001604051908101604052809291908181526020018280546112519061198e565b801561129e5780601f106112735761010080835404028352916020019161129e565b820191906000526020600020905b81548152906001019060200180831161128157829003601f168201915b505050505081565b816112b081611346565b6001600160a01b0316336001600160a01b0316146112e05760405162461bcd60e51b81526004016104b39061190f565b6001600160a01b038381166000818152602081815260409182902080546001600160a01b0319169487169485179055905192835290917f9071b3f486383ebd5972712e0a90e1012d2f68a61306af305f8bdc974debde87910160405180910390a2505050565b6001600160a01b0381811660009081526020819052604081205490911615611388576001600160a01b0380831660009081526020819052604090205416610d1c565b5090565b6040516a61646444656c656761746560a81b60208201526001600160601b0319606086811b8216602b840152603f830186905284901b16605f82015260738101829052600090609301610761565b80356001600160a01b03811681146113f157600080fd5b919050565b634e487b7160e01b600052604160045260246000fd5b60008067ffffffffffffffff841115611427576114276113f6565b50604051601f19601f85018116603f0116810181811067ffffffffffffffff82111715611456576114566113f6565b60405283815290508082840185101561146e57600080fd5b83836020830137600060208583010152509392505050565b600082601f83011261149757600080fd5b6114a68383356020850161140c565b9392505050565b6000806000606084860312156114c257600080fd5b6114cb846113da565b925060208401359150604084013567ffffffffffffffff8111156114ee57600080fd5b6114fa86828701611486565b9150509250925092565b803560ff811681146113f157600080fd5b600080600080600060a0868803121561152d57600080fd5b611536866113da565b9450611544602087016113da565b935061155260408701611504565b94979396509394606081013594506080013592915050565b6000806040838503121561157d57600080fd5b611586836113da565b946020939093013593505050565b60005b838110156115af578181015183820152602001611597565b50506000910152565b600081518084526115d0816020860160208601611594565b601f01601f19169290920160200192915050565b6040815260006115f760408301856115b8565b90508260208301529392505050565b6000806000806080858703121561161c57600080fd5b611625856113da565b935060208501359250604085013567ffffffffffffffff81111561164857600080fd5b61165487828801611486565b949793965093946060013593505050565b6000806040838503121561167857600080fd5b611681836113da565b9150602083013567ffffffffffffffff81111561169d57600080fd5b8301601f810185136116ae57600080fd5b6116bd8582356020840161140c565b9150509250929050565b6000806000606084860312156116dc57600080fd5b6116e5846113da565b9250602084013591506116fa604085016113da565b90509250925092565b60006020828403121561171557600080fd5b6114a6826113da565b6000602082016020835280845180835260408501915060408160051b86010192506020860160005b8281101561177757603f198786030184526117628583516115b8565b94506020938401939190910190600101611746565b50929695505050505050565b6000806040838503121561179657600080fd5b61179f836113da565b91506117ad602084016113da565b90509250929050565b6000806000606084860312156117cb57600080fd5b6117d4846113da565b92506117e2602085016113da565b929592945050506040919091013590565b6000806000806080858703121561180957600080fd5b611812856113da565b935060208501359250611827604086016113da565b9396929550929360600135925050565b600080600080600080600060e0888a03121561185257600080fd5b61185b886113da565b965060208801359550611870604089016113da565b94506060880135935061188560808901611504565b9699959850939692959460a0840135945060c09093013592915050565b602080825282518282018190526000918401906040840190835b818110156118f157835180516001600160a01b03168452602090810151151581850152909301926040909201916001016118bc565b509095945050505050565b6020815260006114a660208301846115b8565b6020808252601690820152752737ba103a34329034b232b73a34ba3c9037bbb732b960511b604082015260600190565b82815260008251611957816020850160208701611594565b919091016020019392505050565b83815260606020820152600061197e60608301856115b8565b9050826040830152949350505050565b600181811c908216806119a257607f821691505b6020821081036119c257634e487b7160e01b600052602260045260246000fd5b50919050565b6b73657441747472696275746560a01b81526bffffffffffffffffffffffff198560601b16600c82015283602082015260008351611a0d816040850160208801611594565b6040920191820192909252606001949350505050565b601f82111561081e57806000526020600020601f840160051c81016020851015611a4a5750805b601f840160051c820191505b81811015611a6a5760008155600101611a56565b5050505050565b815167ffffffffffffffff811115611a8b57611a8b6113f6565b611a9f81611a99845461198e565b84611a23565b6020601f821160018114611ad35760008315611abb5750848201515b600019600385901b1c1916600184901b178455611a6a565b600084815260208120601f198516915b82811015611b035787850151825560209485019460019092019101611ae3565b5084821015611b215786840151600019600387901b60f8161c191681555b50505050600190811b01905550565b80820180821115610d1c57634e487b7160e01b600052601160045260246000fd5b634e487b7160e01b600052603260045260246000fd5b6e7265766f6b6541747472696275746560881b81526bffffffffffffffffffffffff198460601b16600f82015282602382015260008251611baf816043850160208701611594565b9190910160430194935050505056fea26469706673582212200742d36b8ac768e75d1536aa6db5c28de4c7262cbaf33dfcc69bc4afaa85e9e264736f6c634300081d0033",
  "immutableReferences": {},
  "source": "// SPDX-License-Identifier: MIT\r\npragma solidity ^0.8.20;\r\n\r\ncontract IdentityManager {\r\n\r\n    // Enum for different types of delegates\r\n    enum DelegateType { veriKey, sigAuth, enc }\r\n\r\n    // Struct to represent a Delegate with its type and expiration date\r\n    struct Delegate {\r\n        bytes32 delegateType;\r\n        uint256 expires;\r\n    }\r\n\r\n    // Struct for storing an Attribute (e.g., email, phone number) and its expiration date\r\n    struct Attribute {\r\n        bytes value;\r\n        uint256 expires;\r\n    }\r\n\r\n    // Struct to track the access status of users to a specific document\r\n    struct Access {\r\n        address user; \r\n        bool access; // true if access is granted, false otherwise\r\n    }\r\n\r\n    // Mappings to manage different aspects of identity, documents, and access control\r\n    mapping(address => address) public identityOwners; // Maps an identity to its owner\r\n    mapping(address => mapping(address => mapping(bytes32 => Delegate))) public identityDelegates; // Maps identity to delegates\r\n    mapping(address => mapping(bytes32 => Attribute)) public identityAttributes; // Maps identity to its attributes\r\n    mapping(address => string[]) public documentURLs; // Maps a user to an array of document URLs\r\n    mapping(address => mapping(address => bool)) public ownership; // Tracks document ownership between users\r\n    mapping(address => Access[]) public accessList; // List of users with access to a user's documents\r\n    mapping(address => mapping(address => bool)) public previousAccessRecords; // Tracks previous access for each user\r\n\r\n    // Events to log changes to ownership, delegates, and attributes\r\n    event DIDOwnerChanged(address indexed identity, address newOwner);\r\n    event DIDDelegateChanged(address indexed identity, bytes32 delegateType, address delegate, uint256 validTo);\r\n    event DIDAttributeChanged(address indexed identity, bytes32 name, bytes value, uint256 validTo);\r\n\r\n    // Modifier to restrict functions to only the identity owner\r\n    modifier onlyOwner(address identity) {\r\n        require(msg.sender == getOwner(identity), \"Not the identity owner\");\r\n        _;\r\n    }\r\n\r\n    // Function to retrieve the current owner of an identity\r\n    function getOwner(address identity) public view returns (address) {\r\n        return identityOwners[identity] == address(0) ? identity : identityOwners[identity];\r\n    }\r\n\r\n    // Function to transfer ownership of an identity (only accessible by the current owner)\r\n    function changeOwner(address identity, address newOwner) external onlyOwner(identity) {\r\n        identityOwners[identity] = newOwner;\r\n        emit DIDOwnerChanged(identity, newOwner);\r\n    }\r\n\r\n    // Function to add a delegate to an identity (only accessible by the owner)\r\n    function addDelegate(address identity, bytes32 delegateType, address delegate, uint256 expiresIn) external onlyOwner(identity) {\r\n        uint256 validTo = block.timestamp + expiresIn;\r\n        identityDelegates[identity][delegate][delegateType] = Delegate(delegateType, validTo);\r\n        emit DIDDelegateChanged(identity, delegateType, delegate, validTo);\r\n    }\r\n\r\n    // Function to revoke a delegate's access to an identity (only accessible by the owner)\r\n    function revokeDelegate(address identity, bytes32 delegateType, address delegate) external onlyOwner(identity) {\r\n        identityDelegates[identity][delegate][delegateType].expires = block.timestamp;\r\n        emit DIDDelegateChanged(identity, delegateType, delegate, block.timestamp);\r\n    }\r\n\r\n    // Function to set an attribute for an identity (only accessible by the owner)\r\n    function setAttribute(address identity, bytes32 name, bytes memory attributeValue, uint256 expiresIn) external onlyOwner(identity) {\r\n        uint256 validTo = block.timestamp + expiresIn;\r\n        identityAttributes[identity][keccak256(abi.encodePacked(name, attributeValue))] = Attribute(attributeValue, validTo);\r\n        emit DIDAttributeChanged(identity, name, attributeValue, validTo);\r\n    }\r\n\r\n    // Function to revoke an attribute from an identity (only accessible by the owner)\r\n    function revokeAttribute(address identity, bytes32 name, bytes memory attributeValue) external onlyOwner(identity) {\r\n        identityAttributes[identity][keccak256(abi.encodePacked(name, attributeValue))].expires = block.timestamp;\r\n        emit DIDAttributeChanged(identity, name, attributeValue, block.timestamp);\r\n    }\r\n\r\n    // Function to add a document URL to a user's document collection\r\n    function addDocument(address user, string memory url) external {\r\n    require(msg.sender == user, \"You can only upload documents for yourself\");\r\n    documentURLs[user].push(url);\r\n    }\r\n\r\nfunction changeOwnerSigned(address identity, address newOwner, uint8 v, bytes32 r, bytes32 s) external {\r\n    bytes32 hash = createChangeOwnerHash(identity, newOwner);\r\n    address signer = ecrecover(hash, v, r, s);\r\n    require(signer == getOwner(identity), \"Signature invalide\");\r\n    identityOwners[identity] = newOwner;\r\n    emit DIDOwnerChanged(identity, newOwner);\r\n}\r\n\r\nfunction addDelegateSigned(address identity, bytes32 delegateType, address delegate, uint256 expiresIn, uint8 v, bytes32 r, bytes32 s) external {\r\n    bytes32 hash = createAddDelegateHash(identity, delegateType, delegate, expiresIn);\r\n    address signer = ecrecover(hash, v, r, s);\r\n    require(signer == getOwner(identity), \"Signature invalide\");\r\n    uint256 validTo = block.timestamp + expiresIn;\r\n    identityDelegates[identity][delegate][delegateType] = Delegate(delegateType, validTo);\r\n    emit DIDDelegateChanged(identity, delegateType, delegate, validTo);\r\n}\r\n\r\n    // Function to grant access to documents for a specific user\r\n    function allowAccess(address user) external {\r\n        ownership[msg.sender][user] = true; // Grant access to the user's documents\r\n        if (previousAccessRecords[msg.sender][user]) {\r\n            // If the user had previous access, update their access status\r\n            for (uint i = 0; i < accessList[msg.sender].length; i++) {\r\n                if (accessList[msg.sender][i].user == user) {\r\n                    accessList[msg.sender][i].access = true;\r\n                }\r\n            }\r\n        } else {\r\n            // If the user had no previous access, add them to the access list\r\n            accessList[msg.sender].push(Access(user, true));\r\n            previousAccessRecords[msg.sender][user] = true;\r\n        }\r\n    }\r\n\r\n    // Function to revoke access to documents for a specific user\r\n    function disallowAccess(address user) external {\r\n        ownership[msg.sender][user] = false; // Revoke access to the user's documents\r\n        for (uint i = 0; i < accessList[msg.sender].length; i++) {\r\n            if (accessList[msg.sender][i].user == user) {\r\n                accessList[msg.sender][i].access = false; // Remove access for the user\r\n            }\r\n        }\r\n    }\r\n\r\n    // Function to display the documents owned by a specific user (with access control)\r\n    function displayDocuments(address user) external view returns (string[] memory) {\r\n        require(user == msg.sender || ownership[user][msg.sender], \"You don't have access\");\r\n        return documentURLs[user];\r\n    }\r\n\r\n    // Function to get the list of users who have access to the calling user's documents\r\n    function shareAccess() external view returns (Access[] memory) {\r\n        return accessList[msg.sender];\r\n    }\r\n\r\n    // Helper functions to generate hashes for various operations (for off-chain validation)\r\n    function createChangeOwnerHash(address identity, address newOwner) public pure returns (bytes32) {\r\n        return keccak256(abi.encodePacked(\"changeOwner\", identity, newOwner));\r\n    }\r\n\r\n    function createAddDelegateHash(address identity, bytes32 delegateType, address delegate, uint256 expiresIn) public pure returns (bytes32) {\r\n        return keccak256(abi.encodePacked(\"addDelegate\", identity, delegateType, delegate, expiresIn));\r\n    }\r\n\r\n    function createRevokeDelegateHash(address identity, bytes32 delegateType, address delegate) public pure returns (bytes32) {\r\n        return keccak256(abi.encodePacked(\"revokeDelegate\", identity, delegateType, delegate));\r\n    }\r\n\r\n    function createSetAttributeHash(address identity, bytes32 name, bytes memory attributeValue, uint256 expiresIn) public pure returns (bytes32) {\r\n        return keccak256(abi.encodePacked(\"setAttribute\", identity, name, attributeValue, expiresIn));\r\n    }\r\n\r\n    function createRevokeAttributeHash(address identity, bytes32 name, bytes memory attributeValue) public pure returns (bytes32) {\r\n        return keccak256(abi.encodePacked(\"revokeAttribute\", identity, name, attributeValue));\r\n    }\r\n\r\n    // Function to get the chain ID (useful for identifying the network the contract is deployed on)\r\n    function getChainId() external view returns (uint256) {\r\n        return block.chainid;\r\n    }\r\n}\r\n",
  "sourcePath": "C:\\DIMS-app\\decentralized-identity-management\\smart-contracts\\contracts\\IdentityManager.sol",
  "compiler": {
    "name": "solc",
    "version": "0.8.29+commit.ab55807c.Emscripten.clang"
  },
  "schemaVersion": "3.4.16",
  "updatedAt": "2025-04-13T19:21:16.641Z",
  "networkType": "ethereum",
  "devdoc": {
    "kind": "dev",
    "methods": {},
    "version": 1
  },
  "userdoc": {
    "kind": "user",
    "methods": {},
    "version": 1
  }
}